:020000040800F2
:10000000880E0020A1010008D7150008E51400089B
:10001000D515000887020008BF2C0008000000006A
:1000200000000000000000000000000005190008AA
:100030009502000800000000871800080719000852
:10004000BB010008BB010008BB010008BB010008A0
:10005000BB010008BB010008BB010008BB01000890
:10006000BB010008BB010008BB010008BB01000880
:10007000BB010008BB010008BB010008BB01000870
:10008000BB010008BB010008BB0100080000000024
:10009000000000000000000000000000BB0100089C
:1000A000BB010008BB010008BB010008BB01000840
:1000B000BB0100080000000000000000BB010008B8
:1000C000BB010008BB010008BB010008BB01000820
:1000D000BB010008BB010008BB010008BB01000810
:1000E000BB010008BB010008000000000000000088
:1000F0000000000000000000000000000000000000
:1001000000000000000000000000000000000000EF
:100110000000000000000000BB010008000000001B
:10012000BB010008BB010008BB010008BB010008BF
:10013000BB010008000000000000000000000000FB
:10014000BB010008BB010008BB0100084D2C0008E2
:10015000BB010008BB010008BB010008BB0100088F
:10016000BB010008BB010008000000000000000007
:1001700000000000BB0100080000000000000000BB
:10018000BB010008BB010008BB010008DFF80CD070
:1001900000F03CF800480047DF2C0008880E0020E3
:1001A0000648804706480047FEE7FEE7FEE7FEE711
:1001B000FEE7FEE7FEE7FEE7FEE7FEE7811900083F
:1001C0008D01000840EA01039B0703D009E008C93C
:1001D000121F08C0042AFAD203E011F8013B00F80C
:1001E000013B521EF9D27047D2B201E000F8012B58
:1001F000491EFBD270470022F6E710B513460A46A7
:1002000004461946FFF7F0FF204610BD064C074D87
:1002100006E0E06840F0010394E8070098471034D6
:10022000AC42F6D3FFF7B6FF302D0008502D000882
:1002300070B58C1810F8015B15F0070301D110F8A8
:10024000013B2A1106D110F8012B03E010F8016BD5
:1002500001F8016B5B1EF9D12B0705D40023521E58
:100260000DD401F8013BFAE710F8013BCB1A921CC0
:1002700003E013F8015B01F8015B521EF9D5A142BE
:10028000D8D3002070BDFEE70020704700207047E3
:1002900000207047704770472DE9F84FDFF860B1D4
:1002A00000234FF0010C4FF0030A4FF00F090BF140
:1002B000040E9DE00CFA03F6344022007ED04C6818
:1002C000022C01D0122C0ED1DC0800EB8408D8F8E7
:1002D00020405D07EF0E09FA07F5AC430D69BD40FC
:1002E0002543C8F8205007685D0091F804800AFA99
:1002F00005F408F00308A74308FA05F848EA0708D8
:10030000C0F800804F68012F05D0022F03D0112FB5
:1003100001D0122F11D18768D1F80C80A74308FAB9
:1003200005F848EA0708C0F808804768B7430E791F
:10033000C6F300169E403E434660C668A6438C68DE
:10034000AC403443C4604C68E40050D52D4C256E5D
:1003500045F001052566246E23F0030504F0010431
:100360000094294C2E19B4689D072F0F09FA07F540
:10037000AC43B0F1904F04D0244DA84203D10125E5
:100380000CE000250AE0224DA84201D1022505E03B
:10039000204DA84201D1032500E00725BD4025439B
:1003A000B560DBF800405D464E689443F60300D527
:1003B00014432C607546DEF8004000E017E04E68FC
:1003C0009443B60300D514432C600D4D08352C68BA
:1003D0004E689443F60200D514432C60084D0C354A
:1003E0002C684E689443B60200D514432C605B1C05
:1003F0000A681446DA407FF45DAF00F00DB80000E3
:1004000000040140001002400000014000040048C8
:1004100000080048000C004818BCBDE8E08F0AB195
:100420008161704781627047014800687047000031
:100430007400002002480168491C016070470000F8
:100440007400002010B50024032000F065F800209F
:1004500000F008F808B1012401E000F01BF8204684
:1004600010BD000070B5054609484FF47A710024AC
:100470000068B0FBF1F001F021F808B1012404E0BC
:1004800000222946501E00F027F8204670BD0000CB
:1004900078000020094808B5016E41F001010166AD
:1004A000016E01F001010091816D41F08051816583
:1004B000806D00F08050009008BD000000100240E8
:1004C00000F01F02012191404009800000F1E0206E
:1004D000C0F8001170470000F0B40E4B1B680C46CA
:1004E000C3F30223C3F10705042D00D90425191D08
:1004F000072901D2002300E0DB1E012606FA05F1E0
:10050000491E214099409E40761E16403143F0BC62
:1005100001F062B80CED00E0064900F0070208683F
:100520004FF6FF03184040EA0220034A10430860D8
:10053000704700000CED00E00000FA0501680122A0
:10054000C0F86C2431F8580F40F00100088008888A
:1005500040F0020008800020704701220168C0F8C6
:100560006824002280F8602431F8540F40F0010024
:100570000880088840F0020008801046704700009C
:1005800070B50F4D044669B101290AD1D4F8700441
:1005900001F079FEA069002803D0286840F0060029
:1005A000286070BDA06928B101F0AFF9286820F07B
:1005B00006002860D4F87004BDE8704001F0F1BD79
:1005C00010ED00E010B50C0605D501F00F0100EBB1
:1005D0004110283003E000EB411000F50A7099B299
:1005E00032B1012202730181190C4181002010BD3A
:1005F00000220273C180F9E700EB4112D0F87004C9
:10060000D26B01F098BC00EB4112D0F87004D2F824
:100610003C2201F0F3BC70B504460B0601F00F005C
:1006200004EB40114FF001024FF0000503D581F8B3
:100630002920283103E081F8295201F50A71087058
:1006400094F82804012808D084F82824206802F0AF
:1006500031F984F82854002070BD022070BD70B5B7
:10066000044601F00F006268904201D9012070BD7C
:100670000B0601F00F0104EB41114FF001024FF0A6
:10068000000503D581F82920283103E081F829529B
:1006900001F50A718D70087094F82804012808D0BB
:1006A00084F82824206802F0B3F984F82854002044
:1006B00070BD022070BD2DE9F04104460F0601F027
:1006C0000F0004EB40114FF001064FF0000503D579
:1006D00081F82960283103E081F8295201F50A7177
:1006E00008700A61CB704A7802B1C881022B00D130
:1006F0000D7194F82804012809D084F82864206832
:1007000001F0A6FF284684F82854BDE8F0810220B5
:10071000FBE770B50C4601F00F0500EB4511C1E990
:100720008F230022C1F8442281F8292281F828521F
:1007300001F50A712207006802F0B8F9002070BDC7
:1007400070B504460D4601F00F006168884201D97A
:10075000012070BD29064FF000064FF0010205D5BB
:1007600004EB401181F82920283105E004EB451104
:1007700081F8296201F50A718A70087094F82804DA
:10078000012807D084F82824206802F076F9280789
:1007900002D006E0022070BD04F58661206802F0F8
:1007A00035F984F82864002070BD70B50C4601F05E
:1007B0000F0500EB4511C1E90F2300224A64012215
:1007C00081F8292001F8285F2207006802F06EF9FD
:1007D000002070BD10B50446006802F03DFA000428
:1007E00002D5204600F008FF206802F035FA4005E7
:1007F0000CD5206830F8441F21F480610180204628
:1008000000F044F90021204600F06CF9206802F065
:1008100023FA400405D5206830F8441F21F48041B4
:100820000180206802F018FA800405D5206830F8AD
:10083000441F21F400510180206802F00DFAC00429
:100840001FD5206830F8401F21F004010180206886
:1008500030F8401F21F00801018094F8600401285D
:1008600006D1002084F8600401462046FFF788FE88
:10087000204600F01FF9206830F8441F21F4805111
:100880000180206802F0E8F900051AD5206830F8E8
:10089000401F41F008010180206830F8441F21F416
:1008A00000610180206830F8401F41F004010180A0
:1008B000206802F0D1F9C043C00402D5204600F000
:1008C00041F9206802F0C8F900060BD5206830F81D
:1008D000441F21F08001018094F86004E0B12046BB
:1008E00000F030F9206802F0B7F9800508D52068DB
:1008F00030F8441F21F400710180204600F0EEF82A
:10090000206802F0A9F9C00505D5206830F8441F19
:1009100021F48071018010BD206830F8401F41F043
:1009200004010180206830F8401F41F00801018077
:10093000012084F860042068B0F854003C2101EAEA
:100940009000C4F8640401212046FFF719FEC9E7AE
:10095000F0B585B0040004D094F82904002518B13E
:1009600007E0012005B0F0BD84F82854204600F0CF
:1009700057F8032084F82904206802F03FF804F1B6
:10098000100114220F466846FFF71CFC94E80F0084
:1009900001F08EFF0021206802F075F90020012689
:1009A00004EB401181F8296001F8280FC881CD704F
:1009B0000D61401C4D61C0B28D610F28F0D3002045
:1009C00004EB401181F8295281F8280281F82B525A
:1009D000C1F83852401CC1F83C52C0B2C1F8405274
:1009E0000F28EDD3142239466846FFF7EBFB94E855
:1009F0000F0001F0F4FF84F8245084F82964E069C2
:100A0000012802D12046FFF7A8FD206A012802D163
:100A10002046FFF793FD206801F0DAFF0020A1E7F0
:100A200010B50068174986B0884228D1164CE06C92
:100A300040F00100E064E06C694600F001000590C0
:100A40004FF4C0500090022001900020029003203B
:100A500003900A2004904FF09040FFF71DFCA06D1A
:100A600040F08060A065A06D002200F080600590DD
:100A700011464320FFF730FD4320FFF721FD06B06C
:100A800010BD0000006800400010024070B5044630
:100A900080680125022801D0FFF7FDFB2946D4F824
:100AA000700401F090FBD4F87004BDE8704001F0D0
:100AB00050BB000010B50446806930B1064801689B
:100AC00021F00601016000F020FFD4F87004BDE8B9
:100AD000104001F066BB000010ED00E0D0F870049B
:100AE00001F065BB10B5044690F8280401280BD02E
:100AF000012084F8280484F82410206802F0C5F846
:100B0000002084F8280410BD022010BDD0F8702405
:100B100000F58661104601F069BB10B5044690F8F7
:100B2000280401280CD0012084F82804206801F052
:100B300048FF206802F081F8002084F8280410BDE6
:100B4000022010BD10B50446D0F8700401F09BFBE4
:100B5000A069002804D00348016841F00601016043
:100B600010BD000010ED00E01649B0F5007F0868E8
:100B7000C0F3412009D0022805D0086820F4C060E5
:100B800040F480600860002070470128FBD00868AE
:100B900020F4C06040F4007008600B483222006806
:100BA00050430A4AB0FBF2F0401C00E0401E4A6984
:100BB000520501D50028F9D148694005E3D5032045
:100BC00070470000007000407800002040420F0095
:100BD0000248416841F48061416070470070004004
:100BE0000248006800F4C0607047000000700040D8
:100BF0002DE9F843044600680026774D80035ED552
:100C0000A86D0027C00008D4A86D40F08050A865EA
:100C1000A86D012700F080500090DFF8C091D9F84E
:100C2000001041F48071C9F80010FFF7FDFB804609
:100C300006E000BFFFF7F8FBA0EB080002282BD866
:100C4000D9F80000C005F5D5D5F8900010F4407033
:100C500014D0216B814211D0D5F89000D5F89010B6
:100C600020F4407041F48031C5F89010D5F8901010
:100C700021F48031C5F89010C5F89000C00711D05C
:100C8000FFF7D2FB804641F2883907E0FFF7CCFB43
:100C9000A0EB0801494501D903260BE0D5F89000E7
:100CA0008007F3D5D5F89000216B20F440700843FD
:100CB000C5F890001FB1A86D20F08050A86520787D
:100CC000C00707D0D5F88800616820F0030008430A
:100CD000C5F888002078800707D5D5F88800A16876
:100CE00020F00C000843C5F888002078400707D59D
:100CF000D5F88800E16820F030000843C5F8880086
:100D00002078800607D5D5F88800216920F4406056
:100D10000843C5F888002088800507D5D5F88800E5
:100D2000216A20F440200843C5F888002088400547
:100D300007D5D5F88800616A20F440100843C5F84B
:100D400088002078400607D5D5F88800616920F42E
:100D500040500843C5F888002078000607D5D5F82C
:100D60008800A16920F440400843C5F88800208825
:100D7000C00507D5D5F88800E16920F44030084364
:100D8000C5F8880020884FF0006180040ED5D5F8A2
:100D90008800A26A20F040601043C5F88800A06A6D
:100DA000884203D1E86840F48010E860206840037E
:100DB0000ED5D5F88800E26A20F040601043C5F8EF
:100DC0008800E06A884203D1E86840F48010E86057
:100DD0003046BDE8F883000000100240007000407B
:100DE0002DE9F0470F46050058D03F4E306800F01F
:100DF0000700B84209D2306820F00700384330605D
:100E0000306800F00700B84248D12878374CC00756
:100E10002CD06868032811D0022812D0216898B11C
:100E2000490500293ADAA16821F003010143A160D4
:100E3000FFF7FAFA804641F2883910E0216889010B
:100E4000EFE721688903ECE78907EAE7FFF7ECFAA7
:100E5000A0EB0801494502D90320BDE8F087A0684E
:100E6000696800F00C00B0EB810FEFD128788007A3
:100E700005D5A068A96820F0F0000843A06030689C
:100E800000F00700B8420BD9306820F00700384363
:100E90003060306800F00700B84201D00120DCE784
:100EA0002878400705D5A068E96820F4E060084389
:100EB000A0602878000706D5A068296920F4605052
:100EC00040EAC100A06000F017F8A168084AC1F329
:100ED0000311515C01F01F01C84006490860BDE8DC
:100EE000F0470020FFF7BEBA002002400010024089
:100EF000F02C00087800002070B525490023184622
:100F00008A68CC6812F00C0204F00306214C4FEA08
:100F1000640509D00C2A05D0042A26D0082A00D15D
:100F2000284670BD012E10D10B681B0704D4D1F8E0
:100F30009430C3F3032302E00B68C3F30313164E8C
:100F400056F823307AB10C2AEBD1C86800F00302BE
:100F5000C868C0F30210401C022A08D0032A09D036
:100F6000B3FBF0F008E0184670BD204670BDB4FB3E
:100F7000F0F001E0B5FBF0F0CA68C968C2F30622E0
:100F80005043C1F34161491C4900B0FBF1F070BD11
:100F9000001002400024F400002D00082DE9F84361
:100FA00005007CD0FE4CA06800F00C06E06800F064
:100FB00003072878C00662D576B10C2E01D1012F27
:100FC0000AD0E8690028206878D040F0010020604D
:100FD000FFF72AFA804659E02068800702D5E869C1
:100FE0000028DED0696A2068000703D5206800F079
:100FF000F00004E0D4F89400F02202EA10108142DC
:1010000016D9084600F040FC002848D1206840F07E
:10101000080020602068696A20F0F0000843206022
:101020006068296A20F47F4040EA0120606015E092
:10103000206840F0080020602068696A20F0F00015
:10104000084320606068296A20F47F4040EA01205C
:101050006060686A00F018FC0028D6D1FFF74CFFEA
:10106000A168D04AC1F30311515C01F01F01C840CF
:10107000CD4908600020FFF7F5F900287ED12EE069
:10108000FFF7D2F9A0EB0800022878D82068800783
:10109000F6D5206840F008002060206801E0B5E047
:1010A0000CE0696A20F0F000084320606068296A5B
:1010B00020F47F4040EA0120606010E020F0010051
:1010C0002060FFF7B1F9804606E000BFFFF7ACF9FA
:1010D000A0EB08000228D8D820688007F6D428782A
:1010E000C00740D0082E18D00C2E01D1032F14D0E9
:1010F0006868B0F5803F17D0B0F5A02F206817D0F2
:1011000020F480302060206820F48020206068680F
:10111000E0B1FFF789F9804614E02068800322D50A
:101120006868002872D01EE0206840F48030EDE747
:1011300040F480202060F7E7FFF776F9A0EB080085
:101140006428A2D820688003F6D50CE0FFF76CF97C
:10115000804605E0FFF768F9A0EB0800642894D802
:1011600020688003F6D4287880073BD5042E11D060
:101170000C2E01D1022F0DD0E86801E092E1EAE0E7
:10118000002820681ED040F480702060FFF74CF9E2
:1011900007460CE0206840050CD5E8680028C1D05F
:1011A00008E000BFFFF740F9C01B022893D8206871
:1011B0004005F7D56068297C20F0FE4040EA0160D8
:1011C00060600FE020F480702060FFF72DF9074683
:1011D00005E000BFFFF728F9C01B0228B1D820683E
:1011E0004005F7D42878000753D568690028D4F85B
:1011F00094003DD0A96900F01002914223D08107EC
:101200004FEAC07003D500288CD001E051E190B1C5
:10121000D4F8940020F00100C4F89400FFF704F91A
:10122000074604E0FFF700F9C01B112889D8D4F85D
:1012300094008007F6D4D4F89400A96920F0100037
:101240000843C4F89400D4F8940040F00100C4F8B6
:101250009400FFF7E9F8074605E000BFFFF7E4F860
:10126000C01B112877D8D4F894008007F6D510E079
:1012700020F00100C4F89400FFF7D6F8074604E018
:10128000FFF7D2F8C01B112865D8D4F89400800766
:10129000F6D42878400778D5A06D0027C00008D480
:1012A000A06D40F08050A065A06D012700F0805037
:1012B00000903E480168C90512D40168814641F496
:1012C00080710160FFF7B0F8804605E0FFF7ACF8E9
:1012D000A0EB080002283ED8D9F80000C005F5D5DB
:1012E000A868C10720D0D4F8901000F0800021F049
:1012F00080010143C4F89010287A400705D5D4F83E
:10130000900040F00400C4F89000D4F8900040F041
:10131000010000BFC4F89000A86841F28839D8B134
:10132000FFF782F8804611E0D4F8900020F0010029
:10133000C4F89000D4F8900020F00400EAE700BF61
:10134000FFF772F8A0EB0801494504D8D4F89000E3
:101350008007F5D514E087E0FFF766F8804605E0E2
:10136000FFF762F8A0EB080149457DD8D4F890005A
:101370008007F5D4D4F8900020F08000C4F89000E5
:101380001FB1A06D20F08050A0652878800630D570
:10139000A86A0028D4F898001AD040F0010007E0AD
:1013A00000100240F02C000878000020007000407F
:1013B000C4F89800FFF738F8074604E0FFF734F860
:1013C000C01B02286DD8D4F898008007F6D510E02D
:1013D00020F00100C4F89800FFF726F8074604E063
:1013E000FFF722F8C01B02285BD8D4F898008007CA
:1013F000F6D4E86AC8B30C2E5BD00228206820F02F
:10140000807020600BD0E06820F00300E060E068AE
:1014100020F08870E060FFF707F8054644E0FFF72A
:1014200003F8064605E000BFFEF7FEFF801B02281A
:1014300037D820688001F7D4686B296B0001103819
:101440000843A98F1C4A490802EB4151AA6B41EAA3
:101450000221084395F840104FF07E42490802EB04
:1014600041610843E06001E01BE020E0206840F0BB
:1014700080702060E06840F08070E060FEF7D4FF8C
:10148000054604E0FEF7D0FF401B022809D820687B
:101490008001F7D50BE000BFFEF7C6FF401B022816
:1014A00002D90320BDE8F88320688001F4D400202D
:1014B000F8E70120F6E700000000E0FF10B5401E4D
:1014C000B0F1807F01D3012010BD4FF0E0246061B6
:1014D0000F21601700F080F80020A0610720206134
:1014E000002010BDFEE70000F0B500230A243025DF
:1014F00037261F4611E000BFB4EB107F02D905EB81
:10150000107C01E006EB107C01F813C001EB430CEA
:1015100000015B1C8CF80170DBB29342ECD3F0BD90
:1015200030B587B014216846FEF765FE1248C16CDD
:1015300041F00201C164C16C01F002010591C16C6E
:1015400041F00101C164C06C0C4D00F001004FF48A
:1015500080440590002221462846FEF760FF0120C6
:1015600000210094CDE90101039169462846FEF768
:1015700093FE07B030BD0000001002400004004898
:1015800010B500220F49104800F0A0FC08B1FEF78A
:1015900082FE0E490C4800F0A3FE08B1FEF77BFE68
:1015A0000B49094800F095FA08B1FEF774FE0648A9
:1015B00000F0ECFE002803D0BDE81040FEF76BBE43
:1015C00010BD000000000020580100208000002015
:1015D00064000020FEE770470907090E002806DABC
:1015E00000F00F0000F1E02080F8141D704700F1BA
:1015F000E02080F8001470472DE9F05F044640F6C3
:101600008F7B48F60F7A40F202492DE1B0F8441082
:1016100011F00F0625D030F8267039047ED530F849
:10162000261001EA0B0120F8261004EB461595F868
:10163000340205F50A750028206870D0297830F842
:1016400021205204B0F8502002EB000368D509EBCA
:10165000C101595AC1F309015FEA01087ED02A8904
:10166000BCE0C90629D4018801EA0A01018020688A
:1016700004F12805B0F850100A18297809EBC100C8
:10168000105AC0F309006064E16B0844E063002174
:101690002046FEF7B1FF94F824000028B5D0A869D1
:1016A0000028B2D194F82400216840F08000A1F80D
:1016B0004C00002084F82400D6E0018804F50A7567
:1016C0000A051AD5B0F850102A78014440F20640B5
:1016D00000EBC200085A04F58661C0F30903EB6110
:1016E000EA88206801F0BBFA2168088800EA0B004C
:1016F00008802046FFF70AFAB6E0090442D50188BF
:1017000001EA0B0101802068B0F850102A780144EA
:1017100040F2064000EBC200085A02E084E03EE0DE
:1017200051E083059B0DEB6108D0EA886969206868
:1017300001F095FAE969686908446861002120466A
:10174000FEF761FF2068B0F850100844296900F2E4
:101750000640C1B13E291CD24A0800E042E0C90758
:1017600000D0521C4FF6FF7101EA822101802168EE
:1017700008884BF68F72104080F4405048F2800287
:101780001043088070E0018821F44C4141F400418D
:10179000ECE749094FF4004242EA8121E6E7B0F85C
:1017A00050102B780A1840F2064101EBC301515A40
:1017B000C1F309015FEA010820D0EA88434669695C
:1017C00001F04DFA1AE040F2064202EBC101595A0B
:1017D000C1F309015FEA010804D06A8943466969D7
:1017E00001F03DFA2A78216831F8220048F68F731B
:1017F000184048F2C003184321F82200E96901EBC0
:101800000800E861696901EB08026A61AB6913B11C
:101810002969414504D929782046FEF7F4FE03E002
:1018200029782046FEF775FF38061DD5226804EB9F
:10183000461032F8261001EA0A0122F82610216823
:10184000B1F85020531810F8281F09EBC101595A5C
:10185000C1F30901C16142690A44426101788369A7
:10186000204653B1FEF7A1FF2068B0F844100904E8
:101870003FF5CCAE002000F003B8FEF7BDFEF3E765
:1018800030BCBDE8C09F7047F8B51C4D064600242B
:10189000A86DC00002D5FFF7A3F90DE0A86D40F0D8
:1018A0008050A865A86D00F080500090FFF798F96F
:1018B000A96D21F08051A965B0F5007F04D0802E7C
:1018C00007D94FF003040AE0802E08D9A02E01D8D2
:1018D00004E001D1022402E0702E00D10124084866
:1018E000016821F0070121430160006800F0070052
:1018F000A04201D00120F8BD0020F8BD0010024038
:10190000002002407047FEF795BD10B5A4B04421F9
:101910006846FEF770FC14211EA8FEF76CFC34210B
:1019200011A8FEF768FC4FF40070FFF71DF9302096
:10193000002460210090CDE9084101200A90079021
:101940000221CDE90B100D902820CDE90E0168464B
:101950001091FFF723FB0F201E900320CDE91F04F9
:10196000219404211EA82294FFF73AFA4FF4005064
:101970001B94119011A8FFF73BF924B010BD000093
:101980000D48016841F4700101600C48016841F0A4
:1019900001010160002181600268094B1A40026068
:1019A0008214C260026822F48022026081610249CE
:1019B000C00380390860704788ED00E000100240E5
:1019C000FFFFF6EAD0F89002002101750846704743
:1019D00070B50546D0F89042D5F894226178D26867
:1019E00020789047022322460121284600F0A1FBDF
:1019F000002070BD70B50446812100F08CFA0025EE
:101A000001212046E56200F086FAC4F85851D4F866
:101A1000900248B1D4F8940204F524748068804799
:101A2000206800F010FE2560002070BD10B5D0F8D1
:101A300090422169012908D1D0F894022378617875
:101A4000C2681846904700202061002010BD0000A9
:101A50000A210180004870474C01002029210180A3
:101A600000487047BC0000202921018000487047D1
:101A7000E80000202921018000487047140100205F
:101A800070B50446002602230322812100F03EFBAC
:101A900001250223032229462046E56200F036FB99
:101AA0001820C4F8585100F0CFFDC4F8900270B16E
:101AB000054600202875D4F8940240688047022328
:101AC0002A460121204600F034FB304670BD012635
:101AD000FBE702460220002902D00020C2F894123F
:101AE00070470000F8B50022D0F89032ADF8002021
:101AF0000E781546144616F0600621D0202E55D1DA
:101B00004A78921E0A2A51D2DFE802F00F0850509C
:101B1000505050130B05887858604AE00122191D77
:101B200035E04888000A986043E0012203F108018B
:101B30002DE001221A61CA88194600F063F838E0E6
:101B40004E7836B1062E0BD00A2E23D00B2E2DD177
:101B500028E090F87422032A28D10222694616E070
:101B60004B882226B6EB132F07D1CA88022A00D948
:101B70000222D0F894120D6808E02126B6EB132F4C
:101B800004D1CA880D4D092A00D90922294600F03E
:101B900053F80EE090F87422032A07D1012203F1D2
:101BA0000C01F4E790F87422032A04D000F01FF827
:101BB00002242046F8BD8878D860FAE7400100206A
:101BC00010B5D0F88C2252689047002010BD134603
:101BD00010B50A46002100F0ACFA002010BD1346F3
:101BE00010B50A46002100F057FB002010BD10B5CB
:101BF0000446802100F027FB2046BDE8104000216C
:101C000000F021BB10B50323C0F84821C0F86C32A6
:101C1000C0F84C2113460A46002100F08AFA002041
:101C200010BD10B505210023C0F86C121A461946E4
:101C300000F07FFA002010BD10B50223C261C0F889
:101C40006C32026213460A46002100F025FB002098
:101C500010BD10B504210023C0F86C121A461946B5
:101C600000F01AFB002010BD10B50A46024903A07F
:101C700000F008F9004810BD840800204375737413
:101C80006F6D2048494420436F6E6669670000000D
:101C900012200880004870472400002010B50A4632
:101CA000024903A000F0EEF8004810BD84080020AF
:101CB000437573746F6D2048494420496E74657292
:101CC00066616365000000000420088000487047DA
:101CD0002000002010B50A46024903A000F0D2F807
:101CE000004810BD8408002053544D6963726F652D
:101CF0006C656374726F6E696373000010B50A4699
:101D0000024903A000F0BEF8004810BD840800207E
:101D100053544D333220437573746F6D2048756D85
:101D2000616E20696E746572666163650000000013
:101D300010B51A2008800A480168001D0468001DBB
:101D40000068081809D008220649FFF7CDFB0549AD
:101D5000042210312046FFF7C7FB0248801E10BD49
:101D60009075FF1F460000200C2008800048704737
:101D700038000020F8B5044648880D46010A0629B7
:101D800055D006DC01290DD0022912D0032958D1E3
:101D90001DE0072953D00F2953D1D4F88812207C95
:101DA000CA6903E0D4F88812207C0A686946904723
:101DB00033E0207C02260028D4F88C0205D0C16ACA
:101DC000684688470146467048E0816AF8E7C1B234
:101DD000062924D2DFE801F003080D12171CD4F8FD
:101DE0008812207C4A68E1E7D4F88812207C8A684F
:101DF000DCE7D4F88812207CCA68D7E7D4F88812C8
:101E0000207C0A69D2E7D4F88812207C4A69CDE7A1
:101E1000D4F88812207C8A69C8E701461EE0C1B266
:101E2000D4F88C026A46836B20469847F5E7207CFD
:101E300038B9D4F88C02416B68468847EDE7207CBE
:101E400020B129462046FFF7D2FEF8BDD4F88C0217
:101E5000016B68468847014607204870BDF80000BE
:101E600048B1EA8852B1824200D90246ADF800205A
:101E70002046FFF7E1FEE8880028E6D12046FFF77C
:101E8000E8FEF8BD70B5002300281ED004460025EA
:101E900002E06D1CEDB2641C2678002EF9D10224FC
:101EA00004EB450414801278CA545B1C0322CA5404
:101EB00000245B1C06E0CA545B1CDAB28C54521C32
:101EC000D3B2401C0278002AF5D170BD10B580B1A4
:101ED000D0F88C3213B10023C0F88C3209B1C0F8AD
:101EE0008812012180F87412027000F0C5F80020F9
:101EF00010BD022010BD10B50024D0F89802FEF7E6
:101F0000AEFB30B1012801D0022801D0022400E04C
:101F10000124204610BD10B50024D0F89802FEF729
:101F20007AFB30B1012801D0022801D0022400E060
:101F30000124204610BD2DE9F0411746044651B159
:101F4000D4F88C0242691AB194F87402032851D073
:101F50000220BDE8F081D4F86C32002504F11400B1
:101F6000022B03D0042B3AD0C3B33CE0D0E9036387
:101F70009E4207D9F11AC1608AB239462046FFF75E
:101F80002EFE12E08068B0FBF3F103FB110199B95A
:101F9000984211D3D4F8701288420DD20022114613
:101FA0002046FFF71CFEC4F8705200231A4619465B
:101FB000204600F0BEF816E0D4F88C02C16829B1C2
:101FC00094F87402032801D12046884780212046D6
:101FD00000F039F92046FFF724FE04E0FFE78021F6
:101FE000204600F030F994F87802012804D184F8F2
:101FF000785201E0204690470020AAE770B51546C8
:10200000044649B1D4F88C0282691AB194F874027A
:1020100003282DD0022070BDD4F86C1204F5A070F6
:10202000032902D005291ED024E0D0E903218A42E9
:102030000BD9531AC3600846834200D303469AB2B1
:1020400029462046FFF7C3FD14E0D4F88C0201694D
:1020500029B194F87402032801D12046884720460C
:10206000FFF7F7FD06E00021204600F0ECF801E064
:1020700020469047002070BD10B50446FEF7A8FD2D
:1020800019491A48C1F87044C4F898120860082029
:102090004860022088600861002048618861C8614A
:1020A00008620846FEF754FC08B1FEF7F4F8002277
:1020B000D4F898021823114604F52674FEF782FA24
:1020C0005823002280212068FEF77CFA9823002202
:1020D00081212068FEF776FAD823002201212068AA
:1020E000FEF770FA002010BD1004002000680040C8
:1020F0000A06D0F8980201F07F0100EB411002D5EA
:1021000090F82A00704790F82A02704770B51D4673
:1021100013460024D0F898022A46FEF7CCFA30B1D4
:10212000012801D0022801D0022400E00124204629
:1021300070BD10B50024D0F89802FEF7EAFA30B16D
:10214000012801D0022801D0022400E00124204609
:1021500010BD70B50022044640231146FFF7D6FF9C
:1021600040260125C4F850613346002280212046D4
:10217000C4F84451FFF7CAFF6662A56184F874523F
:102180000020C4F86C026060C4F87C02D4F89002AD
:1021900028B1D4F88C0200214268204690470020E4
:1021A00070BD90F8751280F874120020704710B559
:1021B00090F87412032904D1D0F88C12C96901B1C6
:1021C0008847002010BD01740020704710B500241E
:1021D000D0F89802FEF786FC30B1012801D0022821
:1021E00001D0022400E00124204610BD70B5044651
:1021F00000F52070054600F05FF80120C4F86C027D
:10220000B4F88602C4F8700294F8800210F01F013E
:102210000AD001290DD0022910D000F080012046FB
:1022200000F011F8002070BD2946204600F0B3F8F8
:10223000F8E72946204600F0DFF9F3E72946204673
:1022400000F032F9EEE710B50024D0F89802FEF75E
:1022500077FA30B1012801D0022801D0022400E031
:102260000124204610BD10B50024D0F89802FEF7D6
:1022700054FC30B1012801D0022801D0022400E032
:102280000124204610BD90F8741280F875120421C4
:1022900080F874120020704710B50024D0F898021E
:1022A000FEF783FA30B1012801D0022801D00224C0
:1022B00000E00124204610BD0A7802704A7842707E
:1022C0008A78CB7802EB032242800A794B7902EBC1
:1022D000032282808A79C97902EB0121C18070478B
:1022E0000246002011B1C2F88C12704702207047DC
:1022F00010B5D0F88C2202241AB11268904700B9A8
:102300000024204610BD000070B50E461E4D897891
:1023100004462970012931D894F8740202280BD0A0
:1023200003280FD031462046FFF761FC297820466C
:10233000BDE87040FFF744BCD9B10320616084F868
:10234000740209E071B16068884212D0C1B22046BF
:10235000FFF736FC297861602046FFF7C9FF0228A5
:102360000CD006E0022084F8740220466160FFF77A
:1023700027FC2046BDE87040FFF76BBC3146204685
:10238000BDE87040FFF733BC7C00002010B5FFF7BC
:102390006AFF002010BD2DE9F0410A78002612F0F6
:1023A000600208D0202A01D0402A70D1D0F88C22B7
:1023B000926890476DE04B78002201250A2B66D287
:1023C000DFE803F0405D6557650805652C29FFF7D8
:1023D000D1FC5EE004468888D8B9C888C8B9488866
:1023E000802816D200F07F0794F87402032810D0DA
:1023F00084F8767239462046FFF7E8FE2046FFF75C
:1024000028FC1FB1022084F8740242E084F8745260
:102410003FE020463BE0FFF777FF3AE0CB88012B17
:1024200035D190F87432012B04D0022B02D0032B4B
:102430002DD104E08260012200F1080116E00122A2
:10244000011D13E090F87422012A03D0022A01D062
:10245000032A1CD1CA88022A19D1C560D0F87C127F
:1024600009B10321C160022200F10C01FFF7E4FB76
:102470000FE0498801290CD1C0F87C5211E090F896
:102480007432012B08D0022B06D0032B04D0FFF7A7
:10249000AEFB3046BDE8F08149880129F9D1C0F88A
:1024A0007C22FFF7D6FBF4E72DE9F0410A4604460B
:1024B00010780027097910F060030AD0202B01D092
:1024C000402B50D1D4F88C0211468368204698479F
:1024D0008FE0C0F34110012806D05078D0B3012816
:1024E0002AD003283FD107E0D4F88C021146836834
:1024F0002046BDE8F041184794F87402022802D043
:10250000032872D10AE071B380296ED02046FFF70C
:102510009AFE80212046FFF796FE6AE0508838B97F
:1025200031B1802904D0D08810B92046FFF78BFE46
:102530002046FFF78EFB5CE094F874020228E2D09C
:10254000032852D1508898BB4806F1D02046FFF7A7
:10255000D2FCEDE7FFE794F874020026022803D0CE
:10256000032842D112E040E009B180293DD108069C
:1025700001F07F0000EB800004EB800101D51431F5
:1025800001E001F5A07102220E602AE0080601F0C8
:102590000F0000EB800004EB80000AD5806920B3B7
:1025A00001F07F0000EB800004EB800514350BE0A8
:1025B0001FE0D0F84401C0B101F07F0000EB8000C3
:1025C00004EB800505F5A07541B1802906D02046B1
:1025D000FFF78EFD10B10120286000E02E6002227E
:1025E00029462046FFF728FB03E011462046FFF767
:1025F000FEFA3846BDE8F08170B5054608780C460D
:1026000010F0600003D0202801D0402816D195F8A2
:102610007402012803D0022801D003280ED12079AA
:1026200001280BD8D5F88C02826828469047E188AB
:10263000014306D12846FFF70CFB02E02846FFF7CE
:10264000D6FA002070BD704700487047F4030020A0
:102650002DE9F0470B784FF0000C30F8232048F6B6
:102660008F142240CC78002C7ED0012C7DD0022CFF
:1026700003D0032C7AD04FF0010C20F823200D78E2
:1026800030F8254048F68F7214402C4348F28003FE
:102690001C4320F825400F7B48F6BF744BF68F791A
:1026A00048F2C0054CF28006EFB391F80080C246B4
:1026B00030F8287048F28018174047EA080720F8D9
:1026C0002A70B0F8507091F80080074407EBC807F3
:1026D000B1F8088028F00108A7F80084B0F850701D
:1026E00091F80080074407EBC807B1F80A8028F08A
:1026F0000108A7F804844F78002F70D00F7830F8C5
:1027000027805FEA484807D530F8278008EA0208A2
:1027100048EA060820F827800F7830F827805FEA1B
:10272000486809D500E033E030F8278008EA02085D
:1027300048EA050820F827800F7830F82750154020
:10274000354320F82750CA780D78012A30F8252023
:1027500002EA040201D082F020021A4320F8252068
:102760000A7830F8221002E009E00EE00AE001EAFF
:102770000901194320F822106046BDE8F08742F4B1
:1027800000727AE742F4C06277E742F4806274E74D
:102790004F782FB3B0F850600F78064406EBC706A9
:1027A000CF8827F00107A6F800740F7830F827606B
:1027B000760605D530F8276016402E4320F82760AE
:1027C000CA78012A06D00A7830F82210214081F018
:1027D0002001CEE70A7830F822102140C9E73EE018
:1027E000B0F850400D78044404EBC504CD8825F0C2
:1027F0000105A4F80454B0F850400D78044404EBEB
:10280000C5040D6904F20644EDB13E2D21D26F08D6
:10281000ED0700D07F1C4FF6FF7505EA8725258060
:102820000D7830F82540640405D530F82540144073
:10283000344320F825400A7830F8221001EA0901D3
:1028400081F4405195E7258825F44C4545F4004531
:10285000E5E76D094FF4004747EA8525DFE791F882
:10286000008030F828707F0405D530F828701740B4
:10287000374320F828700F7830F82760760605D5A2
:1028800030F8276016402E4320F827600F7830F884
:10289000276016402E4320F827600D7830F8252059
:1028A00002EA090282F440521A4320F8252091E7F7
:1028B000002070472DE9F04391F80C804F780A789A
:1028C00048F6BF7C4BF68F7948F2800348F2C0058A
:1028D0004CF2800648F68F74B8F1000F28D0002F14
:1028E00030F822704FEA474748D0002F05DA30F819
:1028F00022702740374320F822700A7830F822707F
:102900007F0605D530F8227027402F4320F822702B
:102910000D7830F825202240324320F825200C780D
:1029200030F8242002EA0C021A4320F824201AE08E
:102930007FB130F82260760605D530F82260264057
:102940002E4320F822600A7830F8221001EA0C01A8
:102950000EE030F822506D0405D530F822502540A5
:10296000354320F822500A7830F8221001EA090194
:10297000194320F822100020BDE8F083002F05DA6B
:1029800030F822702740374320F822700A7830F858
:102990002260760605D530F8226026402E4320F8C6
:1029A00022600E7830F8262022402A4320F8262084
:1029B0000C7830F8242002EA09021A4320F8242077
:1029C000C1E730F8581F41F40041018000207047F2
:1029D00030F8581FC1F30E0101800020704700B588
:1029E0000121A0F840100021A0F84010A0F84410E8
:1029F000A0F8501000F021F9002000BD30F8401F71
:102A00004BF6807291430180002070470020704790
:102A100030B54B780A78002B48F68F7530F82230A5
:102A200048F2800412D05B0607D530F822302B40E4
:102A300048F2C0052B4320F822300A7830F82210E3
:102A400048F6BF73194081F0300111E05B0407D5EF
:102A500030F822302B404CF280052B4320F82230F6
:102A60000A7830F822104BF68F73194081F44051E8
:102A7000214320F82210002030BD10B54A78097893
:102A8000002A48F2800330F8212005D048F6BF74B0
:102A9000224082F0100204E04BF68F74224082F450
:102AA00080521A4320F82120002010BDF0B50E46B8
:102AB0000546896996F801E0002296F80CC0306955
:102AC0000C4648F28007BEF1010F05D0814252D971
:102AD0000446081AB0614FE0814203D90446081A3F
:102AE000B06100E0B261BCF1000F0DD0307835F874
:102AF00020104906B5F85010294401EBC00012D54A
:102B0000A0F80644728911E0A3B2F28828467169E0
:102B100000F0C2F8B5F850003178284400EBC1004D
:102B2000A0F802441EE0A0F802443289A3B228466D
:102B3000716900F0B1F8707848F68F7110B1012812
:102B400007D00FE0327835F82200084048F2C00183
:102B500005E0327835F8220008404CF28001084345
:102B600025F82200317835F8210048F6BF72104070
:102B700080F030005CE0B2614FF6FF724FF400432A
:102B8000BCF1000F03D0BEF1000F19D02BE0B5F857
:102B900050003178284400EBC10000F206402CB10F
:102BA0003E2C30D3610943EA812107E0018821F4FA
:102BB0004C4141F4004101E002EA812101802FE013
:102BC000B5F850003178284400EBC10000F2024013
:102BD0007CB13E2C13D261085FEAC47C00D0491C52
:102BE00002EA8121018070780028D0D001280FD01E
:102BF00016E0018821F44C4141F40041F2E76109FB
:102C000043EA8121EEE76108E307D5D0491CD3E709
:102C1000B5F850104819317800EBC100A0F806440F
:102C2000317835F821004BF68F72104080F4405017
:102C3000384325F821000020F0BD30F8401F4BF646
:102C40008072114301800020704700000148FDF7A9
:102C5000C1BD000010040020B0F84400704710B55A
:102C600010445C0800F5806008D030F8022B01F8B1
:102C7000012B120A01F8012B641EF6D1DA0701D0EC
:102C80000078087010BD0020704711B98021A0F8AD
:102C90004C1000207047000010B55B1C10445B080E
:102CA00000F580600AD000BF11F8012B5B1E11F8FF
:102CB000014B42EA042220F8022BF5D110BDFEE7B9
:102CC00002E008C8121F08C1002AFAD170477047F5
:102CD000002001E001C1121F002AFBD17047FDF75F
:102CE000B1FBFEF712FEFEF71BFCFEF749FCFEE708
:102CF00000000000000000000102030406070809AC
:102D0000A0860100400D0300801A060000350C006B
:102D100040420F0080841E0000093D0000127A002E
:102D20000024F40000366E010048E801006CDC026B
:102D3000502D00080000002058010000300200085B
:102D4000F82D000858010020300D0000D02C00089C
:102D500013911C1B08C9041AD5041AFD0413311D54
:102D60001B0869081A9D041A690C30090403090438
:102D7000120101021640830450572602010203018A
:102D800014050F0C2D0107100219031B1A0322C092
:102D9000226014208D021B0889041A9104515309E2
:102DA0003D13811A1408F5191B08E508411A2D086E
:102DB0001AC5101AD104C11A69181A5D041A7504CB
:102DC0005A512C1409022913010125C03209042A81
:102DD000028515092111011401220216070581033C
:102DE000022D0507050107095A2C691A31130A0635
:082DF000290833400100000036
:040000050800018D61
:00000001FF
