:020000040800F2
:1000000018360020A1010008C5450008F540000889
:10001000FD440008470C00085F7300080000000062
:100020000000000000000000000000001D56000855
:10003000E111000800000000074A0008CD58000840
:10004000BB010008BB010008BB010008BB010008A0
:10005000BB010008BB010008BB010008BB01000890
:10006000BB010008BB010008BB010008BB01000880
:10007000BB010008BB010008BB010008BB01000870
:10008000BB010008BB010008BB0100080000000024
:10009000000000000000000000000000BB0100089C
:1000A000BB0100088D590008BB010008BB01000816
:1000B000995900080000000000000000BB01000882
:1000C000BB010008BB010008BB010008BB01000820
:1000D000BB010008BB010008BB010008BB01000810
:1000E000BB010008BB010008000000000000000088
:1000F0000000000000000000000000000000000000
:1001000000000000000000000000000000000000EF
:100110000000000000000000BB010008000000001B
:10012000BB010008BB010008BB010008BB010008BF
:10013000BB010008000000000000000000000000FB
:10014000BB010008BB010008BB010008ED720008FC
:10015000BB010008BB010008BB010008BB0100088F
:10016000BB010008BB010008000000000000000007
:1001700000000000BB0100080000000000000000BB
:10018000BB010008BB010008BB010008DFF80CD070
:1001900000F03CF800480047357800081836002089
:1001A0000648804706480047FEE7FEE7FEE7FEE711
:1001B000FEE7FEE7FEE7FEE7FEE7FEE74959000837
:1001C0008D01000840EA01039B0703D009E008C93C
:1001D000121F08C0042AFAD203E011F8013B00F80C
:1001E000013B521EF9D27047D2B201E000F8012B58
:1001F000491EFBD270470022F6E710B513460A46A7
:1002000004461946FFF7F0FF204610BD064C074D87
:1002100006E0E06840F0010394E8070098471034D6
:10022000AC42F6D3FFF7B6FF0C7F00082C7F000826
:1002300070B58C1810F8015B15F0070301D110F8A8
:10024000013B2A1106D110F8012B03E010F8016BD5
:1002500001F8016B5B1EF9D12B0705D40023521E58
:100260000DD401F8013BFAE710F8013BCB1A921CC0
:1002700003E013F8015B01F8015B521EF9D5A142BE
:10028000D8D3002070BD70B50122064694024FF00D
:1002900090452146284602F0ACF8304600F02EF892
:1002A00021462846BDE87040002202F0A2B810B5F1
:1002B0007E21002000F065F80021012000F061F8A7
:1002C0000221084600F05DF80721042000F059F8EB
:1002D0003A21052000F055F8C321062000F051F81E
:1002E0002B21072000F04DF8E021082000F049F80C
:1002F000BDE81040C020FFF7C6BF00002DE9F05F49
:100300000024064625464FF4807A4FF090474FF47C
:1003100000794FF4004B0022D0465146384602F097
:1003200068F8300604D501224146384602F061F8EB
:100330007006060E0122C8464946384602F059F8B2
:1003400000224146384602F054F86006040E594631
:10035000094802F042F8012801D144F001046D1C63
:10036000EDB2082DD7D300224946384602F041F8B5
:10037000204600F003B800000004004830BCBDE88F
:10038000C09F2DE9F04101220F46044695024FF02F
:1003900090462946304602F02CF804F03F00FFF763
:1003A000ADFF3846FFF7AAFF29463046BDE8F041C9
:1003B000002202F01EB8000004480E21017008213E
:1003C000417043218170032000F09CB9D4140020B7
:1003D0002DE9F0470022374DADF5816D1146AA6039
:1003E0009146164610461346DFF8CC807DACEF6888
:1003F00019E000BF08EB830C9CF802A004F802A0EF
:1004000038F823C0521CBCF13C0F0BD904F802A0F1
:10041000521CB9F1000F05D1DE0709D05FF00006CC
:100420004FF001095B1CBB42E4D300276B460BE095
:100430000126F5E7B6B104EB070C9CF801C000BF3C
:1004400003F801C0491CBF1C9742F3D300273E4666
:100450003A46002928D9194C13F802C0BCF1010F03
:1004600016D01EE014F807C0EAE7002FF4D013F806
:1004700002C0BCF1010F14F800C00BD00CF07F0CCF
:10048000761C04F800C0082E07D30026401C08E0A4
:10049000012706E04CF0800CF2E7CCF3460C04F8A0
:1004A00000C0521C8A42E0D3A8600DF5816DBDE802
:1004B000F0870000BC020020340500201015002049
:1004C00070B516480168164C09064FF000050DD5A9
:1004D000016821F080010160206845622168A81E42
:1004E00008612046BDE8704003F0A8B800210C4820
:1004F00003F0EAFD21684D620B4C0A4DE16825F8D6
:1005000021004FF48071094801F067FFE16805EBB5
:100510008102491C9070E16070BD0000D80200208B
:100520007026002034050020BC0200200004004892
:1005300004480D21017010214170002181700320B9
:1005400000F0E0B8D414002010B5FFF7F1FFFFF77A
:1005500033FF00F027FEFFF7EBFFBDE8104001205E
:1005600001F08EBC2DE9F05F502700F079F94FF4CF
:100570007A6007F075FC3C4D00264FF4007440F2A1
:10058000E91801222146284601F033FF404607F0D2
:1005900067FC00222146284601F02BFF404607F069
:1005A0005FFC761CBE42ECD300222146284601F0B7
:1005B00020FF4646404607F053FC012221462846CC
:1005C00001F017FF304607F04BFC0027DFF89CB026
:1005D000A846B146DFF898A024E000BF1BF80760EA
:1005E0000025F00709D000222146404601F001FF16
:1005F000484607F035FC012208E00122214640462A
:1006000001F0F7FE484607F02BFC00222146404649
:1006100001F0EFFE484607F023FC76086D1C082D1C
:10062000DFD37F1CDAF800008742D7D300222146AF
:100630004546404601F0DDFE4E46484607F010FCB8
:1006400001222146284601F0D4FE304607F008FC7E
:1006500000222146284601F0CCFE304607F000FC7F
:1006600000F008B8FFF764BF00040048341500200C
:100670002403002030BCBDE8C05FFFF7F3BF0000DB
:10068000064910B50A220A70020A4A7088700520CD
:1006900000F038F801481430007910BDD41400205F
:1006A00070B513480D21002401703721417084700A
:1006B000032000F027F80F48016821F480710160E1
:1006C000016841F0800101600B4D00224FF4007180
:1006D0000A48EC6001F08DFE0949A01E0968086116
:1006E0000021074803F046F901F088FE686070BDFC
:1006F000D4140020D8020020BC02002000040048CE
:10070000702600202DE9F047DFF8449005464FF4AD
:10071000005800224146484601F06BFE082007F0D1
:100720009FFB0C4E002406F1140705E0305D05F038
:1007300025F83855641CE4B2AC42F7D30122414697
:10074000484601F056FEBDE8F047082007F088BB98
:1007500000080048D41400202DE9F0470C2700F0D1
:100760007FF84FF4FA7007F07BFB3A4D00264FF408
:10077000007401222146284601F03BFE312007F09B
:100780006FFB00222146284601F033FE312007F09E
:1007900067FB761CBE42ECD300222146284601F0BE
:1007A00028FE312007F05CFB01222146284601F09B
:1007B00020FE312007F054FB0026DFF89CA02746DE
:1007C000A846DFF8989023E01AF806500024E807BE
:1007D00009D000223946404601F00BFE312007F0D7
:1007E0003FFB012208E001223946404601F001FEAC
:1007F000312007F035FB00223946404601F0F9FD73
:10080000312007F02DFB6D08641C082CDFD3761C0B
:10081000D9F800008642D7D30022394644464046E4
:1008200001F0E7FD312007F01BFB0122394620468D
:1008300001F0DFFD312007F013FB0022394620468E
:1008400001F0D7FD312007F00BFBBDE8F047FFF7C3
:100850006FBE000000040048FC140020BC02002011
:1008600004480D210170352141704321817003201E
:10087000FFF748BFD41400202DE9F84F0746FFF7D3
:100880000FFF00F0A5FFDFF84C93DFF84CB3DFF863
:100890004CA399F80000D24CD24EDFF84C8300F004
:1008A0000705781C0AD001F0A9FDD0490968401A53
:1008B000B84203D900F0AEB9FFF73ABECC480068A1
:1008C000C005EED5FFF734FEFFF782FDDAF8000031
:1008D000012804D005285FD00A287DD059E020786F
:1008E000C02836D005F14001884231D1F22188F884
:1008F0000010592088F8010040F6543007F0B0FA93
:10090000BC48017888F80210BB49002008EB0002BF
:100910000B5C401CC0B2D3700828F7D30B21B2483F
:1009200001F096FA88F80B000C203060FFF714FFF6
:100930009BF8000000F003009030C0B2009004F07B
:1009400081FCAC4A401CC1B21170009804F0A2FCBA
:1009500085E040F26B3015FB00F14FF47A7000EB4C
:10096000810007F07DFAA54800684007A5EBC500A7
:1009700001D4383000E0783088F800000120306081
:10098000FFF7EAFEC5F1070140F26B3011FB00F101
:1009900049E0FFF785FE84E7607899F8001000F0E1
:1009A000F80201F0F80148468A42F2D1A278417873
:1009B0008A42EED1E17899F802008142E9D12078AB
:1009C0004A2817D0492815D04E2813D04D28E0D1F9
:1009D000207900F0F00000E095E090282AD010285F
:1009E00028D0802828D0C02826D0402824D02028ED
:1009F00027D034E040F26B3015FB00F143F6FC20C9
:100A000000EB810007F02CFAA5EBC500783088F8E0
:100A1000000001203060FFF79FFEC5F1070040F2A3
:100A20006B3110FB01F14FF47A7000EB810007F09D
:100A300017FAAEE7232005E071482121017008462E
:100A400002E022206E49087000F00EFE6B4801683B
:100A500049070FD4627899F800108A4203D0022027
:100A600001F00EFA95E7016841F0040101601520DC
:100A700000F06AFB617899F80000814202D047F2E9
:100A8000481001E044F26820F22188F80010592152
:100A900088F8011007F0E4F95648574A017888F8B9
:100AA0000210002008EB0001135C401CC0B2CB70A8
:100AB0000828F7D30B214C4801F0CAF988F80B003D
:100AC0000C203060FFF748FE9BF8000000F00300A8
:100AD0009030C0B2009004F0B5FB464A401CC1B251
:100AE0001170009804F0D6FB00224FF48041454875
:100AF00001F07FFC232001F0C3F90122910341485A
:100B000001F077FC45E7217805F15000814290D152
:100B10004FF4E16007F0A4F95C2088F800009BF82E
:100B2000000088F8010038484546417888F80210EE
:100B3000807888F8030004212B4801F089F9287196
:100B400005203060FFF708FE5021601C00F07AFF9E
:100B50002E4900202B180A5C401CC0B25A7008288D
:100B6000F8D32720287009211F4801F071F9687215
:100B70000A2030604FF4FA7007F072F9FFF7ECFDCD
:100B800006F0EEFB0020224A01211154401CC0B2A5
:100B90000428FAD304221E49902004F0B1FB194D19
:100BA00000221021284601F024FC00F0DDFE00F0B8
:100BB0000FFE4FF4804400222146284601F019FC24
:100BC000232001F05DF92146284600F028B80122D3
:100BD00001F00FBC1403002013030020C402002006
:100BE00010150020BC020020FC140020C0020020D0
:100BF000D8020020F8020020F0020020E0020020CD
:100C00002203002000040048FF020020E802002028
:100C10002415002018BCBDE8E04FFFF74DBE18BCFE
:100C2000BDE8E04FFFF7D3BF00B599B00020024602
:100C300069460A54401C5F28FBD31E22A02004F002
:100C40005FFB19B000BDFEE72DE9F05FAF4CB04D82
:100C50004FF02B0B2068072865D00B2808D00D28F3
:100C600004D00E287DD185F800B00AE0232007E0EB
:100C7000942004F0E7FA287008B1212000E0202039
:100C80002870DFF8908201225103404601F0B1FB49
:100C9000FFF75AFC00F068FE00F09AFD20689E49BC
:100CA0009E4E4FF4804A072841D00E283DD0086858
:100CB000C0070FD0287800F0D7FC307800F0030090
:100CC0009030C5B2284604F0BDFA401CC1B2284697
:100CD00004F0E0FA06F09EFC5F2001F0D1F806F087
:100CE00057FC0022564651464746404601F081FBDC
:100CF000232001F0C5F801223146384601F079FB86
:100D0000874D2068286004F021FA20680F287CD0E5
:100D100029684FF0000288424FF4005176D03846DF
:100D200001F067FBFEE72220AAE7292000E045202A
:100D3000287008688946C0070FD0287800F094FC16
:100D4000307800F003009030C7B2384604F07AFAE9
:100D5000401CC1B2384604F09DFA06F05BFC9620B8
:100D600000E0CEE001F08CF806F054FC702001F0B9
:100D700087F86B4F2068386004F0E8F9206839681C
:100D8000884206D000224FF40051404601F031FB6A
:100D9000FEE70E2844D0222085F80000D9F8000094
:100DA000C00718D0307800F003009030C0B204F0D3
:100DB00049FA5C490870287800F056FC307800F059
:100DC00003009030C4B2204604F03CFA401CC1B28B
:100DD000204604F05FFA06F01DFC5F2001F050F899
:100DE00006F0D6FB5F2001F04BF806F013FC002262
:100DF000544651464546404601F0FBFA232001F097
:100E00003FF801222146284601E00CE017E001F0FE
:100E1000F0FA00224FF40051284601F0EAFAFEE70A
:100E200085F800B0BAE75F2001F02AF806F0F2FB7F
:100E300000224FF40051384601F0DBFAFEE7BB46D2
:100E4000384601F0D6FA20680B2801D00D285AD177
:100E5000102001F015F8DFF8D080DFF8D0904FF0C7
:100E6000010A302788F80070C9F800A004F026F9BC
:100E70000F2001F005F82068286004F067F9206869
:100E80002968884236D0092805D0012231465846C3
:100E900001F0AFFAFEE7002504F058F920680928B0
:100EA00005D001223146584601F0A3FAFEE76D1C39
:100EB000FA2DF1D30122550329465C46584601F02C
:100EC00098FA942004F0B0F900222946204601F057
:100ED00090FA00223146204601F08BFAC82000F03B
:100EE000CFFF01223146204601F083FAC82000F0EE
:100EF000C7FFEEE74FF48051584601F06EFA002824
:100F0000B0D006F011FB00F013B80000440300203D
:100F1000CC02002000040048E0020020130300205F
:100F200048030020F802002034150020240300208C
:100F300030BCBDE8C09F0020704700207047000013
:100F4000034810B5D0F8900205F04EFD002010BD0A
:100F5000B02600202DE9F05F294C0546206820F0DE
:100F600020002060206820F004002060DFF89490CA
:100F7000DFF894A0DFF8948000274FF6FF7B00BFD6
:100F800089F80070206840F0080020602049CAF805
:100F90000070C1F800B0D8F8002040F6B831D16236
:100FA000D8F800006FF0010101610C21174802F030
:100FB000E1FC01F023FA06466DB101F01FFA801B37
:100FC000A84208D90C21114802F004FD00F024B811
:100FD0000E4802F049BB20684007EDD50D48407827
:100FE0007A2807D00F2807D0206840F02000206022
:100FF00000F017B803F0FCFD03F006FDC0E70000A9
:10100000D8020020D602002038030020302600201D
:101010003C030020CA15002030BCBDE8C05FFFF7CC
:10102000D7BF30BCBDE8C09F2DE9F0412248012563
:101030000570224C206820F002002060204E00BF86
:1010400001F0DCF93168401A1428F9D91E4A002051
:101050001C49DFF878E013680AE01EF800704600CB
:1010600007F00F0C01F806C03F090E44401C7770D2
:101070009842F2D358001060154805600878810145
:10108000144801F57D710268D16202680021516245
:101090000068891E016108210E4802F0E9FE0D4832
:1010A00002F0CCFA20688007FCD50B480168491C87
:1010B0000160BDE8F0810000D6020020D8020020C7
:1010C0004003002066150020240300203415002072
:1010D0002803002030260020E402002004481021CC
:1010E000017028214170034902200860FFF79CBF6E
:1010F00034150020240300200A4930B41020087061
:1011000033204870084A00200C18135C401CC0B201
:10111000A3700428F8D305490620086030BCFFF707
:1011200083BF000034150020140300202403002096
:1011300008B502228DF8000040428DF80100694692
:101140009E2004F0DDF808BD08B502228DF80000ED
:1011500040428DF801006946A02004F0D1F808BD96
:1011600070B50E4C216821F0200121600A220C4943
:1011700004F076F80A4D287A7F2803D9206820F0F9
:10118000200009E00921064800F06EFE697A8142DC
:1011900003D1206840F02000206070BDD8020020FC
:1011A000241500207FB50C4E00246D467068204445
:1011B000FFF766FA2855641C102CF7D30749002066
:1011C0002A5C0B5C9A4203D04FF4FA7006F0F4FAF2
:1011D000401C1028F4D37FBDD80200204016002008
:1011E00070477047124A117F1248012901D0032924
:1011F0000BD1036843F400630360036823F40063C6
:101200000360036843F400730360022901D00329DB
:101210000BD1016841F480510160016821F48051D3
:101220000160016841F4806101600020107770471F
:10123000F003002000200240C107054803D04169A7
:1012400041F004014161416941F4803141617047DD
:10125000002002402DE9F04105464CF25037164679
:101260000C46384600F0DEF8002822D11248E90783
:101270000FD0426AA4F100646FF30D0242EAD40277
:101280004262826AA6F100666FF30D0242EAD6025C
:1012900082620446806A60F31E05A562606940F4BC
:1012A00000306061384600F0BDF8616921F400311A
:1012B0006161BDE8F0810000002002402DE9F041AD
:1012C000074600244CF250380E462546404600F0B2
:1012D000A9F8002869D1F80703D006F4E0644FF4B8
:1012E000E065B80704D506F48050044345F4805502
:1012F000780704D506F40050044345F40055F8047B
:1013000004D506F48040044345F48045380704D5ED
:1013100006F48030044345F48035F80604D506F41D
:101320000030044345F40035B80604D506F48020A7
:10133000044345F48025780604D506F400200443D0
:1013400045F40025B80504D506F40000044345F42F
:101350000005780504D506F08070044345F08075DB
:10136000380504D506F00070044345F00075B80454
:1013700004D506F08060044345F08065780404D508
:1013800006F00060044345F00065094E306AA8434A
:1013900020433062706940F400307061404600F0D4
:1013A00041F8716921F400317161BDE8F0810000FC
:1013B0000020024008494A69C0B222F4FC7242EAA5
:1013C000C0004861486940F002004861486940F443
:1013D000803048617047000000200240054910B588
:1013E0004C6944F001044C610260BFF36F8F4360AD
:1013F00010BD000000200240094A10B55469402386
:1014000044F480245461EFF3108272B610C910C006
:101410005B1E13F0FF03F9D182F3108810BD0000AA
:101420000020024070B5054600F0E8FF0646184C63
:1014300008E0681C06D000F0E1FF801BA84201D341
:10144000032070BD2069C043C003F2D52169114853
:101450000140A06900F00040084311D00E494A68DD
:1014600002434A60810F04D0A16900F04042114359
:10147000A161810002D020F040402061012070BDB8
:101480002069C043C00701D101202061002070BD48
:1014900000200240FAC30200F00300202DE9F047CB
:1014A0001E460B461746814608221A491846DDF8A3
:1014B000208003F0D5FE174CEEB1E7B116490020AD
:1014C000C0F10702A25C0A54401CC0B20828F7D33E
:1014D000002504E0384602F00FFE6D1CEDB2B54267
:1014E000F8D30E490020C0F107030A5C401CC0B2CB
:1014F000E2540828F7D384F808800921054800F051
:10150000B3FC60724846BDE8F0470A22014903F087
:10151000F7BE000024150020050000200D0000206B
:101520002DE9F0412648274C284E006820602448C9
:10153000001D00686060224808300068A0602248F2
:10154000E0600020215C3154401CC0B20828F9D36F
:1015500006F0BEF81B4D00201D4F1035395C295494
:10156000401CC0B20828F9D300202118097A315450
:10157000401CC0B20828F8D306F0AAF800202A18A8
:10158000395C401CC0B211720828F8D30020C0F1A9
:101590000F02295CA25C51402954401CC0B21028A3
:1015A000F5D300210846225C401C1144C0B2C9B2E8
:1015B0001028F8D3074801F520714160BDE8F0819B
:1015C0009075FF1F301600204657796205000020F5
:1015D0000D000020D80200202DE9F04108221F490B
:1015E000692003F03DFE08241D491E4E1B4D69274E
:1015F000601EC2B2AA5CFF2A10D094B1012C17D091
:10160000A01EC0B22A5CFF2A17D00A706930307061
:1016100004F16800C0B203F007FE14E010F0FF040C
:10162000E6D1002008700146692003F033FE01E096
:10163000287808703770BDE8F081601EC0B22A5C5F
:101640000A7069303070082CF5D12878FF28F2D064
:10165000BDE8F041692003F0E7BD0000241500203B
:1016600013030020020300202DE9FC41284E3168BD
:10167000890700D44320274A00216D46535C6B54F0
:10168000491CC9B20829F9D3234A244C00216B5CB8
:10169000575C7B406354491CC9B20829F7D33168B1
:1016A000890706D40021535C6354491CC9B2082938
:1016B000F9D321789DF800205140194A2170A17971
:1016C00012785140A171E1794140E1711549002042
:1016D000225C0A54401CC0B20828F9D305F0F8FF78
:1016E0003068114980074FF0000009D52A5C0B5C77
:1016F0005A402254401CC0B20828F7D3BDE8FC81F0
:101700000A5C2254401CC0B20828F9D3F6E7000056
:10171000E00200200B03002018030020F00200204C
:10172000F8020020050000200D0000202DE9F04304
:10173000254C264F41F614682079A0716079E0713C
:1017400041F6F469E0794646C0082072E178A4F8D1
:101750000C800844C5B2A07A400601D5A4F80C90CC
:10176000A07903F047FD607201061BD400F007006A
:101770006070A681A07A400601D5A4F80C90A079EB
:1017800003F038FDC0082072A1780844C6B242F2C6
:101790008400A081607803F02DFDB91911F8831C35
:1017A000014000D08021781910F8832D41EA5201C0
:1017B0000170A079401EA071E079401EE071000622
:1017C000C0D5BDE8F083000018000020FC04002014
:1017D0002DE9F05F55480068C0076ED0002003F087
:1017E00031FD53498009082208705249012003F055
:1017F00037FD04225049092003F032FDFFF7ECFECB
:10180000022000F071F9012000F06EF9002000F0D4
:101810006BF94A4FDFF828A14A4C38784A4DDFF877
:101820002C81DFF82C9110F0030647D006EB8600E0
:10183000D02101EB4000C0B28346FFF791FC45493F
:10184000207A0968890604D5617A11B1397888420D
:1018500045D09AF8000008223A4903F001FD002023
:101860004FEA0801C0F10702A25C0A54401CC0B252
:101870000828F7D3304605F007FF00204946C0F19D
:1018800007030A5C401CC0B2E2540828F7D338783A
:10189000207209212B4800F0E7FA60720A222949D8
:1018A000584603F02DFD0020C0F10701615C29546A
:1018B000401CC0B20828F7D31AE035E09AF80000BF
:1018C0000822204903F0CCFC5FF00000C0F10701C2
:1018D000615C2954401CC0B20828F7D308E00020FE
:1018E000C0F10701615C2954401CC0B20828F7D33D
:1018F000002041462A5C0A54401CC0B20828F9D393
:1019000005F0E6FE144A002049460B5C1354401CC7
:10191000C0B20828F9D3387800F003009030C0B284
:1019200003F090FC0D49087000F01AB8E0020020A6
:1019300020030020180300201403002013030020BC
:10194000F9020020241500200303002005000020D8
:101950000D000020D80200200B030020F802002018
:1019600030BCBDE8C09F000070B5022232499E2005
:1019700003F076FC304D297868780844C0B201B194
:1019800058B12120FFF7D4FB02222B499E2003F0FF
:1019900067FC287869780844C0B2284C216821F097
:1019A00001012160216821F002012160D0BB28786B
:1019B000234A00F07F01117001F0EE0104290BD0E1
:1019C000206820F001002060206820F002002060E4
:1019D000206820F004002DE0216841F00101216021
:1019E000C00603D5206840F00200206002221249A0
:1019F000A02003F035FC297868780844C0B201B112
:101A000058B12120FFF7A0FB02220B49A02003F0D0
:101A100027FC287869780844C0B2216821F00401C5
:101A2000216008B105F092FD2878152803D12068BF
:101A300040F00400206070BD24150020E00200206A
:101A40002103002070B5204B204C00229D5C865C59
:101A50007540A554521CD2B2082AF7D31C4A2079EB
:101A60001278504020711B48627943785A40627165
:101A7000A27980784240A271262903D0E07980F0D3
:101A8000CA0009E0144800688007E07902D580F0B8
:101A9000240001E080F02500E07110490020225C64
:101AA0000A54401CC0B20828F9D305F011FE0C49B5
:101AB0000C4A00200B5C155C6B402354401CC0B2E8
:101AC0000828F7D370BD000018030020E8020020AA
:101AD00013030020FF020020E00200200500002088
:101AE0000D000020030300202DE9F84F040035D03D
:101AF000012C05D0022C42D12D2637252F2002E0C3
:101B000041264B251F2083463046FFF729FBDFF88F
:101B10001883DFF8189398F80870D9F80000800649
:101B200000D4FF272846FFF71BFBBF48D9F8001059
:101B3000007A890600D4FF20DFF8F492FF22DFF854
:101B4000F482DFF8F4A209F80420FF2F3BD0FF282D
:101B500052D014B3874214D920B10AE055265F252C
:101B60000020D0E75F4504D109F8045008F804606C
:101B700010E009F8046008F804500AF8047000F056
:101B80005FB9002FF0D15845EED109F8046008F88C
:101B9000045000200AF80400F1E7A849097801F090
:101BA000FC018F4206D189F8006088F800508AF85D
:101BB0000070E4E7884269D189F8005088F8006035
:101BC0008AF80000DBE7FF2805D009F8045008F880
:101BD00004600AF8040059D0ACB3012C28D0022CC0
:101BE000CDD19AF802000028C9D0401EC3B2242BE0
:101BF00009D32422252112E009F8046008F80450D2
:101C00000AF80470E8E7182B02D318221D2106E019
:101C10000C2B02D30C22152101E000220D219A1A6F
:101C2000C0B2D3B2009098F802004FF480522AE07C
:101C30009AF8010040B1401EC3B2009399F8021017
:101C400098F8010096E00AE09AF80200AAE01F2046
:101C5000009098F8021098F801001F238AE09AF883
:101C60000000514648B1001FC1B2009182B299F8FC
:101C7000011098F80000012305E0487800287BD186
:101C80009AF80200C4E0FFF709FC78E706F10800C3
:101C900003F0D8FA074605F1080003F0D3FA8742AB
:101CA00006D209F8046008F804500AF8047005E048
:101CB00009F8045008F804600AF80400F4B3012C91
:101CC00043D0022CE1D19AF80200544630B1401EB4
:101CD000C3B2242B17D32422252120E00822524905
:101CE0000D2003F0BDFA504C00200921207220463F
:101CF00000F0BAF8607299F80200214600F0A3B82B
:101D00000A2203F0FDBA182B02D318221D2106E087
:101D10000C2B02D30C22152101E000220D219A1A6E
:101D2000C0B2D3B200904FF48056454698F80200F6
:101D30003246FFF7B3FBA078009000E036E0A978C8
:101D400099F80200012332469DE79AF801005446B3
:101D500098B1401EC3B200934D4699F80210464612
:101D600098F801008022FFF799FB60780090717865
:101D700068780123802286E74CE04D4699F80200FE
:101D80000822294903F06CFA274E002009213072FD
:101D9000304600F069F8707268780A22314603F024
:101DA000AFFAA07800283FF4F7AE50E72348544636
:101DB000007810F0FC008AF8000013D0001FC1B2B8
:101DC000009182B24D4699F80110464698F80000FD
:101DD0000123FFF763FB20780090012331782878F6
:101DE000042250E7607808220F4903F039FA0E4DBB
:101DF000002009212872284600F036F8687299F808
:101E000000000A22294603F07BFA607810B9A07816
:101E10000028C8D07C200090012398F8011098F881
:101E200000007C222FE7000024150020D8020020AB
:101E3000F9020020FC020020FF0200201303002012
:101E400018BCBDE8E08F18BCBDE8E04FFFF758BFF5
:101E5000034610B50020024603E09C5C521C20445F
:101E6000C0B28A42F9D310BD10B5034600780122F2
:101E700003E09C5C6040521CD2B28A42F9D310BD90
:101E800070B5044600F0BAFA0546601C02D004485A
:101E90004068044400F0B2FA401BA042FAD370BD7F
:101EA000E40300202DE9F05F0546334889460178B8
:101EB00001290CD00127804607704CF2503B584650
:101EC000FFF7B0FA06004FF0000A03D04FE00220FF
:101ED00000F056B851464046C8F804A0274C226886
:101EE00092050ED5216821F4007121602168490511
:101EF00005D5216821F480612160032109E007777D
:101F000008E02268520504D5216821F4806121602F
:101F1000022101772868012805D04FF0FF31C9F868
:101F20000010AF681CE06868FFF786F95846FFF7B5
:101F300079FA0646606920F00400606115E03846D1
:101F40006968FFF737FA5846FFF76CFA06006069D0
:101F500020F4FD70606102D0C9F8007005E07F1CBC
:101F6000D5E902010844B842E9D8FFF73BF988F8FF
:101F700000A03046ACE70000F00300200020024043
:101F800030BCBDE8C09F00000621016022494268C4
:101F90000AB1012A13D10723036012B1012A06D026
:101FA0000DE0CA6A02F03F028260CA6A04E00A6B6E
:101FB00002F03F0282600A6BC2F30542C2600A6A05
:101FC000D2B2AA2A03D0CC2A01D0BB2201E00A6AED
:101FD000D2B202610A6A22F0FF028261C269012A5A
:101FE00018D1026842F0080202604B6A4FF00062AA
:101FF000C3F30D0302EBC30303628B6AC3F30D0348
:1020000002EBC302D21D4262896A01F0004141F035
:102010000101C16170470000002002402DE9F05F1E
:102020000446404800260178012914D0012101709E
:102030000021824641602078DFF8EC90C0074CF226
:10204000503B35D0D4E902755846D4F80480FFF7E8
:10205000E9F918B12BE0022000F068B8B8F1000FE0
:1020600003D0B8F1010F0AD012E0D9F82C1047EADA
:10207000054221F03F111143C9F82C1008E0D9F8AE
:10208000301047EA054221F03F111143C9F83010E2
:10209000D9F814004D4640F40030C9F814005846F1
:1020A000FFF7C0F9696921F40031696100B10126C7
:1020B000207880071BD558462769FFF7B3F9A8B9E0
:1020C000D9F820004D4620F0FF003843C9F8200021
:1020D000D9F8140040F40030C9F814005846FFF74E
:1020E000A1F9696921F40031696100B10126207804
:1020F000400705D5D4E90501FFF7E0F800B1012656
:102100002078000708D5D4E90812914204D0E0698C
:10211000FFF7A0F800B1012600208AF80000304641
:102120009AE70000F00300200020024030BCBDE828
:10213000C09F00000348416941F000414161002017
:1021400070470000002002400348416941F080418F
:1021500041610020704700000020024005484169AD
:10216000490005D50449C1600449C1600020704799
:1021700001207047002002403B2A19087F6E5D4C09
:102180002DE9FF5F254C0646904620789A460128A7
:102190000BD0012020704CF2503B5846FFF742F91B
:1021A00007004FF0000904D02AE0022004B000F03C
:1021B00039B84846C4F80490194D2968490504D532
:1021C000286820F4806028600220207726B1012E44
:1021D00009D0022E07D00CE0424653460198FFF783
:1021E000FDF8012612E041460198FFF705F9022E9D
:1021F0000AD05846FFF716F94FEA0007FEF7F2FF3C
:1022000084F800903846D1E74FF480265846FFF70F
:1022100009F907466869B0436861EFE7F0030020F9
:102220000020024030BCBDE8C09F000006490020ED
:102230004A69002A07DA054A8A60054A8A604969BC
:10224000002900DA01207047002002402301674581
:10225000AB89EFCD2DE9F84FDFF860B100234FF0E7
:10226000010C4FF0030A4FF00F090BF1040E9DE033
:102270000CFA03F6344022007ED04C68022C01D0C8
:10228000122C0ED1DC0800EB8408D8F820405D0742
:10229000EF0E09FA07F5AC430D69BD402543C8F8B8
:1022A000205007685D0091F804800AFA05F408F0F0
:1022B0000308A74308FA05F848EA0708C0F80080B1
:1022C0004F68012F05D0022F03D0112F01D0122FFC
:1022D00011D18768D1F80C80A74308FA05F848EABD
:1022E0000708C0F808804768B7430E79C6F30016A0
:1022F0009E403E434660C668A6438C68AC4034436B
:10230000C4604C68E40050D52D4C256E45F00105A5
:102310002566246E23F0030504F001040094294C83
:102320002E19B4689D072F0F09FA07F5AC43B0F1D9
:10233000904F04D0244DA84203D101250CE0002584
:102340000AE0224DA84201D1022505E0204DA84215
:1023500001D1032500E00725BD402543B560DBF82A
:1023600000405D464E689443F60300D514432C604C
:102370007546DEF8004000E017E04E689443B6036F
:1023800000D514432C600D4D08352C684E689443DD
:10239000F60200D514432C60084D0C352C684E68AD
:1023A0009443B60200D514432C605B1C0A681446A3
:1023B000DA407FF45DAF00F00DB80000000401408A
:1023C00000100240000001400004004800080048DE
:1023D000000C004818BCBDE8E08F0069084000D040
:1023E0000120704742690A4201D0816270478161D1
:1023F00070470AB181617047816270470148806807
:1024000070470000E40300200248816842681144DC
:1024100081607047E403002010B50024032000F021
:1024200071F8002000F008F808B1012401E000F084
:1024300025F8204610BD000070B50E4E054600245C
:10244000706898B14FF47A71B1FBF0F00A490968ED
:10245000B1FBF0F001F058F840B9102D06D200227F
:102460002946501E00F02EF8356000E00124204679
:1024700070BD0000E403002010040020094808B5E6
:10248000016E41F001010166016E01F00101009150
:10249000816D41F080518165806D00F08050009029
:1024A00008BD000000100240002809DB00F01F02F8
:1024B000012191404009800000F1E020C0F80011A6
:1024C00070470000F0B40E4B1B680C46C3F30223A8
:1024D000C3F10705042D00D90425191D072901D2D0
:1024E000002300E0DB1E012606FA05F1491E21400B
:1024F00099409E40761E16403143F0BC05F004B86A
:102500000CED00E0064900F0070208684FF6FF03F3
:10251000184040EA0220034A104308607047000058
:102520000CED00E00000FA0501220168C0F8682205
:10253000002280F8602231F8540F40F0010008803A
:10254000088840F0020008801046704770B50F4DB3
:10255000044669B101290AD1D4F8700204F05FF889
:10256000A069002803D0286840F00600286070BDEC
:10257000A06928B103F0ACF9286820F006002860B3
:10258000D4F87002BDE8704003F0D7BF10ED00E052
:1025900010B50C0605D501F0070100EB41102830FD
:1025A00003E000EB411000F5947099B232B10122C2
:1025B00002730181190C4181002010BD00220273B9
:1025C000C180F9E700EB4112D0F87002D26B03F042
:1025D0007BBE00EB4112D0F87002D2F83C2103F030
:1025E000D6BE70B504460B0601F0070004EB40119F
:1025F0004FF001024FF0000503D581F82920283162
:1026000003E081F8295101F59471087094F82802CB
:10261000012808D084F82822206804F09AFC84F865
:102620002852002070BD022070BD70B5044601F034
:102630000F006268904201D9012070BD0B0601F0C5
:10264000070004EB40114FF001024FF0000503D5E5
:1026500081F82920283103E081F8295101F594718E
:102660008D70087094F82802012808D084F8282278
:10267000206804F01CFD84F82852002070BD022060
:1026800070BD2DE9F04104460F0601F0070004EB90
:1026900040114FF001064FF0000503D581F8296085
:1026A000283103E081F8295101F5947108700A611D
:1026B000CB704A7802B1C881022B00D10D7194F819
:1026C0002802012809D084F82862206804F00FFB52
:1026D000284684F82852BDE8F0810220FBE770B557
:1026E0000C4601F0070500EB4511C1E94F2300221C
:1026F000C1F8442181F8292181F8285101F594710C
:102700006207006804F028FD002070BD70B5044623
:102710000D4601F007006168884201D9012070BDB3
:1027200029064FF000064FF0010205D504EB4011D9
:1027300081F82920283105E004EB451181F8296151
:1027400001F594718A70087094F82802012807D066
:1027500084F82822206804F0E6FC680702D006E02E
:10276000022070BD04F50C71206804F09EFC84F812
:102770002862002070BD70B50C4601F0070500EB23
:102780004511C1E90F2300224A64012281F8292062
:1027900001F8285F6207006804F0DEFC002070BDCD
:1027A00010B50446006804F0A7FD000402D52046D9
:1027B00001F0D8FF206804F09FFD40050CD520688B
:1027C00030F8441F21F480610180204600F050F968
:1027D0000021204600F078F9206804F08DFD4004C7
:1027E00005D5206830F8441F21F48041018020681D
:1027F00004F082FD800405D5206830F8441F21F4E0
:1028000000510180206804F077FDC0041FD52068C6
:1028100030F8401F21F004010180206830F8401F8B
:1028200021F00801018094F86002012806D10020FF
:1028300084F8600201462046FFF788FE204600F03B
:102840002BF9206830F8441F21F480510180206862
:1028500004F052FD00051AD5206830F8401F41F001
:1028600008010180206830F8441F21F400610180D4
:10287000206830F8401F41F004010180206804F016
:102880003BFDC043C00402D5204600F04DF920684E
:1028900004F032FD00060BD5206830F8441F21F00B
:1028A0008001018094F86002E0B1204600F03CF91C
:1028B000206804F021FD800508D5206830F8441F09
:1028C00021F400710180204600F0FAF8206804F03D
:1028D00013FDC00505D5206830F8441F21F4807130
:1028E000018010BD206830F8401F41F004010180D4
:1028F000206830F8401F41F008010180012084F871
:1029000060022068B0F854003C2101EA9000C4F84D
:10291000640201212046FFF719FEC9E72DE9F041C5
:1029200086B0040004D094F82902002520B108E004
:10293000012006B0BDE8F08184F82852204600F05E
:102940005DF8032084F82902206804F0A6FB04F156
:102950001001142288466846FDF734FC94E80F0005
:1029600004F0F5FA0227B0BB0021206804F0DBFC7C
:10297000002001260DE000BF04EB401181F8296022
:1029800001F8280FC881CD700D614D61401CC0B2A7
:102990008D6161688142EFD800200FE004EB4011A7
:1029A00081F8295181F8280181F82B51C1F838515B
:1029B000C1F83C51401CC0B2C1F84051616881422D
:1029C000ECD8142241466846FDF7FCFB94E80F0062
:1029D00004F054FB10B184F82972A9E784F824505C
:1029E00084F82962E069012802D12046FFF79CFDA6
:1029F000206804F03CFB00209BE7000010B586B087
:102A0000044614216846FDF7F6FB17492068884202
:102A100028D1164CE06C40F00100E064E06C69469F
:102A200000F0010005904FF4C0500090022001908A
:102A300000200290032003900A2004904FF0904061
:102A4000FFF708FCA06D40F08060A065A06D00223B
:102A500000F08060059001214320FFF733FD432003
:102A6000FFF722FD06B010BD0068004000100240D4
:102A700070B5044680680125022801D0FEF7B1FB3D
:102A80002946D4F8700203F06AFDD4F87002BDE85C
:102A9000704003F02ABD000010B50446806930B1D3
:102AA0000648016821F00601016002F011FFD4F828
:102AB0007002BDE8104003F040BD000010ED00E0E2
:102AC000D0F8700203F03FBD10B5044690F828021C
:102AD00001280BD0012084F8280284F824102068F3
:102AE00004F023FC002084F8280210BD022010BD51
:102AF000D0F8702200F50C71104603F043BD10B5FC
:102B0000044690F8280201280CD0012084F82802FD
:102B1000206804F0A5FA206804F0DFFB002084F8A8
:102B2000280210BD022010BD10B50446D0F8700276
:102B300003F075FDA069002804D00348016841F046
:102B40000601016010BD000010ED00E01649B0F56F
:102B5000007F0868C0F3412009D0022805D008682A
:102B600020F4C06040F480600860002070470128B5
:102B7000FBD0086820F4C06040F4007008600B4887
:102B80003222006850430A4AB0FBF2F0401C00E0D9
:102B9000401E4A69520501D50028F9D1486940050F
:102BA000E3D50320704700000070004010040020AF
:102BB00040420F000248416841F480614160704723
:102BC000007000400248006800F4C06070470000D8
:102BD000007000402DE9F843044600680026774D58
:102BE00080035ED5A86D0027C00008D4A86D40F012
:102BF0008050A865A86D012700F080500090DFF894
:102C0000C091D9F8001041F48071C9F80010FFF7A5
:102C1000F5FB804606E000BFFFF7F0FBA0EB0800E5
:102C200002282BD8D9F80000C005F5D5D5F89000BA
:102C300010F4407014D0216B814211D0D5F890006F
:102C4000D5F8901020F4407041F48031C5F8901010
:102C5000D5F8901021F48031C5F89010C5F8900097
:102C6000C00711D0FFF7CAFB804641F2883907E060
:102C7000FFF7C4FBA0EB0801494501D903260BE08F
:102C8000D5F890008007F3D5D5F89000216B20F49B
:102C900040700843C5F890001FB1A86D20F0805027
:102CA000A8652078C00707D0D5F88800616820F0B3
:102CB00003000843C5F888002078800707D5D5F8B9
:102CC0008800A16820F00C000843C5F8880020782F
:102CD000400707D5D5F88800E16820F030000843A8
:102CE000C5F888002078800607D5D5F888002169C6
:102CF00020F440600843C5F888002088800507D587
:102D0000D5F88800216A20F440200843C5F88800DF
:102D10002088400507D5D5F88800616A20F4401066
:102D20000843C5F888002078400607D5D5F8880004
:102D3000616920F440500843C5F8880020780006F7
:102D400007D5D5F88800A16920F440400843C5F8AC
:102D500088002088C00507D5D5F88800E16920F4EF
:102D600040300843C5F8880020884FF00061800497
:102D70000ED5D5F88800A26A20F040601043C5F84F
:102D80008800A06A884203D1E86840F48010E860B7
:102D9000206840030ED5D5F88800E26A20F0406034
:102DA0001043C5F88800E06A884203D1E86840F41F
:102DB0008010E8603046BDE8F88300000010024053
:102DC000007000402DE9F0470F46050058D0404EF6
:102DD000306800F00700B84209D2306820F00700E0
:102DE00038433060306800F00700B84248D1287896
:102DF000384CC0072CD06868032811D0022812D0A4
:102E0000216898B1490500293ADAA16821F0030147
:102E10000143A160FFF7F2FA804641F2883910E0E1
:102E200021688901EFE721688903ECE78907EAE770
:102E3000FFF7E4FAA0EB0801494502D90320BDE8F9
:102E4000F087A068696800F00C00B0EB810FEFD14B
:102E50002878800705D5A068A96820F0F00008430D
:102E6000A060306800F00700B8420BD9306820F04D
:102E7000070038433060306800F00700B84201D0E6
:102E80000120DCE72878400705D5A068E96820F430
:102E9000E0600843A0602878000706D5A06829698B
:102EA00020F4605040EAC100A06000F01BF8A16867
:102EB000094AC1F30311515C01F01F01C8400749E1
:102EC000086007480068BDE8F047FFF7B5BA0000A2
:102ED0000020024000100240CC7E000810040020B8
:102EE000E403002070B52549002318468A68CC68A1
:102EF00012F00C0204F00306214C4FEA640509D0DD
:102F00000C2A05D0042A32D0082A00D1284670BDE8
:102F1000012E10D10B681B0704D4D1F89430C3F3F1
:102F2000032302E00B68C3F30313164E56F8233055
:102F3000DAB10C2AEBD1C86800F00300022818D0DF
:102F4000032818D01846CA68CB68C2F30212C3F32C
:102F500006234343521CB3FBF2F2C868C0F341603E
:102F6000401C4000B2FBF0F070BD184670BD20461A
:102F700070BD2046E7E72846E5E700000010024064
:102F80000024F400DC7E00082DE9F84304007CD026
:102F9000FE4DA86800F00C06E86800F003072078F2
:102FA000C00662D576B10C2E01D1012F0AD0E0699E
:102FB0000028286878D040F001002860FFF71EFA4A
:102FC000804659E02868800702D5E0690028DED0F5
:102FD000606A2968090703D5296801F0F00104E057
:102FE000D5F89410F02202EA1111884215D902F0A6
:102FF00027F8002849D1286840F008002860286890
:10300000616A20F0F000084328606868216A20F4B3
:103010007F4040EA0120686015E0286840F0080021
:1030200028602868616A20F0F0000843286068681A
:10303000216A20F47F4040EA01206860606A01F064
:10304000FFFF0028D6D1FFF74DFFA968D04AC1F392
:103050000311515C01F01F01C840CE490860CE4801
:103060000068FFF7E9F900287ED12EE0FFF7C6F9E6
:10307000A0EB0800022878D828688007F6D52868D1
:1030800040F008002860286801E0B5E00CE0616AC3
:1030900020F0F000084328606868216A20F47F402F
:1030A00040EA0120686010E020F001002860FFF78E
:1030B000A5F9804606E000BFFFF7A0F9A0EB0800E5
:1030C0000228D8D828688007F6D42078C00740D0D6
:1030D000082E18D00C2E01D1032F14D06068B0F543
:1030E000803F17D0B0F5A02F286817D020F480308B
:1030F0002860286820F4802028606068E0B1FFF72D
:103100007DF9804614E02868800322D56068002895
:1031100072D01EE0286840F48030EDE740F4802053
:103120002860F7E7FFF76AF9A0EB08006428A2D847
:1031300028688003F6D50CE0FFF760F9804605E0CB
:10314000FFF75CF9A0EB0800642894D82868800396
:10315000F6D4207880073BD5042E11D00C2E01D157
:10316000022F0DD0E06801E09AE1EAE0002828682B
:103170001ED040F480702860FFF740F907460CE04D
:10318000286840050CD5E0680028C1D008E000BFE1
:10319000FFF734F9C01B022893D828684005F7D5FB
:1031A0006868217C20F0FE4040EA016068600FE022
:1031B00020F480702860FFF721F9074605E000BF82
:1031C000FFF71CF9C01B0228B1D828684005F7D4C6
:1031D0002078000753D560690028D5F894003DD0C9
:1031E000A16900F01002914223D081074FEAC0701C
:1031F00003D500288CD001E080E190B1D5F894008F
:1032000020F00100C5F89400FFF7F8F8074604E045
:10321000FFF7F4F8C01B112889D8D5F8940080076F
:10322000F6D4D5F89400A16920F010000843C5F841
:103230009400D5F8940040F00100C5F89400FFF721
:10324000DDF8074605E000BFFFF7D8F8C01B1128DE
:1032500077D8D5F894008007F6D510E020F001006B
:10326000C5F89400FFF7CAF8074604E0FFF7C6F870
:10327000C01B112865D8D5F894008007F6D42078B3
:10328000400778D5A86D0027C00008D4A86D40F08D
:103290008050A865A86D012700F0805000903F483D
:1032A0000168C90512D40168814641F4807101604A
:1032B000FFF7A4F8804605E0FFF7A0F8A0EB0800B0
:1032C00002283ED8D9F80000C005F5D5A068C1078E
:1032D00020D0D5F8901000F0800021F0800101434B
:1032E000C5F89010207A400705D5D5F8900040F039
:1032F0000400C5F89000D5F8900040F0010000BF30
:10330000C5F89000A06841F28839D8B1FFF776F887
:10331000804611E0D5F8900020F00100C5F890003B
:10332000D5F8900020F00400EAE700BFFFF766F848
:10333000A0EB0801494504D8D5F890008007F5D5E1
:1033400014E087E0FFF75AF8804605E0FFF756F8EB
:10335000A0EB080149457DD8D5F890008007F5D449
:10336000D5F8900020F08000C5F890001FB1A86D3E
:1033700020F08050A8652078800632D5A06A002809
:10338000D5F898001CD040F0010009E00010024080
:10339000CC7E000810040020E403002000700040F0
:1033A000C5F89800FFF72AF8074604E0FFF726F86B
:1033B000C01B022873D8D5F898008007F6D510E016
:1033C00020F00100C5F89800FFF718F8074604E060
:1033D000FFF714F8C01B022861D8D5F898008007C1
:1033E000F6D4E06AB8B30C2E60D00228286820F02A
:1033F000807028600BD0E86820F00300E860E8687F
:1034000020F08870E860FEF7F9FF04464AE0FEF716
:10341000F5FF064605E000BFFEF7F0FF801B02281F
:103420003DD828688001F7D4D4E90C016FF00F0271
:1034300002EB01110843A18F5204490802EB4151EC
:10344000A26B41EA0221084394F840104FF07E42FB
:10345000490801E023E053E002EB41610843E968D9
:10346000284A11400843E860286840F080702860CE
:10347000E86840F08070E860FEF7C0FF044604E0B2
:10348000FEF7BCFF001B022809D828688001F7D589
:1034900036E000BFFEF7B2FF001B022802D903206E
:1034A000BDE8F88328688001F4D429E00128F7D02A
:1034B000E868226B00F0030191421FD1616B00F0BC
:1034C000700209011039914218D1A26B00F4FE413B
:1034D000B1EB022F12D1A18F00F4C00249084905B7
:1034E000A1F50011914209D194F8401000F0C0609C
:1034F00049084906A1F10071814201D00120CFE7BE
:103500000020CDE78C809FF910B5401EB0F1807F80
:1035100001D3012010BD4FF0E02460610F2160173E
:1035200003F0F2FF0020A06107202061002010BD01
:10353000704770477047000070B590F83C20012A32
:1035400021D0012480F83C40022280F83D2003680D
:103550005A689D680D4EB34203D122F470064A6842
:10356000324322F070060A688968324325F08005EC
:1035700029435A600268916080F83D40002180F83C
:103580003C10084670BD022070BD0000002C0140B8
:1035900010B5040003D094F83D0010B107E00120FD
:1035A00010BD002084F83C00204600F00DF80220F9
:1035B00084F83D00211D206802F0F4F9012084F810
:1035C0003D00002010BD000010B586B00446142157
:1035D0006846FCF710FE16492068884226D1154837
:1035E000016E41F400310166016E01F40031059174
:1035F000C16C41F00201C164C06C694600F0020078
:1036000005904FF4807000900220019000200290FD
:1036100003900E2004900848FEF71CFE002211467D
:103620001920FEF74FFF1920FEF73EFF06B010BD30
:103630000044014000100240000400480168CA68CC
:1036400042F00102CA6001688868064A10400628F4
:1036500006D0B0F5803F03D0086840F00100086054
:1036600000207047070001000168CA6822F00102CB
:10367000CA600068016A41F21112114207D1016A61
:103680009210114203D1016821F001010160002074
:10369000704700002DE9F041564E804601683068C1
:1036A000814270D1544C2168544F09074FF00005F6
:1036B00011D5216821F00801216045623168A81EFA
:1036C00008613046FFF7BAFF206820F04000206014
:1036D0003D60BDE8F0810C21464800F0F5FC484A09
:1036E00039681A3042F82100491C3960B0F5787FFA
:1036F000EFD32168434F49066BD5434908603168D1
:103700004D6202F014FB0646386802F010FB3F4A97
:103710003F4B4049102E01D8102804D94FF6FF70B6
:103720000D60106005E066F31F100E689855761C5A
:103730000E60206820F0400020600868364E0228A5
:1037400003D91168884225D0C3E73BD15878462871
:1037500020D00EDC38282CD006DC08281AD00F2800
:1037600018D0262814D12BE0392829D03E280FD193
:1037700026E073281FD007DC632821D06A2809D0EF
:10378000712805D106E02BE0792814D07A2815D0CD
:103790000B2011E00C21404600F0DAFB4046FFF719
:1037A00063FFFEF72BFE3060206840F004002060CD
:1037B0008FE7032000E0042010608AE70920FBE780
:1037C0000A20F9E7012884D11878102881D00D60EB
:1037D0007FE7386030684562206840F04000E6E7E7
:1037E0000448403000688142AED1BDE8F041FCF7AA
:1037F00067BE000030260020D80200204C030020C5
:103800009016002030030020340300203C030020E9
:10381000CA15002038030020400300202DE9F041A4
:10382000044690F83C000D4601283DD0012684F85E
:103830003C60022084F83D00AAB3042A46D02068E8
:10384000082A55D0D5E90027E968036A23F4805394
:103850000362D0F81CC0036A2CF4407C4CEA0727B2
:103860004FF6FF7C27F470470CEA013139434FF4DF
:10387000204723F4204307EA02321A43C16102625F
:103880002068C16921F44061C1612068C169AA68EA
:1038900041EA0221C0F81C1084F83D60002084F841
:1038A0003C00BDE8F08101E00220FAE7D5E9001212
:1038B000EB68206802F0F8F92068816921F00C01BA
:1038C000816120688169AA6811430FE0D5E900127F
:1038D000EB68206802F010FA2068816921F44061E9
:1038E000816120688169AA6841EA02218161D3E788
:1038F000D5E9002C2F7B016A21F480710162C16936
:10390000036A21F0030141EA0C0121F0F00C3907B0
:103910004FF420674CEA116123F4206307EA022286
:103920001A43C16102622068C16921F00C01C161C2
:103930002068C169AA681143ACE710B5040003D040
:1039400094F83D0010B107E0012010BD002084F87C
:103950003C00204600F00CF8022084F83D00211DB8
:10396000206802F01FF8012084F83D00002010BDFF
:103970007047000010B50268044631B1042908D030
:1039800008291DD00C2908D11EE0D06840F00200A3
:1039900002E0D06840F00400D0600122206802F00C
:1039A00037F8206881680A4A1140062906D0B1F527
:1039B000803F03D0016841F001010160002010BD8B
:1039C000D06840F00800E7E7D06840F01000E3E777
:1039D0000700010010B50268044631B1042908D07F
:1039E00008291ED00C2908D11FE0D06820F0020061
:1039F00002E0D06820F00400D0600022206802F0CD
:103A000007F82068016A41F21112114207D1016AD8
:103A10009210114203D1016821F0010101600020E0
:103A200010BDD06820F00800E6E7D06820F0100054
:103A3000E2E770B50446006801694FF00005C9432C
:103A4000890715D4C168C943890711D4E91E0161EA
:103A500001202077206880698007204602D0FFF788
:103A600019FE04E000F0CEF8204600F0B1F9257709
:103A700020680169C943490717D4C168C943490788
:103A800013D46FF00401016102202077206880695F
:103A900010F4407F204602D0FFF7FCFD04E000F068
:103AA000B1F8204600F094F9257720680169C943F0
:103AB000090716D4C168C943090712D46FF0080179
:103AC0000161042020772068C0698007204602D069
:103AD000FFF7E0FD04E000F095F8204600F078F9EB
:103AE000257720680169C943C90617D4C168C9434D
:103AF000C90613D46FF010010161082020772068F7
:103B0000C06910F4407F204602D0FFF7C3FD04E0F7
:103B100000F078F8204600F05BF92577206801690D
:103B2000C943C90708D1C168C943C90704D1891E5F
:103B30000161204600F056FA20680169C943090670
:103B400009D4C168C943090605D46FF08001016139
:103B50002046FFF7EEFC20680169C943C90509D476
:103B6000C168C943090605D46FF48071016120461C
:103B7000FFF7DEFC20680169C943490609D4C16822
:103B8000C943490605D46FF040010161204600F0A9
:103B9000B0FA20680169C94389060BD4C168C943DA
:103BA000890607D46FF0200101612046BDE870400E
:103BB000FFF7C0BC70BD000010B586B004461421EC
:103BC0006846FCF718FB2068B0F1804F16D10C480E
:103BD000C16C41F00101C164C06C694600F0010094
:103BE0000590062000900220019000200290039092
:103BF000012004904FF09040FEF72CFB06B010BD62
:103C000000100240704770B5044690F83C000D4625
:103C100001280ED0012684F83C60022084F83D0083
:103C20000C2A45D007DC5AB1042A1BD0082A78D1C7
:103C30002CE0022070BD102A4ED0142A71D15DE014
:103C4000206801F0F3FE2068816941F0080181617C
:103C50002068816921F004018161206881692A69F5
:103C6000114311E0206801F01DFF2068816941F4D3
:103C7000006181612068816921F48061816120682F
:103C800081692A6941EA022181614AE0206801F0E4
:103C900045FF2068C16941F00801C1612068C16920
:103CA00021F00401C1612068C1692A69114311E052
:103CB000206801F06DFF2068C16941F40061C161B5
:103CC0002068C16921F48061C1612068C1692A69E5
:103CD00041EA0221C16124E0206801F089FF2068E7
:103CE000416D41F0080141652068416D21F00401FA
:103CF00041652068416D2A69114311E0206801F097
:103D0000A5FF2068416D41F4006141652068416D67
:103D100021F4806141652068416D2A6941EA0221F0
:103D2000416584F83D60002084F83C0070BD10B50A
:103D3000040003D094F83D0010B107E0012010BD4D
:103D4000002084F83C00204600F00CF8022084F8A3
:103D50003D00211D206801F025FE012084F83D0072
:103D6000002010BD10B586B0044614216846FCF74B
:103D700042FA2068B0F1804F26D11448816D41F09D
:103D800001018165816D01F001010591C16C41F076
:103D90000101C164C06C694600F001000590082073
:103DA00000900220019000200290039001200490D6
:103DB0004FF09040FEF74EFA002211461C20FEF70D
:103DC00081FB1C20FEF770FB06B010BD0010024006
:103DD0002DE9F041204F06460068396888421CD121
:103DE000307F1E4C04281AD0022816D11C490868BE
:103DF000401C0860072810D90421304600F0A8F8BC
:103E0000184D19492868096888420DD33046FFF7D4
:103E10002BFC206840F002002060BDE8F081082102
:103E2000304600F095F8F1E70421304600F090F8B4
:103E30000E482968405C3168000200F25940C862AF
:103E400039686FF0010008610348FFF7F7FB286845
:103E5000401C2860E1E7000030260020D802002046
:103E60002C030020280300202403002066150020D6
:103E700010B504460068012201F0CAFD0E48216811
:103E8000814205D00D48814202D00D48814203D1C4
:103E9000486C40F40040486420688168094A114039
:103EA000062906D0B1F5803F03D0016841F0010139
:103EB0000160002010BD0000002C014000400140C6
:103EC000004401400700010010B50268044631B10A
:103ED000042908D008292BD00C2908D12CE0D0685F
:103EE00040F0020002E0D06840F00400D0600122FF
:103EF000206801F08DFD12492068884205D01149E3
:103F0000884202D01049884203D1416C41F40041FB
:103F10004164206881680D4A1140062906D0B1F538
:103F2000803F03D0016841F001010160002010BD15
:103F3000D06840F00800D9E7D06840F01000D5E71D
:103F4000002C0140004001400044014007000100F6
:103F500010B50268044631B1042908D0082932D0CE
:103F60000C2908D133E0D06820F0020002E0D068CC
:103F700020F00400D0600022206801F049FD1648BE
:103F800041F2111221689310814205D013488142F9
:103F900002D01348814209D1086A104206D1086A4A
:103FA000184203D1486C20F4004048642068016A3C
:103FB000114206D1016A194203D1016821F00101C1
:103FC0000160002010BDD06820F00800D2E7D06862
:103FD00020F01000CEE70000002C0140004001401E
:103FE0000044014070B5304C0168304E236899425E
:103FF00046D12F480078002578B1012824D0022826
:1040000032D12046FFF730FB2A4805602168102096
:10401000C8622068456204212DE00C212248FFF788
:10402000D9FC2148FFF720FB306840F008003060E1
:104030002148056021686FF001000861BDE870400B
:104040000C211948FFF796BC1C4A1D4C10682468C7
:10405000A0420AD21B4B1B5C4FEA831303F57A7311
:10406000CB6200F10100106070BDFDD16FF008005F
:1040700018614FF00801BDE870400B48FFF724BFFE
:104080000948403000688142EED1074800214030A5
:10409000FFF7A0FC04484030FFF7E6FA306840F430
:1040A0008070306070BD000030260020D8020020F3
:1040B000D60200202C030020380300202803002013
:1040C00024030020661500200246002041B1042987
:1040D00009D008290AD00C2901D11068006C70475A
:1040E0001068406B70471068806B70471068C06B39
:1040F00070477047FEE700002DE9F04700250646AF
:104100002C464FF48058DFF83090062710E004204A
:1041100003F0BAFA41464846FEF75FF938B16D1C24
:10412000B5FBF7F007FB105008B9FCF7E5FF241DBD
:10413000B442ECD3BDE8F087000400480F4910B545
:10414000102008700E480068800701D5242000E088
:10415000252048700B48007888700B484278CA7058
:104160008078087104220920491D01F079F8074977
:1041700009200860BDE81040FCF756BF3415002048
:10418000E002002013030020FF020020240300208F
:10419000F0B500230A24302537261F4611E000BF62
:1041A000B4EB107F02D905EB107C01E006EB107C2C
:1041B00001F813C001EB430C00015B1C8CF801708B
:1041C000DBB29342ECD3F0BD0A4D4FF480440022A1
:1041D00021462846FEF70DF9C820FDF751FE0122C1
:1041E00021462846FEF705F9C820FDF749FE03F0F1
:1041F0006FF90000000400482DE9F04786B0142153
:104200006846FBF7F8FF5E48C16C41F00401C164E9
:10421000C16C01F004010591C16C41F08001C164E1
:10422000C16C01F080010591C16C41F00101C164D4
:10423000C16C01F001010591C16C41F00201C16442
:10424000C06C012200F00200DFF8388154030590B1
:1042500021464046FEF7CDF84FF09049012210214B
:104260004846FEF7C6F800224FF4F8614846FEF7CC
:10427000C0F8DFF814A1002242F2D1215046FEF727
:10428000B8F80122960331465046FEF7B2F80125F0
:10429000CDE9004500240294694640460394FDF7A9
:1042A000D9FFCDE900640226694640460296FDF733
:1042B000D1FFE8030327CDE9000769460294404691
:1042C000FDF7C8FF0B20CDE90007694602942F488F
:1042D000FDF7C0FF48F22100CDE9000469464846D9
:1042E0000294FDF7B7FF4FF48A600090CDE90154C6
:1042F000694648460394FDF7ADFF4FF46070CDE981
:104300000005CDE9024669464846FDF7A3FFC120F6
:10431000CDE90005CDE9024669465046FDF79AFF12
:1043200040F606408DE8310069465046FDF792FFA1
:10433000280300901648CDE9010669465046FDF76E
:1043400089FF46F210000090CDE9015469465046BD
:104350000394FDF77FFF48F22800CDE90004694689
:1043600050460294FDF776FF6802CDE900056946E4
:104370005046CDE90245FDF76DFF06B0BDE8F08778
:10438000001002400008004800040048001C0048DB
:10439000000011101FB500241548009401940294E8
:1043A0001249039401604F21C0E901148221C0E940
:1043B000031444618461FFF7EBF808B1FCF711FFC7
:1043C0000B48FFF7BAFA08B1FCF70BFF0A20009080
:1043D0000120CDE901040022694605480394FFF756
:1043E0001DFA002801D0FCF7FCFE1FBD004401406F
:1043F0007026002010B58EB000240B940C941C2164
:1044000068460D94FBF7F7FE264807940894099434
:104410004FF080410A9401604F21C0E901144CF231
:104420005031C0E903148461FFF781FC08B1FCF747
:10443000D8FE1C48FFF781FA08B1FCF7D2FE0B94B6
:104440000BA918480D94FFF777F808B1FCF7C9FEDF
:10445000702000900620CDE901040422694611482D
:104460000494FFF7D0FB08B1FCF7BBFE14200190C9
:10447000082269460B48FFF7C6FB08B1FCF7B1FEFE
:104480000120CDE9074009940C2207A905480A94A8
:10449000FFF7C4F908B1FCF7A4FE0248FFF78CFB54
:1044A0000EB010BD3026002010B500220F49104874
:1044B00001F0D5FE08B1FCF794FE0E490C4802F05D
:1044C000DBF808B1FCF78DFE0B49094801F0CCFC84
:1044D00008B1FCF786FE064802F024F9002803D054
:1044E000BDE81040FCF77DBE10BD00005003002069
:1044F000B026002018040020D4030020FEE70000AE
:10450000F0B52E4CA7209B26A070E670BF2020712E
:104510003F206071A07A00F0BF00A072FDF706F99D
:1045200001F07EF8082060719B20254DB3212A18E8
:104530006F1812F8833D17F8837C401C7B40137082
:10454000491C6279C0B2521E12F0FF02C9B26271F8
:10455000EDD1A670E67001F097F8A670B320E07078
:10456000DF2020711F206071A07A00F0BF00A072D0
:10457000FDF7DCF804206071A621AA22B6202B18D2
:104580006E1813F8837D16F883CC491E87EA0C0752
:104590001F70AF18521E17F883CC06F883CC1B7817
:1045A00007F8833C401E6379C9B25B1E13F0FF031A
:1045B000D2B2C0B26371E2D1F0BD00001800002099
:1045C000FC040020704700005F4E30685F4D604C77
:1045D000C0076BD0DFF87C814FF400570520FDF752
:1045E0004FFCFFF7ABFD6420FCF7B4FC28688006A5
:1045F000F4D560782628F1D1A0780028EED000F01C
:104600001FFA012239464046FDF7F3FE02F0A8FEEC
:104610000020514B01221A54401CC0B20428FAD386
:1046200004224D49902000F06BFE2120FCF78CFD08
:10463000306820F004003060002239464046FDF723
:10464000D8FE306880070DD44FF47A70FCF782FCF6
:104650006078392806D1A07820B100F013FA2868D4
:104660008006BBD50122394644464046FDF7C1FECF
:104670004FF48045002229462046FDF7BAFEFDF79B
:10468000A7F8012229462046FDF7B3FE002239464D
:104690002046FDF7AEFE3220FDF7F2FBFCF71EFDD3
:1046A0003220FDF7EDFBFCF727FDF4E72B4E3078C9
:1046B0000C2802D14C20FCF73BFD30784C2802D06E
:1046C000212810D01FE004222549092000F0C8FD50
:1046D000FCF704FD6420FDF7D3FBFCF70DFD64201F
:1046E000FDF7CEFBF4E70020FCF734FC28688006D9
:1046F000F9D56078042801D03728F4D1102137206B
:1047000000F0D6FAEFE70020FCF724FC28688006CA
:10471000F9D56078032811D004DC60B10228F2D109
:1047200010210DE00E2803D03528ECD1102107E030
:1047300002210E2004E00321002001E014210320C7
:1047400000F0B6FADFE70000E0020020D802002007
:10475000CA15002000040048241500202103002071
:10476000140300202DE9F05F044640F68F7B48F6E5
:104770000F7A40F2024937E1B0F8441011F00F0609
:1047800027D030F82670390473D530F8261001EAA6
:104790000B0141F0800120F8261004EB461595F836
:1047A000340105F59475002820687DD0297830F80B
:1047B00021205204B0F8502002EB000375D509EB1C
:1047C000C101595AC1F309015FEA01086ED02A8973
:1047D000C2E0C9062BD4018801EA0A0141F4004174
:1047E0000180206804F12805B0F850102A780144AF
:1047F00009EBC200085AC0F309006064E16B084489
:10480000E06300212046FDF7DDFE94F82400002837
:10481000B1D0A8690028AED194F8240040F08001FE
:104820002068A0F84C10002084F82400DCE0018807
:1048300004F594750A051DD5B0F850102A78014486
:1048400040F2064000EBC200085A04F50C71C0F3B8
:104850000903EB61EA88206802F051FD21680888AD
:1048600000EA0B0040F0800008802046FEF740F987
:10487000BAE097E0090443D5018801EA0B0141F051
:10488000800101802068B0F850102A78014440F27D
:10489000064000EBC200085A83059B0DEB6111D066
:1048A000696979B1EA8802E037E04AE058E02068B7
:1048B00002F025FDE9696869084468610021204625
:1048C000FDF787FE2068B0F850100844296900F20F
:1048D0000640B1B13E291AD24A08C90700D0521C7D
:1048E0004FF6FF7101EA82210180216808884BF6AA
:1048F0008F72104080F4405048F2800210430880CC
:1049000072E0018821F4F84141F40041ECE74909E3
:104910004FF4004242EA8121E6E7B0F850102B78CC
:10492000014440F2064202EBC302895AC1F3090175
:104930005FEA010820D0EA884346696902F0DFFC9B
:104940001AE040F2064202EBC101595AC1F30901D3
:104950005FEA010804D06A894346696902F0CFFC26
:104960002978226832F8210048F68F73184048F2FF
:10497000C003184322F82100E96901EB0800E8614F
:10498000686900EB08026A61AB6913B128694045A8
:1049900004D929782046FDF71CFE03E0297820463B
:1049A000FDF79DFE38061FD5226804EB461032F84D
:1049B000261001EA0A0141F4004122F8261021687C
:1049C000B1F85020531810F8282F09EBC201595A9A
:1049D000C1F30901C16142690A44426101788369F6
:1049E000204653B1FDF7C7FE2068B0F84410090413
:1049F0003FF5C2AE002000F003B8FDF7E3FDF3E79A
:104A000030BCBDE8C09F70470A4930B41020087020
:104A10000D2048700020084A88700C18135C401C58
:104A2000C0B2E3700828F8D304490B20086030BCFA
:104A3000FCF7FABA34150020B07E000824030020E9
:104A400010B526210B48FCF7FDFF0B4A0B4900204F
:104A50000C18135C401CC0B2A3700828F8D31020B7
:104A600008702720487006490A200860BDE81040F9
:104A7000FCF7DABACC150020E8020020341500203B
:104A8000240300202DE9F05FDFF83081D8F8001012
:104A900021F02001C8F80010494C0822611C0120B7
:104AA00000F0DEFB207A2070464D0020215C2A5C5D
:104AB00051402154401CC0B20428F7D3DFF80891BC
:104AC0002079434E99F80010484020713F486179A1
:104AD000C27951406171A17982795140A171E17926
:104AE00040794140E1710020215C3154401CC0B24A
:104AF0000828F9D302F0ECFD3649374F00200B1897
:104B00003A5C9B789A4257D1401CC0B20828F6D331
:104B1000DFF8C8B04FF4005A012251465846FDF75D
:104B200068FC0822A11C012000F09AFBA0792070EB
:104B3000E07960700020215C2A5C51402154401CC7
:104B4000C0B20428F7D3207999F8001048402071AA
:104B50000020215C3154401CC0B20828F9D302F077
:104B6000B7FD0020395C2154401CC0B20828F9D39D
:104B700000202218295C401CC0B211710428F8D30F
:104B80001748016841F00201016008220C498820A1
:104B900000F0B6FB1349087840F010000870FCF7ED
:104BA000C7FA002251465846FDF723FCD8F80010FA
:104BB00041F02001C8F8001000F016B8D80200201B
:104BC00024150020140300202003002003030020EC
:104BD00005000020CA1500200D0000200004004838
:104BE000E00200202103002030BCBDE8C09F00008F
:104BF0002B4D00212B4C084629602154401C0A28CB
:104C0000FBD3294E0A201027B2784FF07B084FF0D3
:104C10000909092A3ED2DFE802F005070B40400FE0
:104C2000161B2600286036E0286000F047FA34E0C2
:104C30002860FBF797FC30E000224FF480411B48CE
:104C4000FDF7D7FB29E00622F11C982000F058FB65
:104C50000822E11C982000F003FB277084F80180F3
:104C6000B078A07013E00422E11C9C2000F0F8FA58
:104C7000277084F80180B078A0707620E07045201D
:104C80002071002000F0DEFAE07101202072C5F8EA
:104C9000009000E009B1FCF7C7F902F019FC000030
:104CA0002403002034150020CA1500200004004809
:104CB0002DE9F34FD64D07461026A878D54CDFF8DE
:104CC00058A3DFF858B383B04FF00509FF287DD013
:104CD000E846372F4FF000000AD041462A18D27814
:104CE0000A54401CC0B20828F8D3352F14D01DE058
:104CF000CB492A18D2780A54401CC0B20828F8D3ED
:104D000002F00AFDC74A00204146135C0B54401CC8
:104D1000C0B20828F9D309E000200246AB18521CA3
:104D2000DB78D2B25840082AF8D378B1A878049931
:104D3000884227D2C0008830C0B2DFB1032F43D0F1
:104D40000E2F1BD0682F17D0883816E0002052464F
:104D50000B5C1354401CC0B20828F9D302F0B8FC15
:104D60000020594623180A5C401CC0B2DA7008289B
:104D7000F8D31BE0083800E08638C0B20822694644
:104D800000F0BEFA002051462A18D2780A54401C7E
:104D9000C0B20828F8D302F09BFC00205946221824
:104DA0000B5C401CC0B2D3700828F8D3267084F87E
:104DB0000190A8789C49A0700B200860FCF734F99A
:104DC00005B000F039B901E09038D6E7267084F8D4
:104DD0000190A0700020FF262118401CC0B2CE70A8
:104DE0000828F9D390490B20A946086068788F4DB0
:104DF000062815D0682813D0352811D037280FD0B1
:104E000008F1070000F01EFA99F80110814207D15D
:104E10004146049802F0E8FA8548006880062BD5E0
:104E2000002080462218401CC0B282F80380082867
:104E3000F8D399F801000E281ED068281CD0A0B124
:104E4000062814D0072812D0032812D05520FCF7CA
:104E500087F95D2000F0F6F9044675480068800681
:104E600001D57F2C18D9FFF7AFF9212002E02720C8
:104E700000E00C20FCF75CF9FCF7D6F800224FF4B8
:104E800000512846FDF7B5FA00224FF4804128462C
:104E9000FDF7AFFA02F01CFB0122A9469103484638
:104EA000FDF7A7FA012251032846FDF7A2FA44F0C4
:104EB000030508225F49552000F0D2F95D4C00201F
:104EC000514600BFC0F10702A25C0A54401CC0B2A8
:104ED0000828F7D3032002F0D7FB00205946C0F181
:104EE00007030A5C401CC0B2E2540828F7D32572BD
:104EF00009215048FCF7B8FF60720A224D4973201F
:104F000000F0FEF900202654401CC0B20828FAD355
:104F100000207F21A94207D0491EC9B210B1401E0E
:104F2000C0B2F7E70720F5E721540822414969207C
:104F300000F0E6F909223F495F2000F091F90921CC
:104F40003C48FCF791FF60720A223A495F2000F06A
:104F5000D7F9682000F068F9982000F073F9FF286D
:104F600008D1732020700C206070022231499820F3
:104F700000F0C6F9012020706070A070E070002081
:104F800000F060F9000601D4267101E084F8048085
:104F9000667106222749902000F0B2F90C222549BB
:104FA000012000F05DF90020C0F10701225C635C84
:104FB0002354401CC0B262540428F5D3207AE17A0D
:104FC0002172E072607AA17A6172A0720C22194992
:104FD000012000F095F9372F18D00420FCF7A8F82D
:104FE000FBF722FEFCF7C0FCFCF7F2FB00224FF4BB
:104FF00080414C464846FDF7FCF9FCF715F80022C5
:105000004FF400512046FDF7F4F92CE70520E5E7C1
:10501000CA15002034150020050000200D000020D6
:105020003000002038000020240300200004004845
:10503000D80200202415002030BCBDE8C08F00003D
:10504000F8B51C4D06460024A86DC00002D5FDF73A
:10505000B9FD0DE0A86D40F08050A865A86D00F086
:1050600080500090FDF7AEFDA96D21F08051A9653B
:10507000B0F5007F04D0802E07D94FF003040AE07A
:10508000802E08D9A02E01D804E001D1022402E02C
:10509000702E00D101240848016821F00701214346
:1050A0000160006800F00700A04201D00120F8BDB7
:1050B0000020F8BD00100240002002402DE9F04120
:1050C000194902200870194C206820F00200206065
:1050D00017490020174E184B0A6809E0375C450055
:1050E00007F00F0C03F805C03F091D44401C6F700A
:1050F0009042F3D35000086010490020102208604D
:105100000F4908600F490B68DA6209684862042198
:105110000C48FEF7D9FE20688007FCD50A480168D4
:10512000491C0160BDE8F081D6020020D8020020B1
:1051300024030020341500206615002028030020D9
:105140002C03002030260020E40200202DE9F0414D
:10515000264E4FF4006739463046FDF73EF9244CA1
:105160004FF48068216860F30001216041463046B9
:10517000FDF733F9216860F34101216004213046D5
:10518000FDF72BF90146206861F3820020600221BF
:105190003046FDF722F9256860F3C30525600F2D21
:1051A00022D01420FCF76CFE39463046FDF715F985
:1051B000216860F30001216041463046FDF70DF99A
:1051C000216860F34101216004213046FDF705F9B3
:1051D000216860F38201216002213046FDF7FDF86D
:1051E000216860F3C3012160BDE8F081000400483C
:1051F000440300200B490B4B0A4A097B9B8901445D
:105200001844A0F5E050A0F5057002F12802C0F3A3
:105210004E0011F0010F32F8100001D0000A704763
:10522000C0B270471800002010B5044600F00AF81C
:10523000FF2801D0FF2100E000212046BDE81040FA
:1052400000F028B810B5044680B200F0E9F8034A2F
:1052500004F00F01515C484010BD000040160020D2
:1052600070B5144606460D4692B280B200F090F832
:105270000023074908E0F01800F00F00EA5C085C22
:105280004240EA545B1CDBB2A342F4D370BD000081
:10529000401600202DE9F0410546164A00F00F00A7
:1052A000DFF85480165C4FF400574E4039464046B4
:1052B000FDF793F8114C0128206815D020F010005C
:1052C0002060012239464046FDF793F8A8B23146E6
:1052D00000F02AF92068C0060AD439464046BDE8E5
:1052E000F0410022FDF785B840F010002060EDE7A6
:1052F000BDE8F0814016002000040048D8020020DC
:105300002DE9F04186B01546064600236A461A4C40
:1053100008E0F01800F00F00CF5C205C4740D75445
:105320005B1CDBB2AB42F4D3DFF850804FF4005784
:1053300039464046FDF751F8114C0128206817D036
:1053400020F010002060012239464046FDF751F858
:10535000AAB2B0B2694600F0A3F82068C00604D42F
:10536000002239464046FDF744F806B0BDE8F0811A
:1053700040F010002060EBE74016002000040048D9
:10538000D8020020012240214FF09040FDF731B8B3
:105390002DE9F04115460E460446204F00F066F810
:1053A0003878C007FAD14FF09047002240213846A4
:1053B000FDF71FF8032000F0A5F9200A00F0A2F97C
:1053C000E0B200F09FF90AE06D1EADB2002000F0DF
:1053D00099F9641C06F8010BA4B2E00608D0002D70
:1053E000F2D13846BDE8F04101224021FDF701B875
:1053F000002DF6D0012240213846FCF7FAFF0022AA
:1054000040213846FCF7F5FF032000F07BF9200A25
:1054100000F078F9E0B200F075F9D5E7B8020020A5
:1054200070B5114D044600BF00F020F82878C00781
:10543000FAD14FF09045002240212846FCF7D9FFD1
:10544000032000F05FF9200A00F05CF9E0B200F000
:1054500059F9002000F056F904460122402128465F
:10546000FCF7C7FF204670BDB802002010B54FF012
:105470009044002240212046FCF7BBFF052000F0AD
:1054800041F9552000F03EF90449012208702046F8
:10549000BDE810404021FCF7ACBF0000B80200207E
:1054A0002DE9F04115460F4604461E4EFFF7DEFF7C
:1054B0003078C007FAD100F073F8002240214FF095
:1054C000904818E06D1EADB217F8010B00F01AF904
:1054D000641CA4B2E0061AD1DDB10122402140468D
:1054E000FCF787FFFFF7C2FF3078C007FAD100F062
:1054F00057F8002240214046FCF77BFF022000F0D5
:1055000001F9200A00F0FEF8E0B200F0FBF8002DEF
:10551000D8D1012240214046FCF76BFFBDE8F041A5
:1055200000F02CB8B802002070B50E460446124DAB
:10553000FFF79CFF2878C007FAD100F031F84FF050
:105540009045002240212846FCF753FF022000F03E
:10555000D9F8200A00F0D6F8E0B200F0D3F83046CF
:1055600000F0D0F8012240212846FCF742FFBDE8B8
:10557000704000F003B80000B802002010B54FF0F2
:105580009044002240212046FCF733FF042000F025
:10559000B9F820460122BDE810404021FCF729BFA0
:1055A00010B54FF09044002240212046FCF721FF27
:1055B000062000F0A7F820460122BDE81040402157
:1055C000FCF717BF2DE9F04186B0002417460D46C1
:1055D00006460494FCF72AFE3F2002900120039027
:1055E000009404A96846FCF75DFC80B9DFF82880C8
:1055F0000BE000BFD5E9002306EB08010020FCF713
:10560000BFFD20B9641C08350836BC42F2D3FCF754
:1056100091FD06B0BDE8F08100F801087047000078
:1056200010B5184C42F27400A0812078FFF7E2FD1B
:105630006072B8B1D4E90410490821F080010A0170
:1056400001D541F08001400820F08000020101D521
:1056500040F08000627A521E12F0FF026272EBD1BB
:10566000C4E90410AB20A070B320E0707F2020714B
:105670003F206071A07A40F04000A072BDE8104069
:10568000FCF754B818000020F0B5184CE020184D75
:10569000A07141F67477A781A078A1792E1816F829
:1056A000830D41EA5000FFF7A5FD20713178C9074D
:1056B00001D10009207100F00F022271A079E17878
:1056C000830607D44B1CE3706B1813F8833C42EA43
:1056D00003122271294401F8832CA178491CA1707E
:1056E000A0F12001A1712028D5D2F0BD1800002022
:1056F000FC040020012211460148FCF77ABE00009C
:10570000000400482DE9F0410024DFF85C800646E3
:1057100025464FF09047002201214046FCF769FEE4
:105720006006040E20213846FCF757FE012801D1FF
:1057300044F00104002280213846FCF75AFE30066E
:1057400004D5012280213846FCF753FE7006060E70
:10575000012211464046FCF74CFE6D1CEDB2082DAF
:10576000D9D32046BDE8F081000400480122802101
:105770000148FCF73EBE0000000400482DE9F0415E
:105780000024514F06462546002280213846FCF76A
:1057900030FE6006040E00BF00BF00BF00BF00BFA8
:1057A00000BF00BF00BF00BF00BF00BF00BF00BF01
:1057B00000BF00BF00BF00BF00BF00BF00BF00BFF1
:1057C00000BF00BF00BF00BF00BF00BF00BF00BFE1
:1057D00000BF00BF00BF00BF00BF00BF00BF00BFD1
:1057E00000BF00BF00BF20213846FCF7F6FD0128AE
:1057F00001D144F00104300601D5012200E000226D
:1058000040213846FCF7F5FD7006060E00BF00BFCC
:1058100000BF00BF00BF00BF00BF00BF00BF00BF90
:1058200000BF00BF00BF00BF00BF00BF00BF00BF80
:1058300000BF00BF00BF00BF00BF00BF00BF00BF70
:1058400000BF00BF00BF00BF00BF00BF00BF00BF60
:1058500000BF00BF00BF00BF00BF00BF012280210A
:105860003846FCF7C6FD00BF00BF00BF00BF00BF49
:1058700000BF00BF00BF00BF00BF00BF00BF00BF30
:1058800000BF00BF00BF00BF00BF00BF00BF00BF20
:1058900000BF00BF00BF00BF00BF00BF00BF00BF10
:1058A00000BF00BF00BF00BF00BF00BF00BF00BF00
:1058B00000BF00BF00BF6D1CEDB2082DFFF464AF48
:1058C0002046BDE8F081000000040048FCF79CBDC4
:1058D00010B5A4B044216846FAF78DFC14211EA827
:1058E000FAF789FC342111A8FAF785FC4FF400700F
:1058F000FDF72CF938200090002460210120CDE92B
:1059000008410A90059007900221CDE90B100D90F7
:105910002820CDE90E0168461091FDF735FB0F20D8
:105920001E900320CDE91F04219404211EA8229477
:10593000FDF748FA4FF400501B94119011A8FDF7A1
:1059400049F924B010BD00000D48016841F4700110
:1059500001600C48016841F0010101600021816093
:105960000268094B1A4002608214C260026822F485
:105970008022026081610249C0038039086070475B
:1059800088ED00E000100240FFFFF6EA0148FEF754
:1059900050B80000702600200148FEF74AB8000009
:1059A0003026002070B50268164B4FF080469842B2
:1059B00001D0B04203D122F070044A682243124C55
:1059C000124D984205D0B04203D0A04201D0A84267
:1059D00003D122F44076CA6832434E6922F0800235
:1059E000324302608A68C2620A688262984203D0C7
:1059F000A04201D0A84201D109690163012141619E
:105A000070BD0000002C01400040014000440140F6
:105A100010B501F01F030121046A99408C43046210
:105A2000016A9A401143016210BD0000F0B5026A9C
:105A300022F001020262056A43688269154C25F072
:105A4000020522400C6822F0030214438A68134EB8
:105A50002A43114D124FA84203D0B04201D0B842A0
:105A600006D122F0080CCA6842EA0C0222F00402B5
:105A7000A84203D0B04201D0B84205D14D6923F409
:105A800040731D438B692B434360846149684163C4
:105A90000262F0BD8FFFFEFF002C0140004001407C
:105AA0000044014030B5026A22F010020262046A2A
:105AB00042688369154D2B400D6823F4407343EA17
:105AC000052524F020038C6843EA0413104CA042FF
:105AD00007D1CC6823F0800343EA041323F040038A
