:0400000080311B2808
:100008007E1480314E01961A8C1E0E2883313D23B2
:10001800803119280B1B991E19288F1E1928400199
:1000280051088A0050080A0080317E10090080318A
:100038001D28F601F701F801F9013E30840000306F
:1000480085000C30833113238031A03084000030C8
:1000580085004030833113237E10400180313428DD
:100068008231DF228031E030F4000F30F500823138
:10007800B122803175084001BD007408BC003430DD
:100088003C06123003193D0603196928E030AB001D
:100098000F30AC00A030BA003A08AD003430AE00E2
:1000A8001230AF0081319D218031E4304001AB0036
:1000B8000F30AC00A030BA003A08AD003030AE00C6
:1000C8003030AF0081319D218031E430F4000F30B1
:1000D800F5008231B122803175084001BD007408F5
:1000E800BC003D080F39BA003A08F8007808BA0091
:1000F8000330BA35FF3E031D7D283A35BB003B0867
:10010800F8000F303C05BC0000303D05BD00780804
:100118003C07BA003A08F8008B170B176400400137
:1001280046084802BA004708493BBB0000303B027A
:100138000B3003193A020318F701791C9228813110
:100148005D21803179109228E03040012105A70017
:100158000F302205A80000308B1B0130A9002808A9
:100168002206031DB92827082106031D08008B1342
:100178002208F5002108F4008231932280315001D1
:100188001E131E159E164001AA01210850019A004F
:100198004001220850019B0040012A352307A40092
:1001A800240886008701010850019C0040012A3577
:1001B8002307A400240886008701403FA500413F8B
:1001C800A600260850019D001F3040012A06031D85
:1001D800EF2850019E12553050019F00AA309F0011
:1001E8009E140000000001304001A1070030A23D2C
:1001F8000130A4002408AA0720302A02031CC928B9
:1002080050011E114001290C031C8B1303188B1776
:10021800080042011908F0007008F100F20179188D
:10022800080040014908C7004808C6007108F000E6
:1002380077083E3E86008701700881000130F00093
:100248007008F7074C2916303E0603195729F7019D
:1002580057293F08780629290D304306031D2B2905
:10026800F30173083E3E860087010108F00070081C
:10027800F2070130F0007008F30705307302031C21
:100288003529400142087206031D2B297914572984
:100298007708013A03192729033A03192D29043A43
:1002A80003193029572908307702031C0800F70181
:1002B80008009229181101308231132281319B29BB
:1002C8004008B5000430B536890B67293508303E3B
:1002D800B600303003183130B70040080F39083EF7
:1002E800890A7829B635B70D890B76293608B800FA
:1002F8003708B900E430AB000F30AC00A030B500CF
:100308003508AD003908AF003808AE0081319D21AD
:10031800813102308231132281319B29400140080A
:10032800013A03195E29113A031964299B29F70137
:100338000800E03040012B05B2000F302C05B30057
:100348002B081F39B0003008B100B4013408320757
:10035800F40033080318330AF5008231B1228131E1
:10036800400134352D07B000300886008701740835
:10037800C03F7508C13F0130B0003008B4072030D5
:100388003402031CAA2931352D07B0003008860035
:1003980087012E08C03F2F08C13F3308A20032084A
:1003A800A1002D08B0003008A3008031A820080063
:1003B80040019801990190309A003B309200F0304A
:1003C8009300FE309400FC307E01CE008030C300E4
:1003D8003330B800C401B901CF01BA01C501D00159
:1003E8003F30BB00C6013F30D1003F30BC00C701E1
:1003F8003F30D2008B1355307D018F00AA308F001B
:100408008F010F307E01A00011307D01CB005530E7
:100418008F00AA308F0001308F008B170800400131
:10042800A000A101163083310B2382317808833173
:100438000B2382314001200883310B2382310130A4
:1004480083310B23823140012108163EF5007508DF
:10045800A10021087807F5007508A10021082007E8
:10046800F5007508A1002108013EF5007508A100F6
:10047800210883310B2382310D3083310B2308008F
:100488004E0199127130F4000230F50083311F23B8
:100498008231083042019F0090309D0024309E0038
:1004A800A0309B0001309C004930F4000330F50077
:1004B80083312B2382314230F4000330F50083313D
:1004C800252382314630F4000330F500833131238F
:1004D800F601F7014E0199160800F60142011D1DAB
:1004E8007C2AF61440014F088A004E080A0082311F
:1004F80042019D1C862A761540014D088A004C0849
:100508000A00823176080319902A40014B088A00B4
:100518004A080A008231080081310D2108000030A4
:100528008B1B01304001A0008B13740850019A0006
:1005380075089B001E131E161E1555309F00AA3005
:100548009F009E140000000050011E114001200C65
:10055800031C8B1303188B17080000308B1B01300A
:100568004001A0008B13740850019A0075089B0085
:100578001E131E14000000004001200C031C8B13E6
:1005880003188B1750011D08F5001C08F40008001B
:1005980055304B019F00C2309D009C014E018C12CA
:1005A80096163730F4000330F500833119238F3065
:1005B8004B019E0008008331032382318131DC2105
:1005C80082318231F92282318231CC2282318231E8
:1005D8004422080040015208530403190800530834
:1005E8008A0052080A0082310800603051018D00EB
:1005F8008F019101023093009001920108004F0190
:1006080096019701980199019A019B010800F4004D
:100618004E010F1E0C2B740842019A00080064005A
:1006280080010131890B142B003475084001D30077
:100638007408D200080075084001D1007408D00081
:10064800080075084001CD007408CC000800750842
:100658004001CF007408CE00080075084001CB00A7
:100668007408CA00080001304001C8070030C93DBD
:1006780008004E018C128231EE22080042011D1240
:0C0688001D16080081310D21080008003B
:020000040001F9
:0A000E00EC3FFF3FCA07FF3FFF3F32
:00000001FF
