:020000040800F2
:10000000681400209D01000813250008F51F000852
:1000100011250008E5010008212E0008000000005D
:10002000000000000000000000000000AD260008F5
:10003000BD0400080000000035250008AF260008B8
:10004000B7010008B7010008B7010008B7010008B0
:10005000B7010008B7010008B7010008B7010008A0
:10006000B7010008B7010008B7010008B701000890
:10007000B7010008B7010008B7010008B701000880
:10008000B7010008B7010008B7010008B701000870
:10009000B7010008B7010008B7010008B701000860
:1000A000B7010008B7010008B7010008B701000850
:1000B000B7010008B1270008B7010008B701000820
:1000C000B7010008B7010008B7010008B701000830
:1000D000B7010008FD2D0008092E0008152E0008A4
:1000E000B7010008B7010008B7010008B701000810
:1000F000C9270008BD270008B7010008B70100089C
:10010000B7010008B7010008B7010008B7010008EF
:10011000B7010008B7010008B7010008B7010008DF
:10012000B7010008B7010008B7010008B7010008CF
:10013000B7010008B7010008B7010008B7010008BF
:10014000B7010008B7010008B7010008B7010008AF
:10015000B7010008B7010008B7010008B70100089F
:10016000B7010008B7010008B7010008B70100088F
:10017000B7010008B7010008B7010008000000003F
:10018000B7010008B7010008DFF80CD000F018F83C
:1001900000480047452E00086814002006488047A4
:1001A00006480047FEE7FEE7FEE7FEE7FEE7FEE75C
:1001B000FEE7FEE7FEE7FEE75D270008890100088D
:1001C000064C074D06E0E06840F0010394E80700A4
:1001D00098471034AC42F6D3FFF7DAFFB82F000887
:1001E000D82F0008FEE700000548016821F0010152
:1001F000016004484FF6FF71418000210180704783
:10020000100000201800002000B5FFF7EDFF0249A4
:1002100041F21660088000BD8009002070B50446D8
:1002200000F0B4FD1C4948601C4A1068C00713D197
:1002300008881B4B1D18401C08802C700D8800205E
:10024000072D17D90D2C08D10B884C88A34204D157
:10025000106840F00100106070BD0B884C884FF6AC
:10026000FF72A34203D80B88B3F5806FF4D90880DE
:100270004A8070BD0A88062A09D00A88022A02D05C
:100280000A88012AF5D1162CF3D0088070BD988811
:100290000A30488070BD00001800002010000020C7
:1002A0007405002070B5124D14460022AA716880B2
:1002B000AC80104604E02B180A5C1A72401C80B215
:1002C000A042F8D304F10801094800F039F92919CE
:1002D00008720D2048720A34A2B24FF47A730449AE
:1002E000044801F029FEBDE87040FFF77DBF000023
:1002F000800900207404002010B50C4C0122A2716A
:100300006080E1710020A0800821204600F018F9EB
:1003100020720D2060724FF47A730A22214604483D
:1003200001F00AFEBDE81040FFF75EBF8009002023
:1003300074040020022201A1FFF7B4BF4F4B00005C
:100340002DE9F043DFF864818BB00020B8F8081085
:10035000574C226B1160D8F80C10226B516098F842
:100360001010226B916098F81110226BD16098F8F0
:100370001210226B116107E008EB0002137D00F1FF
:100380001402401C8B54C0B2216B0A698242F3D81C
:1003900098F82000DFF81C91B0B1B8F81C404D4629
:1003A00009E000BFB8F81E10414800F007FB2870B4
:1003B00020B1641EA4B2002CF4D13EE06520FFF70A
:1003C000B9FF0BB0BDE8F083B8F826004001002566
:1003D000CDE90005D8F82800C0F34F300290D8F8D6
:1003E00028004FF6FF7101EAC000001DCDE90305AA
:1003F0000120CDE90550079008900E20099069462C
:100400002B4800F0ABF898F82260A9F802503EE0C3
:10041000B8F81C500AE000BFB8F81E10244800F0DD
:10042000CDFA89F8000020B16D1EADB2002DF3D1D8
:1004300003E015B198F8235023E002212AE000BF21
:10044000B8F8242000211A4800F0CCF94A4689F86F
:100450000000C8B998F82100636B9968884213D1ED
:10046000154F002000F11401401C13F801C0518801
:10047000C0B207F801C0491C51800828F2D36D1E94
:10048000EDB2002DDCD109E045B1761EF6B2002EAA
:10049000BED103216520FFF72FFF92E7B9F80220B4
:1004A00005496520FFF7FEFE8BE70000740500207C
:1004B00030040020040000203000002070470000BD
:1004C0007FB51D4D2C8900208DF80C0026E064239B
:1004D000012203A9194801F02FFD0A2000F066FB54
:1004E000A8881549801E82B264230C31134801F09C
:1004F00023FD6B8901226946104801F085FC58B93B
:100500009DF800007828F4D16B890A220B480DF180
:10051000010101F079FC40B1641EA4B2002CD6D1D7
:1005200002210846FFF7E8FE7FBD0B226946022044
:10053000FFF7B8FE7FBD000074050020B404002062
:10054000034610B50020024604E09C5C521C204487
:10055000C0B2D2B28A42F8D310BD000010B5087DF7
:10056000012282403A48D0F8003243F00103C0F83B
:100570000032D0F8003223F47C53C0F80032D0F8B7
:1005800000324C6A43EA0423C0F80032D0F81C322F
:100590009343C0F81C32CB69B3B9D0F80C32934303
:1005A000C0F80C328C894B6864F31F434C6900EB34
:1005B000C404C4F840320C890B6864F31F434C69CF
:1005C00000EBC404C4F84432CB69012B16D1D0F837
:1005D0000C321343C0F80C320C884B6864F31F4391
:1005E0004C6900EBC404C4F840320C89CB6864F356
:1005F0001F434C6900EBC404C4F844328B69002BE0
:10060000D0F8043205D01343C0F804320B6913B19B
:1006100006E09343F8E7D0F814329343C0F814325D
:100620000B69012B04D1D0F814321343C0F81432F3
:10063000096A012904D1D0F81C121143C0F81C1218
:10064000D0F8001221F00101C0F80012002010BD06
:10065000006400402DE9F041040004D094F83C000F
:10066000002518B107E00120BDE8F08184F83D5075
:10067000204600F093F8022084F83C0020680168CE
:1006800021F0020101602068016841F00101016070
:1006900000F07CFB0746032605E000BF00F076FB78
:1006A000C01B0A2863D820684068C007F6D02068BD
:1006B0004168C90768D0A169012901683FD021F0CC
:1006C00080010160E0690128206801683AD021F0CA
:1006D00040010160206A01282068016835D021F0BE
:1006E00020010160606A01282068016830D021F093
:1006F00010010160A06A0128206801682BD021F058
:1007000008010160E06A01282068016826D021F014
:1007100004010160D4E902010843D4E90412114341
:1007200008436168491E08432168C8612068016860
:1007300021F00101016000F029FB07461CE041F0B7
:100740008001BEE741F04001C3E741F02001C8E766
:1007500041F01001CDE741F00801D2E741F004017A
:10076000D7E700BF00F012FBC01B0A2804D904F829
:100770003C6F0320657077E720684068C007F1D1BF
:1007800020684068C00703D0042084F83C006AE772
:100790002564012084F83C00002065E700B500686E
:1007A0000D4987B0884215D10C480021026842F0FB
:1007B000007202600068022200F0007005900320C1
:1007C000CDE90210CDE900020920049069460448F1
:1007D00000F0FAF907B000BD006400404038024064
:1007E000000C02402DE9F84F17460D00044602D0D8
:1007F000012D2BD010E094F83C0022282ED094F844
:100800003C0042282AD000BF94F83C00622825D042
:1008100094F83C00722821D094F83D0001281DD0A6
:10082000012684F83D60622094F83C2072214FF04C
:1008300042094FF0220A4FF0520B95B1122A1AD0FA
:10084000222A19D0422A1AD0322015E094F83C000E
:10085000322803D094F83C005228D5D10220BDE8BC
:10086000F88F122A05D0322A06D0522A07D05046D5
:1008700002E0484600E0584684F83C0001E084F875
:100880003C1000F083FA4FF0000800900EE0781C56
:100890000CD02FB100F07AFA0099401AB84205D96D
:1008A000032084F83C0084F83D80D8E72068EDB34D
:1008B000D0F8100010F0030FE9D0C5B3D4F8380019
:1008C0004FF4D871226801EB0511525812F004025E
:1008D00082602268525850D0D20842602268515833
:1008E00001F00201C1604FF4DA71226801EB0511D9
:1008F000525802F00F02026122685158C1F30721D9
:10090000C0E907154FF4DC71226801EB051152585C
:10091000027522685258120A427522685258120C07
:10092000827522685158090EC17501E021E022E06C
:100930004FF4DE71226801EB0511525802762268ED
:100940005258120A427622685258120C8276226855
:100950005158090EC17620202268122185B11061FC
:1009600094F83C0052281FD0622820D0722810D161
:100970001FE0C0689EE7606BA2E7520D0260ADE722
:10098000D06094F83C0042280ED0622808D072282B
:1009900008D084F83C6000BF84F83D8000205EE70A
:1009A000322007E0584605E084F83C10F4E7504652
:1009B00000E0484684F83C00EEE700002DE9F05FD7
:1009C0000E46016804468868400105D48868000125
:1009D00002D48868C0006FD594F83D0001280CD07F
:1009E000012784F83D7094F83C00222808D0322872
:1009F00008D062280ED0122005E00220BDE8F09F4A
:100A0000422000E0522084F83C008868400103D571
:100A1000002507E07220F6E78868000101D501256E
:100A200000E002254FF4C07000EB05100A5802F0F8
:100A300001020A50216B8A68EAB3D4F800C05CF85E
:100A400000301343CA68496842EAC1010B434CF8BD
:100A50000030216B0A7C02F00F020A614FF4C27170
:100A6000226801EB0511535823F00F0353502268FD
:100A70005358D4F830C0DCF810C043EA0C0353508C
:100A8000216B4FF4C47303EB05130A7DD1F81510E5
:100A900042EA01222168CA50216B4FF4C67303EB6E
:100AA00005130A7ED1F8191042EA01222168CA50C2
:100AB00021680A5801E00DE05AE042F001020A50B4
:100AC00000F064F981464FF00008DFF8B0A0DFF8CD
:100AD000B0B026E022681358D1F80CC0098843EA68
:100AE0000C0343EA41511150B3E7701C19D02EB1E9
:100AF00000F04CF9A0EB0900B04212D9032084F8B1
:100B00003C004DB1012D09D04FF4000021688860F0
:100B100084F83D80032071E78020F7E74FF4004020
:100B2000F4E7ADB12068012D816816D015488843DF
:100B30000028DAD194F83C00422811D0522811D074
:100B4000722813D084F83C7084F83D80002055E76B
:100B5000206881682AEA0100EAE72BEA0100E7E75A
:100B6000222000E0322084F83C00EDE76220FAE722
:100B7000042084F83C00012040E70000030000044A
:100B8000000300080000031090F83510022903D07C
:100B90008021416501207047052180F835100068EB
:100BA000016821F0010101600020704731B500F0BB
:100BB000EDF8009C0546601C00D0641C00F0E6F8CF
:100BC000401BA042FAD338BD2DE9F84FDFF87CB1C5
:100BD00000224FF001084FF0030A4FF00F090BF10C
:100BE000040E00BF0B6808FA02F42340A3426ED142
:100BF0004D68022D01D0122D0ED1D50800EB850CC9
:100C0000DCF820505607F70E09FA07F6B5430E69CF
:100C1000BE402E43CCF82060066855000F790AFAD2
:100C200005FC07F0030726EA0C06AF4037430760D0
:100C30004E68012E05D0022E03D0112E01D0122EA7
:100C40000ED18668CF6826EA0C06AF40374387602E
:100C50004668A6430C79C4F30014944034434460BE
:100C6000C6688C6826EA0C06AC403443C4604C6805
:100C7000E40065D5364C256845F480452560246838
:100C800022F0030504F480440094324C2E19D6F867
:100C9000084895072F0F09FA07F5AC432E4DA842D7
:100CA00001D1002524E02D4DA84201D101251FE0EE
:100CB0002B4DA84201D102251AE02A4DA84201D1AC
:100CC000032515E0284DA84202D1042510E037E0A5
:100CD000264DA84201D105250AE0254DA84201D1A3
:100CE000062505E0234DA84201D1072500E008258F
:100CF000BD402543C6F80858DBF800405D464E6805
:100D00009C43F60300D51C432C60DEF8004075467A
:100D10004E689C43B60300D51C432C600B4D083530
:100D20002C684E689C43F60200D51C432C60074D8E
:100D30000C352C684E689C43B60200D51C432C60D1
:100D4000521C102AFFF44EAFBDE8F88F003C014062
:100D500044380240003001400000024000040240DC
:100D600000080240000C0240001002400014024043
:100D700000180240001C024042694A40426170472C
:100D80000AB1816170470904FBE70000014800686F
:100D9000704700000000002002480168491C016003
:100DA00070470000000000200B4810B5016841F4B6
:100DB00000710160016841F480610160016841F4E3
:100DC00080710160032000F075F8002000F006F843
:100DD00000F018F8002010BD003C024010B5044699
:100DE00007484FF47A710068B0FBF1F000F035FB72
:100DF00000222146501E00F03DF8002010BD0000EA
:100E00002C00002010B5032000F054F800221146F9
:100E10006FF00B0000F02EF8002211466FF00A0070
:100E200000F028F8002211466FF0090000F022F8C7
:100E300000221146501F00F01DF800221146101F1D
:100E400000F018F800221146901E00F013F800225E
:100E5000BDE810401146501E00F00CB800F01F0213
:100E6000012191404009800000F1E020C0F800110C
:100E700070470000F0B40E4B1B680C46C3F302230E
:100E8000C3F10705042D00D90425191D072901D236
:100E9000002300E0DB1E012606FA05F1491E214071
:100EA00099409E40761E16403143F0BC01F032BBA3
:100EB0000CED00E0064900F0070208684FF6FF035A
:100EC000184040EA0220034A1043086070470000BF
:100ED0000CED00E00000FA052DE9F047DFF8649121
:100EE00005460F46D9F8000000F00F01F8B2804621
:100EF000B94208D2014689F80010D9F8000000F084
:100F00000F00B84274D128784F4C800705D520686F
:100F1000A96820F0F000084320602878C00759D065
:100F200049496868083901281AD002281BD00328CB
:100F300019D00968890700295ADA216821F00301CC
:100F400001432160FFF722FF6968064641F28830BD
:100F5000012911D002291DD00329824627D035E06E
:100F600009688903E7E709688901E4E7FFF70EFFED
:100F7000811B514501D926E082462068C0F38100DB
:100F80000128F3D126E000BFFFF700FF811B514588
:100F900001D918E082462068C0F381000228F3D10D
:100FA00018E000BFFFF7F2FE811B51450BD8206807
:100FB000C0F381000328F5D10CE000BFFFF7E6FE87
:100FC000811B514502D90320BDE8F087206810F04D
:100FD0000C0FF3D1D9F80010484601F00F01B942C7
:100FE00008D980F80080006800F00F00B84201D0F6
:100FF0000120E9E72878400705D52068E96820F452
:10100000E050084320602878000706D52068296949
:1010100020F4604040EAC100206000F051F82168EF
:10102000F02292FAA2F201F0F001B2FA82F2D1407B
:10103000064A515CC840064908600020FFF7CEFE12
:101040000020C1E7003C024008380240A02F000801
:101050002C00002001480068704700002C00002090
:1010600008480949006809684FF4E05292FAA2F270
:1010700001F4E051B2FA82F2D140044A515CC84016
:10108000704700002C00002008380240B02F0008F4
:1010900008480949006809684FF4604292FAA2F2D0
:1010A00001F46041B2FA82F2D140044A515CC84076
:1010B000704700002C00002008380240B02F0008C4
:1010C000154810B5006810F00C01144823D004290D
:1010D00021D008291FD11049091F0A6802F03F03D7
:1010E0000A68B0FBF3F00B6847F6C072134092FA3F
:1010F000A2F2B2FA82F2D340096858434FF4403268
:1011000092FAA2F201F44031B2FA82F2D140491CC3
:101110004900B0FBF1F010BD083802400024F40093
:101120002DE9F84F05460078DFF800A3C04CC00752
:1011300041F288364AD0DAF800105046C1F38101F6
:10114000012908D00068C0F3810002280AD1201DBF
:101150000068400206D52068800337D568680028FB
:1011600071D033E06868B0F5803F10D0B0F5A02FA3
:10117000206810D020F480302060206820F4802087
:1011800020606868A8B1FFF701FE07460DE02068FF
:1011900040F48030F4E740F480202060F7E700BF9F
:1011A000FFF7F4FDC01BB04273D820688003F7D569
:1011B0000CE0FFF7EBFD074605E000BFFFF7E6FD9B
:1011C000C01BB042F0D820688003F7D42878DFF83D
:1011D000648280074FF0010B4FF0000942D5DAF826
:1011E0000010504611F00C0F09D00068C0F38100C8
:1011F00002280BD18D48001F0068400206D42068E9
:10120000800713D5E86801281DD10FE0E868D8B140
:10121000C8F800B0FFF7BAFD074604E0FFF7B6FDD7
:10122000C01B0228C0D820688007F7D52068F822A4
:1012300092FAA2F22969B2FA82F220F0F800914003
:10124000084320600EE0EEE0C8F80090FFF79EFD36
:10125000074604E0FFF79AFDC01B022819D8206852
:101260008007F7D42878000724D57348696989B1C5
:10127000C0F800B0FFF78AFD074604E0FFF786FDDF
:10128000C01B022805D869486C3000688007F5D576
:1012900010E07AE0C0F80090FFF778FD074604E020
:1012A000FFF774FDC01B02286FD860486C300068DF
:1012B0008007F5D4287840074FD55C48383001685E
:1012C00041F080510160006800F0805000905B4860
:1012D000016841F480710160FFF758FD074604E0A2
:1012E000FFF754FDC01B02284FD854480068C005C2
:1012F000F6D54E4FA868683701280FD00528386802
:1013000010D020F001003860386820F00400386008
:10131000A868A8B1FFF73AFD00900DE0386840F0EA
:101320000100F4E740F004003860F7E7FFF72EFD16
:101330000099401AB0426ED838688007F6D50CE0A4
:10134000FFF724FD009005E0FFF720FD0099401A0B
:10135000B04260D838688007F6D4A869F0B3DAF8EC
:101360000010C1F3810102295DD00228484605D052
:10137000C8F86000FFF70AFD05464FE04746C8F889
:101380006000FFF703FD064605E044E0FFF7FEFCC2
:10139000801B02283FD820688001F7D4D5E90701D7
:1013A000084347F6C07292FAA2F2696AB2FA82F270
:1013B0009140AA6A4FF0FF3303EB52024FF44033DF
:1013C00093FAA3F3B3FA83F39A4011434FF0706298
:1013D00092FAA2F20843B2FA82F200E021E0E96A4E
:1013E000914008431149091F0860C7F860B0FFF732
:1013F000CDFC054605E000BFFFF7C8FC401B0228F6
:1014000009D820688001F7D50BE000BFFFF7BEFCCC
:10141000401B022802D90320BDE8F88F2068800114
:10142000F4D40020F8E70120F6E700000838024075
:101430000038024000004742800E474200700040E2
:101440004FF0E0210428086903D020F0040008616F
:10145000704740F00400FAE7704710B5401EB0F145
:10146000807F01D3012010BD4FF0E02460610F2187
:10147000601701F04FF80020A061072020610020D4
:1014800010BD10B5FFF7E8FF10BD7047704730B5CD
:1014900090F83820012A20D0012280F83820022339
:1014A00080F8393003685C6824F070045C6003687D
:1014B0005C680D682C435C6003689C6824F08004C1
:1014C0009C6003689C6849680C439C6080F83920E4
:1014D000002180F83810084630BD022030BD10B51C
:1014E000040003D094F8390010B107E0012010BDCA
:1014F000002084F83800204600F00CF8022084F820
:101500003900211D206801F065F9012084F83900B7
:10151000002010BD10B5294C026800212848022384
:1015200086B0A24218D1026842F00202026000684E
:1015300000F00200059040200090CDE90131CDE996
:10154000031369461F48FFF73FFB002211461D2089
:10155000FFF790FC1D201BE01B4CA2421CD102682F
:1015600042F080020260006800F080000590A01543
:101570000090CDE901310920CDE9031069461348F7
:10158000FFF722FB002211462C20FFF773FC2C20D2
:10159000FFF764FC06B010BD0D498A42FAD101681C
:1015A00041F4807101600068002200F480700590B1
:1015B0000F212D20FFF75EFC2D20E9E700040040FD
:1015C0004038024000000240001C0040001402406D
:1015D000002000400168CA6842F00102CA60006849
:1015E000016841F001010160002070470168CA688C
:1015F00022F00102CA600068016A41F21112114230
:1016000007D1016A9210114203D1016821F0010152
:1016100001600020704770B5044690F8380001283A
:1016200017D0012584F83850022084F8390020684A
:10163000826822F0770222F47F4282600868502894
:1016400037D00DDC202859D005DC88B3102841D1D3
:1016500051E0022070BD302853D040283AD13FE0FD
:1016600060282ED070280BD0B0F5805F03D0B0F585
:10167000005F2FD110E02068816821F0070115E09C
:10168000CB68D1E90121206801F00FF92168886851
:1016900040F0770088601DE0CB68D1E90121206827
:1016A00001F003F92068816841F48041816011E014
:1016B0001EE0CA684968206801F009F950212068D5
:1016C00006E0CA684968206801F054F96021206882
:1016D00001F0F5F884F83950002084F8380070BD26
:1016E000CA684968206801F0F2F840212068EFE7F5
:1016F00000212068ECE710212068E9E7202120681C
:10170000E6E730212068E3E770B500680F498842BA
:101710000BD10E4D002424352C600D480168C906FC
:1017200004D5016821F01001016070BD0021094855
:1017300000F024FA084AD178084B03EB8103491CD6
:10174000D170133018602C6070BD0000001C004088
:1017500010000020F00F002020000020F00D0020DD
:101760002DE9F041044690F838000D4601283DD09F
:10177000012684F83860022084F83900AAB3042ACC
:1017800046D02068082A55D0D5E90027E968036AC1
:1017900023F480530362D0F81CC0036A2CF4407C0D
:1017A0004CEA07274FF6FF7C27F470470CEA01311B
:1017B00039434FF4204723F4204307EA02321A4307
:1017C000C16102622068C16921F44061C161206881
:1017D000C169AA6841EA0221C0F81C1084F8396086
:1017E000002084F83800BDE8F08101E00220FAE72B
:1017F000D5E90012EB68206801F07AF82068816969
:1018000021F00C01816120688169AA6811430FE011
:10181000D5E90012EB68206801F0BEF82068816904
:1018200021F44061816120688169AA6841EA02214E
:101830008161D3E7D5E9002C2F7B016A21F4807107
:101840000162C169036A21F0030141EA0C0121F040
:10185000F00C39074FF420674CEA116123F4206340
:1018600007EA02221A43C16102622068C16921F0BD
:101870000C01C1612068C169AA681143ACE710B5C9
:10188000040003D094F8390010B107E0012010BD26
:10189000002084F83800204600F00CF8022084F87C
:1018A0003900211D206800F095FF012084F83900DF
:1018B000002010BD704710B50268044631B10429FC
:1018C00008D0082915D00C2908D116E0D06840F0BE
:1018D000020002E0D06840F00400D06001222068DD
:1018E00000F0D8FF2068016841F00101016000208C
:1018F00010BDD06840F00800EFE7D06840F010005D
:10190000EBE710B50268044631B1042908D0082974
:101910001ED00C2908D11FE0D06820F0020002E0A0
:10192000D06820F00400D0600022206800F0B2FFF0
:101930002068016A41F21112114207D1016A921026
:10194000114203D1016821F001010160002010BDA6
:10195000D06820F00800E6E7D06820F01000E2E749
:1019600070B50446006801694FF00005C943890756
:1019700015D4C168C943890711D4E91E016101204A
:101980002076206880698007204602D0FFF7BCFEE1
:1019900004E000F098F8204600F096F825762068DC
:1019A0000169C943490717D4C168C943490713D41A
:1019B0006FF004010161022020762068806910F434
:1019C000407F204602D0FFF79FFE04E000F07BF846
:1019D000204600F079F8257620680169C943090797
:1019E00016D4C168C943090712D46FF00801016118
:1019F000042020762068C0698007204602D0FFF7C7
:101A000083FE04E000F05FF8204600F05DF82576E4
:101A100020680169C943C90617D4C168C943C9060A
:101A200013D46FF010010161082020762068C0698E
:101A300010F4407F204602D0FFF766FE04E000F07D
:101A400042F8204600F040F8257620680169C94335
:101A5000C90708D1C168C943C90704D1891E0161FA
:101A6000204600F033F820680169C943090609D40B
:101A7000C168C943090605D46FF0800101612046A1
:101A8000FFF703FD20680169C943490609D4C1680D
:101A9000C943490605D46FF040010161204600F0BA
:101AA0008FF820680169C94389060BD4C168C9430E
:101AB000890607D46FF0200101612046BDE870401F
:101AC000FFF7E4BC70BD7047704700002DE9F0419E
:101AD0000068244E244D254CB0422BD1E988A868DB
:101AE000FFF74AF9206840071AD521496878F5229E
:101AF000095C11FB02F101F6CB618FB2216821F084
:101B0000040121602978884206D11A48FFF76EFD4A
:101B1000206840F0080020606878401C687004E08D
:101B200020686D2740F004002060F762002070629A
:101B3000BDE8F08110498842FAD12068C00605D579
:101B4000A878401CC0B2A870C828F1D9206840F01D
:101B500020002060BDE8F041064800213C38FFF736
:101B6000D0BE000000200040200000201000002017
:101B70008C0D00202C100020001C004090F8383004
:101B80000022012B0AD0012380F8383041B104290A
:101B900009D008290AD00C290DD10AE0022070478B
:101BA00001684A6B07E001688A6B04E00168CA6B50
:101BB00001E001680A6C002180F838101046704777
:101BC0007047704770B5026804461068D168536961
:101BD00010F00F0F51D003F0010501F4907635435A
:101BE0005DD0C20705D0CA0503D5E26B42F0010201
:101BF000E263420705D5DA0703D0E26B42F0020246
:101C0000E263820705D5DA0703D0E26B42F00402F3
:101C1000E263020705D5DA0703D0E26B42F008025F
:101C2000E263E26B002A34D0800604D5880602D530
:101C3000204600F0E2FE20684069E16BC0F38010AE
:101C400001F008010143204624D000F0C8FE2068BE
:101C5000416949061AD5416921F040014161606B33
:101C6000A0B11B490165606BFEF78EFF002810D004
:101C7000606B016DBDE87040084783060FD58B0689
:101C80000DD52046BDE8704000F0B7BE2046FFF7F6
:101C900098FF70BDFFF795FF0020E06370BD03065D
:101CA00006D50B0604D52046BDE8704001F042B8C9
:101CB0004006F3D54806F1D5D168204621F0400111
:101CC000D160202184F8391000F093F970BD000034
:101CD000CF29000870B5040004D094F8390000251D
:101CE00010B106E0012070BD84F83850204600F0A5
:101CF00023F8242084F839002068C16821F40051B9
:101D0000C160204600F0C0FE2068016921F49041C6
:101D100001612068416921F02A0141612068C168A0
:101D200041F40051C160E563202084F8390084F853
:101D30003A00002070BD000070B505682B480221F4
:101D400001220323072486B0854216D1284805685E
:101D500045F010050560006800F01000059058027D
:101D60008DE81F0069462348FEF72EFF002211462A
:101D70002520FFF77FF8252019E01D481E4E001F83
:101D8000B54218D1056845F400350560006800F4D7
:101D90000030059060208DE81F0069461748FEF767
:101DA00013FF002211462620FFF764F82620FFF7D4
:101DB00055F806B070BD124EB542FAD1056845F42B
:101DC00080250560006800F4802005904FF4406095
:101DD0008DE81F0069460B48FEF7F6FE002211460B
:101DE0002720FFF747F82720E1E700000010014017
:101DF000443802400000024000440040000C024011
:101E000000480040000402402DE9F843044690F8E1
:101E10003A00994616460D4620284FD195B18EB10D
:101E200094F83800012849D0012084F838000027B0
:101E3000E763222084F83A00FEF7A8FFA6858046D3
:101E4000E68531E00120BDE8F883E08D401EE085A5
:101E5000A0684346B0F5805F4FF000024FF02001CC
:101E60002046CDF8009004D000F095FF98B10320F3
:101E7000E9E700F090FF0028F9D1206900282068E8
:101E8000406803D0C1B225F8011B0DE0C0F3080182
:101E900025F8021B08E0206900282068406801D06E
:101EA00000F07F0005F8010BE08D0028CDD1202047
:101EB00084F83A0084F838700020C4E70220C2E7B2
:101EC00090F83A30202B1DD1D1B1CAB190F83830FA
:101ED000012B17D081628285C2850021C163222235
:101EE00080F83A2080F8381001684A6942F001020F
:101EF0004A610068C16841F49071C1600020704778
:101F0000012070470220704710B5006807498842D9
:101F10000AD107480078FEF781F9BDE81040012298
:101F200003490448FFF7CCBF10BD0000001001407A
:101F300008000020740400202DE9F843044690F8BE
:101F400039001F4616460D46202850D1A5B19EB136
:101F500094F8380001284AD0012084F838004FF066
:101F60000008C4F83C80212084F83900FEF70EFFF9
:101F7000A6848146E68426E00120BDE8F883E08C53
:101F8000401EE084A0684B46B0F5805F4FF0000231
:101F90004FF080012046009703D000F0FCFEE8B926
:101FA0000DE000F0F8FEC8B928882168C0F30800E9
:101FB0004860206908B16D1C05E0AD1C03E0216894
:101FC00015F8010B4860E08C0028D8D14B46002260
:101FD00040212046009700F0DEFE08B10320CCE748
:101FE000202084F8390084F838800020C5E70220DA
:101FF000C3E77047FEE700002DE9F04100204649A5
:10200000464A0BE00B189C7A04F00F054400155566
:102010009B7A14441B09401C6370C0B20B7A834244
:10202000F0D8087A3E4C400020703E4D0026667085
:10203000286840F004002860286820F00800286024
:1020400039480821394AA060E1806D23D362566285
:102050000122FEF795FE3648FFF7BCFA2868000714
:10206000FCD5A670286820F020002860E67028685B
:1020700040F0100028602E4800213C38FFF71BFC80
:1020800028688006FCD5E07838B124490020643106
:102090004FF478774FF4846518E001211FE000BF0A
:1020A00051F82020BA420FD92A46002351F820C007
:1020B000944505D340325B1CDBB292B2102BF5D3B2
:1020C000102B0BD041F82030401CC0B2E278904277
:1020D000E6D3174B00202671AC3B12E00221BDE88D
:1020E000F041C820FEF708B951F8202001EB800527
:1020F0006D6802EB051522799D54521C801C2271DB
:10210000C0B2E2789042EFD32279BDE8F0410849AD
:10211000AC39C820FEF7C6B8740500208C0D00202D
:10212000200000201000002000000240002000409D
:102130002C1000200E4810B50C49016010214160A0
:1021400000218160C160016141618161C161016201
:1021500041628162C162FEF77DFA002805D0BDE8C8
:102160001040B52103A000F05CBE10BD006400402B
:10217000300400202E2E2F5372632F63616E2E6366
:10218000000000002DE9F043464887B000240168B4
:1021900041F020010160016801F020010591016812
:1021A00041F080010160016801F080010591016842
:1021B00041F001010160016801F001010591016830
:1021C00041F004010160016801F00401059101681A
:1021D00041F002010160016801F00201059101680E
:1021E00041F008010160016801F0080105910168F2
:1021F00041F01001016000682B4F00F010000590C5
:10220000002280213846FEF7BBFD284E00222821FF
:102210003046FEF7B5FDDFF8988000229821404651
:10222000FEF7AEFDDFF88C90002201214846FEF754
:10223000A7FD802000900125CDE90154694638466C
:102240000394FEF7C1FC082000900221CDE9015162
:10225000039169463046FEF7B7FC20200090CDE997
:102260000154694630460394FEF7AEFC1020CDE9D8
:102270000004694610480294FEF7A6FC98200090DE
:10228000CDE90154694640460394FEF79DFC009554
:10229000CDE90154694648460394FEF795FC07B022
:1022A000BDE8F083303802400014024000000240D4
:1022B000000C024000100240000802401FB5184800
:1022C0001649002401605421C0E9011440F6B831D8
:1022D000C0E90314FFF703F920B14FF4B27111A064
:1022E00000F09FFD0E48FFF7CAFA20B140F26911D5
:1022F0000CA000F096FD0120CDE900400820CDE9BA
:102300000240002269460648FFF72AFA002804D056
:102310004FF4B97103A000F084FD1FBD001C004004
:10232000F00F00202E2E2F5372632F74696D2E63D1
:10233000000000000C4810B50A49016015214160F9
:1023400000214FF48062C0E902120161FFF7C7F873
:10235000002806D0BDE8104040F2811103A000F033
:1023600060BD10BD002000402C1000202E2E2F53E9
:1023700072632F74696D2E630000000010B526484B
:102380008AB02449016054210024C0E9011440F6B8
:10239000B831C0E90314FFF7A2F820B140F23911B7
:1023A0001EA000F03EFD4FF48050049004A91A488E
:1023B000FFF731F920B140F23F1118A000F031FDD4
:1023C0001548FFF75CFA20B14FF4A27113A000F09A
:1023D00028FD2020CDE9080408A90F48FFF757F889
:1023E00020B140F24B110DA000F01BFD0120CDE902
:1023F00000400820CDE90240002269460648FFF768
:10240000AFF9002804D04FF4AA7104A000F009FD30
:102410000AB010BD00040040B40F00202E2E2F5330
:1024200072632F74696D2E63000000000D4810B5B3
:102430000B4901604FF4E1314160002181600C22C1
:10244000C160C0E904128161C161FFF743FC00284B
:1024500005D0BDE810404D2103A000F0E2BC10BD46
:1024600000100140740400202E2E2F5372632F752C
:10247000736172742E6300000D4810B50B49016042
:102480004FF4E1314160002181600C22C160C0E95C
:1024900004128161C161FFF71DFC002805D0BDE871
:1024A0001040602103A000F0BCBC10BD00440040FF
:1024B000B40400202E2E2F5372632F757361727433
:1024C0002E6300000D4810B50B4901604FF4E13157
:1024D0004160002181600C22C160C0E90412816169
:1024E000C161FFF7F7FB002805D0BDE8104073215C
:1024F00003A000F096BC10BD00480040F40400208A
:102500002E2E2F5372632F75736172742E63000029
:10251000FEE770470907090E002806DA00F00F00F1
:1025200000F1E02080F8141D704700F1E02080F8F1
:10253000001470477047000010B5554C218855486D
:10254000891EFDF7FDFF534922880A4412F8022C28
:1025500082422ED1488864282ED00FDC012822D058
:10256000022824D0032870D108894B4948600846C6
:10257000FFF7B0FBF0B10121032050E065287BD0CC
:10258000C8287CD0C92860D1097A444800297CD069
:1025900001220121FEF7F4FBFDF726FEC920BDE86C
:1025A0001040FDF7C7BEFDF71FFE0120F7E7FDF75E
:1025B00087FF66E003205CE00A89394842608A7A36
:1025C000384B03EB820252F8042C0261CA7A403382
:1025D00003EB820252F8042C42610A7B203303EBA6
:1025E000820252F8042CC260897B2F48052910D240
:1025F000DFE801F0030618242C000022802106E009
:10260000012280210446FEF7BBFB002210E0FEF70A
:10261000B7FB2348FEF71EF848B301216420FDF7FD
:102620006BFE2EE0012280210446FEF7A9FB012269
:1026300008212046FEF7A4FB002212E0012280219F
:102640000446FEF79DFB002206E020E001228021E7
:102650000446FEF795FB012208212046FEF790FB79
:10266000012210212046D2E706E008E00DE0FFE756
:102670006420FDF75FFE04E0FDF762FE01E0FFF776
:10268000BBFCBDE81040FDF7AFBD002281E710BDE7
:102690001800002074050020B4040020001002403F
:1026A00030040020302F0008000C0240704710B5A5
:1026B000FEF772FBBDE81040FEF7E3BE30B52548DB
:1026C00093B00025016841F080510160006800F07E
:1026D000805011902048016841F4804101600068F9
:1026E000022400F480401190012000900004019029
:1026F0008001CDE9064008200890A820CDE9090412
:1027000004200B906846FEF70BFD00B1FEE70CA914
:102710000F2081E831004FF4A0500F904FF480500B
:10272000109005210CA8FEF7D7FB00B1FEE7FEF7DD
:1027300091FC4FF47A71B0FBF1F0FEF78EFE0420AD
:10274000FEF77EFE00221146501EFEF793FB13B0EB
:1027500030BD000040380240007000401048016861
:1027600041F4700101600F48016841F0010101600E
:102770000C4A00210832116002680B4B1A400260BB
:10278000031D0A4A1A60026822F48022026005488A
:102790000C3001600249580680390860704700001B
:1027A00088ED00E000380240FFFFF6FE1030002404
:1027B0000148FFF7D5B80000B40F00200148FFF72B
:1027C000CFB800002C1000200148FFF7C9B8000066
:1027D000F00F0020F0B50268234B244D244E254F06
:1027E000254C4FF0804C984209D0604507D0A84254
:1027F00005D0B04203D0B84201D0A04204D122F0AB
:10280000700E4A6842EA0E0298421BD0604519D009
:10281000A84217D0B04215D0B84213D0A04211D070
:10282000164DA8420ED0164DA8420BD0154DA84209
:1028300008D0154DA84205D0144DA84202D0144D21
:10284000A84203D122F44075CA682A4302608A680C
:10285000C2620A688262984201D0A04201D109692D
:10286000016301214161F0BD00000140000400400E
:1028700000080040000C00400004014000400140FE
:10288000004401400048014000180040001C004086
:102890000020004010B50123046A8B409C43046271
:1028A000036A8A401343036210BD10B5846842EA8C
:1028B000032224F47F440A432243826010BD8268CD
:1028C00022F070020A4342F007018160704710B5A0
:1028D000036A046A24F001040462846924F0F004A9
:1028E00044EA021423F00A020A438461026210BD22
:1028F00070B5046A24F0010404628469056A164E06
:10290000B04214D0B0F1804F11D0144EB0420ED06E
:10291000134EB0420BD0134EB04208D0124EB0420C
:1029200005D0124EB04202D0114EB04203D124F075
:102930000304144303E024F0030242F001041A07E5
:1029400024F0F00444EA126225F00A0301F00A01BF
:1029500019438261016270BD000001400004004023
:1029600000080040000C004000040140004001400D
:102970000018004010B5036A23F010030362836956
:10298000046A23F4704343EA023224F0A00343EACA
:1029900001118261016210BD30B5046A24F0100497
:1029A00004628469056A24F4407444EA022222F431
:1029B00070444FF6FF7202EA03322243A02425F04E
:1029C000A00304EA011119438261016230BD10B510
:1029D000806B0021C185C184FFF7F3F810BD016849
:1029E000CA6822F49072CA6001684A6922F0010242
:1029F0004A61202180F83A10704710B590F83A10DB
:102A0000222901D0022010BD8168B1F5805F11D06C
:102A10000169002901681FD0496801F07F03816ABC
:102A20004A1C82620B70C18D491E0904090CC185C4
:102A300018D026E00269816A002A0268526805D02F
:102A4000D2B20A80816A491C8162ECE7C2F30802B3
:102A50000A80816A891CF7E74A68816A4B1C836295
:102A60000A70E0E70168CA6822F49072CA600168DF
:102A70004A6922F001024A61202180F83A10FFF7EA
:102A800043FA002010BD00002DE9F0410446006823
:102A9000016921F44052E168114301612168C8686D
:102AA00049F20C6290432369A268E5691A4363699D
:102AB0002B431A430243CA602168486920F44072DC
:102AC000A06910434861E1696425B1F5004F97485A
:102AD000974A21684FF032083FD0914201D081429D
:102AE0007CD1FEF7D5FA00EBC00101EB0010616864
:102AF0008900B0FBF1F6FEF7CBFA00EBC00101EB69
:102B0000001061688900B0FBF1F0B0FBF5F06FF0E8
:102B10001801484306EB800108EB0110B0FBF5F00B
:102B200000F0F006FEF7B4FA00EBC00101EB001074
:102B300061688900B0FBF1F0B0FBF5F006EB001620
:102B4000FEF7A6FA00EBC00101EB001061688900F6
:102B5000B0FBF1F7FEF79CFAD2E0914201D081423E
:102B60003DD1FEF795FA00EBC00101EB0010616862
:102B70004900B0FBF1F0B0FBF5F00601FEF788FA72
:102B800000EBC00101EB001061684900B0FBF1F7F8
:102B9000FEF77EFA00EBC00101EB0010616849000E
:102BA000B0FBF1F0B0FBF5F06FF01801484307EB14
:102BB000800108EBC100B0FBF5F000F0F80006EB77
:102BC0004006FEF765FA00EBC00101EB00106168FA
:102BD0004900B0FBF1F7FEF75BFA3CE055E0FEF789
:102BE0003FFA00EBC00101EB001061684900B0FB47
:102BF000F1F0B0FBF5F00601FEF732FA00EBC00190
:102C000001EB001061684900B0FBF1F7FEF728FA0C
:102C100000EBC00101EB001061684900B0FBF1F06E
:102C2000B0FBF5F06FF01801484307EB800108EBAB
:102C3000C100B0FBF5F000F0F80006EB4006FEF72F
:102C40000FFA00EBC00101EB001061684900B0FB16
:102C5000F1F7FEF705FA00EBC00101EB0010616827
:102C60004900B0FBF1F0B0FBF5F06FF018014843FC
:102C700007EB800108EBC100B0FBF5F000F00700A6
:102C8000216830448860BDE8F081FEF7E9F900EB87
:102C9000C00101EB001061688900B0FBF1F6FEF79E
:102CA000DFF900EBC00101EB001061688900B0FBA7
:102CB000F1F0B0FBF5F06FF01801484306EB80012E
:102CC00008EB0110B0FBF5F000F0F006FEF7C8F9D4
:102CD00000EBC00101EB001061688900B0FBF1F06E
:102CE000B0FBF5F006EB0016FEF7BAF900EBC001F9
:102CF00001EB001061688900B0FBF1F7FEF7B0F955
:102D000000EBC00101EB001061688900B0FBF1F03D
:102D1000B0FBF5F06FF01801484307EB800108EBBA
:102D20000110B0FBF5F000F00F00A9E7001401401E
:102D30000010014090F83910212901D0022070477D
:102D40008168B1F5805F016A0BD04A1C026202689B
:102D500009785160C18C491E0904090CC1840ED048
:102D600017E009880268C1F3080151600169002970
:102D7000016A02D0491C0162ECE7891CFBE701688B
:102D8000CA6822F08002CA600068C16841F0400150
:102D9000C160002070472DE9F041984617460E4665
:102DA0000446069D1DE0681C1BD02DB1FDF7EEFF0B
:102DB000A0EB0800A84214D92068C16821F4D071A2
:102DC000C1602068416921F001014161202084F83F
:102DD000390084F83A00002084F838000320BDE868
:102DE000F0812068006836EA000004D00020B84274
:102DF000D9D00020F3E70120F9E700000148FEF7F1
:102E0000E1BE0000740400200148FEF7DBBE0000B4
:102E1000B40400200148FEF7D5BE0000F4040020F1
:102E2000FEE7FEE702E008C8121F08C1002AFAD137
:102E300070477047002001E001C1121F002AFBD13A
:102E400070470000FDF7B0FFFFF738FCFFF79AF975
:102E5000FFF7ECFAFFF736FBFFF70EFBFFF76AF917
:102E6000FFF72CFAFFF766FAFFF788FA254C0020E7
:102E70002070FDF7C9F9FDF789FFA06023482249BA
:102E800001631C3141632248016841F00401016083
:102E900020496FF00100096808612D20FDF7DEFF71
:102EA0001D48016841F0040101601C480068C168C8
:102EB00041F00101C1601A48016841F0040101605C
:102EC00018480068C16841F00101C160012216493B
:102ED0001648FEF7F5FF00B1FEE70A4E4FF4FA750B
:102EE00016F10406FDF752FFA168401AA84202D964
:102EF000FDF74CFFA0603068C007F3D0FFF71CFB64
:102F0000F0E700000C000020340500203004002011
:102F1000002000402C10002000040040B40F0020CE
:102F2000001C0040F00F0020080000207404002066
:102F3000000000000000010000000200000003008B
:102F4000000004000000050000000600000007006B
:102F5000000008000000090000000A0000000B004B
:102F600000000C0000000D0000000E0000000F002B
:102F700000000000000010000000200000003000F1
:102F800000004000000050000000600000007000E1
:102F9000000000000000000100000002000000032B
:102FA00000000000000000000102030406070809F9
:102FB0000000000001020304D82F000800000020D8
:102FC00030000000242E00080830000830000020E7
:102FD00038140000342E000800000000000000003B
:102FE00000000000000000000000000000000000E1
:102FF00000000000000000000000000000000000D1
:08300000000000000024F400B0
:040000050800018965
:00000001FF
