:020000040800F2
:10000000D8110020A1010008A3250008AD23000895
:10001000A1250008A50200087743000800000000A1
:10002000000000000000000000000000392C000863
:10003000390300080000000047280008B52C00081C
:10004000BB010008BB010008BB010008BB010008A0
:10005000BB010008BB010008BB010008BB01000890
:10006000BB010008BB010008BB010008BB01000880
:10007000BB010008BB010008BB010008BB01000870
:10008000BB010008BB010008BB0100080000000024
:10009000000000000000000000000000BB0100089C
:1000A000BB010008BB010008BB010008BB01000840
:1000B000BB0100080000000000000000BB010008B8
:1000C000BB010008BB010008BB010008BB01000820
:1000D000BB010008BB010008BB010008BB01000810
:1000E000BB010008BB010008000000000000000088
:1000F0000000000000000000000000000000000000
:1001000000000000000000000000000000000000EF
:100110000000000000000000BB010008000000001B
:10012000BB010008BB010008BB010008BB010008BF
:10013000BB010008000000000000000000000000FB
:10014000BB010008BB010008BB0100080543000813
:10015000BB010008BB010008BB010008BB0100088F
:10016000BB010008BB010008000000000000000007
:1001700000000000BB0100080000000000000000BB
:10018000BB010008BB010008BB010008DFF80CD070
:1001900000F03CF800480047E9440008D81100206E
:1001A0000648804706480047FEE7FEE7FEE7FEE711
:1001B000FEE7FEE7FEE7FEE7FEE7FEE72D2D00087F
:1001C0008D01000840EA01039B0703D009E008C93C
:1001D000121F08C0042AFAD203E011F8013B00F80C
:1001E000013B521EF9D27047D2B201E000F8012B58
:1001F000491EFBD270470022F6E710B513460A46A7
:1002000004461946FFF7F0FF204610BD064C074D87
:1002100006E0E06840F0010394E8070098471034D6
:10022000AC42F6D3FFF7B6FF604A0008804A0008E8
:1002300070B58C1810F8015B15F0070301D110F8A8
:10024000013B2A1106D110F8012B03E010F8016BD5
:1002500001F8016B5B1EF9D12B0705D40023521E58
:100260000DD401F8013BFAE710F8013BCB1A921CC0
:1002700003E013F8015B01F8015B521EF9D5A142BE
:10028000D8D3002070BD00B599B000200246694661
:100290000A54401C5F28FBD31E22A02002F05EFB04
:1002A00019B000BDFEE70020704700207047000035
:1002B000034810B5D0F8900203F0A2FB002010BD57
:1002C0007002002008B502228DF8000040428DF82F
:1002D000010069469E2002F041FB08BD08B50222DC
:1002E0008DF8000040428DF801006946A02002F020
:1002F00035FB08BD70B50E4C216821F0200121604E
:100300000A220C4902F0FAFA0A4D287A7F2803D90A
:10031000206820F0200009E00921064800F0E2FCF6
:10032000697A814203D1206840F02000206070BDCE
:100330001C0000200002002070477047124A117F05
:100340001248012901D003290BD1036843F400634B
:100350000360036823F400630360036843F40073DD
:100360000360022901D003290BD1016841F48051B7
:100370000160016821F480510160016841F48061ED
:100380000160002010777047F40000200020024038
:10039000C107054803D0416941F004014161416949
:1003A00041F4803141617047002002402DE9F04165
:1003B00005464CF2503716460C46384600F0DEF83B
:1003C000002822D11248E9070FD0426AA4F1006444
:1003D0006FF30D0242EAD4024262826AA6F100661D
:1003E0006FF30D0242EAD60282620446806A60F32D
:1003F0001E05A562606940F400306061384600F077
:10040000BDF8616921F400316161BDE8F08100004F
:10041000002002402DE9F041074600244CF25038FC
:100420000E462546404600F0A9F8002869D1F80795
:1004300003D006F4E0644FF4E065B80704D506F491
:100440008050044345F48055780704D506F40050E5
:10045000044345F40055F80404D506F480400443F1
:1004600045F48045380704D506F48030044345F44C
:100470008035F80604D506F40030044345F4003511
:10048000B80604D506F48020044345F48025780698
:1004900004D506F40020044345F40025B80504D52E
:1004A00006F40000044345F40005780504D506F081
:1004B0008070044345F08075380504D506F000705F
:1004C000044345F00075B80404D506F08060044389
:1004D00045F08065780404D506F00060044345F0DB
:1004E0000065094E306AA84320433062706940F4C9
:1004F00000307061404600F041F8716921F400312C
:100500007161BDE8F08100000020024008494A699D
:10051000C0B222F4FC7242EAC0004861486940F06F
:1005200002004861486940F480304861704700002B
:1005300000200240054910B54C6944F001044C61AB
:100540000260BFF36F8F436010BD000000200240C7
:10055000094A10B55469402344F480245461EFF3F0
:10056000108272B610C910C05B1E13F0FF03F9D1E0
:1005700082F3108810BD00000020024070B50546CF
:1005800000F07AFE0646184C08E0681C06D000F021
:1005900073FE801BA84201D3032070BD2069C043B5
:1005A000C003F2D5216911480140A06900F0004064
:1005B000084311D00E494A6802434A60810F04D0B3
:1005C000A16900F040421143A161810002D020F0F6
:1005D00040402061012070BD2069C043C00701D1A7
:1005E00001202061002070BD00200240FAC30200FB
:1005F000F40000202DE9F0471E460B4617468146C1
:1006000008221A491846DDF8208002F077F9174CC5
:10061000EEB1E7B116490020C0F10702A25C0A540E
:10062000401CC0B20828F7D3002504E0384601F08A
:10063000BEFE6D1CEDB2B542F8D30E490020C0F1EC
:1006400007030A5C401CC0B2E2540828F7D384F8C0
:1006500008800921054800F045FB60724846BDE866
:10066000F0470A22014902F079B900000002002097
:10067000050000200D0000202DE9F04108221F494F
:10068000692002F03BF908241D491E4E1B4D6927C5
:10069000601EC2B2AA5CFF2A10D094B1012C17D000
:1006A000A01EC0B22A5CFF2A17D00A7069303070D1
:1006B00004F16800C0B202F005F914E010F0FF0484
:1006C000E6D1002008700146692002F031F901E00E
:1006D000287808703770BDE8F081601EC0B22A5CCF
:1006E0000A7069303070082CF5D12878FF28F2D0D4
:1006F000BDE8F041692002F0E5B8000000020020EA
:1007000043000020320000202DE9F05F55480068CA
:10071000C0076ED0002002F0E3F853498009082298
:1007200008705249012002F0E9F8042250490920DA
:1007300002F0E4F8FFF7A0FF022000F01FF901200B
:1007400000F01CF9002000F019F94A4FDFF828A149
:100750004A4C38784A4DDFF82C81DFF82C9110F0A4
:10076000030647D006EB8600D02101EB4000C0B263
:100770008346FFF7BFFD4549207A0968890604D5FD
:10078000617A11B13978884245D09AF80000082280
:100790003A4902F0B3F800204FEA0801C0F107021D
:1007A000A25C0A54401CC0B20828F7D3304603F0BC
:1007B00015FE00204946C0F107030A5C401CC0B288
:1007C000E2540828F7D33878207209212B4800F02A
:1007D00089FA60720A222949584602F0BFF80020BF
:1007E000C0F10701615C2954401CC0B20828F7D34E
:1007F0001AE035E09AF800000822204902F07EF85D
:100800005FF00000C0F10701615C2954401CC0B2D8
:100810000828F7D308E00020C0F10701615C2954E3
:10082000401CC0B20828F7D3002041462A5C0A5475
:10083000401CC0B20828F9D303F0F4FD144A00208C
:1008400049460B5C1354401CC0B20828F9D33878D1
:1008500000F003009030C0B202F042F80D49087079
:1008600000F01AB8240000205000002048000020AA
:100870004400002043000020290000200002002046
:1008800033000020050000200D0000201C00002087
:100890003B0000202800002030BCBDE8C09F0000C5
:1008A00070B5022232499E2002F028F8304D297896
:1008B00068780844C0B201B158B12120FFF702FDA9
:1008C00002222B499E2002F019F828786978084402
:1008D000C0B2284C216821F001012160216821F07B
:1008E00002012160D0BB2878234A00F07F011170FB
:1008F00001F0EE0104290BD0206820F001002060F7
:10090000206820F002002060206820F004002DE024
:10091000216841F001012160C00603D5206840F044
:100920000200206002221249A02001F0E7FF29788E
:1009300068780844C0B201B158B12120FFF7CEFC5D
:1009400002220B49A02001F0D9FF287869780844D9
:10095000C0B2216821F00401216008B103F01CFD40
:100960002878152803D1206840F00400206070BD6D
:100970000002002024000020510000202DE9F84F43
:10098000040035D0012C05D0022C42D12D2637256C
:100990002F2002E041264B251F2083463046FFF7DB
:1009A000A9FCDFF81883DFF8189398F80870D9F8D5
:1009B0000000800600D4FF272846FFF79BFCBF48B5
:1009C000D9F80010007A890600D4FF20DFF8F492ED
:1009D000FF22DFF8F482DFF8F4A209F80420FF2FE9
:1009E0003BD0FF2852D014B3874214D920B10AE07B
:1009F00055265F250020D0E75F4504D109F8045053
:100A000008F8046010E009F8046008F804500AF8D7
:100A1000047000F05FB9002FF0D15845EED109F80D
:100A2000046008F8045000200AF80400F1E7A8491F
:100A3000097801F0FC018F4206D189F8006088F83E
:100A400000508AF80070E4E7884269D189F80050C4
:100A500088F800608AF80000DBE7FF2805D009F875
:100A6000045008F804600AF8040059D0ACB3012C13
:100A700028D0022CCDD19AF802000028C9D0401EFF
:100A8000C3B2242B09D32422252112E009F80460E3
:100A900008F804500AF80470E8E7182B02D318226B
:100AA0001D2106E00C2B02D30C22152101E00022AF
:100AB0000D219A1AC0B2D3B2009098F802004FF4F8
:100AC00080522AE09AF8010040B1401EC3B2009360
:100AD00099F8021098F8010096E00AE09AF80200EE
:100AE000AAE01F20009098F8021098F801001F2338
:100AF0008AE09AF80000514648B1001FC1B2009147
:100B000082B299F8011098F80000012305E04878B6
:100B100000287BD19AF80200C4E0FFF76BFD78E76C
:100B200006F1080001F0DCFE074605F1080001F0BF
:100B3000D7FE874206D209F8046008F804500AF884
:100B4000047005E009F8045008F804600AF804008D
:100B5000F4B3012C43D0022CE1D19AF802005446A0
:100B600030B1401EC3B2242B17D32422252120E00C
:100B7000082252490D2001F0C1FE504C00200921ED
:100B80002072204600F0AEF8607299F8020021460B
:100B900000F0A3B80A2201F0E1BE182B02D31822FC
:100BA0001D2106E00C2B02D30C22152101E00022AE
:100BB0000D219A1AC0B2D3B200904FF48056454628
:100BC00098F802003246FFF715FDA078009000E08B
:100BD00036E0A97899F80200012332469DE79AF899
:100BE0000100544698B1401EC3B200934D4699F897
:100BF0000210464698F801008022FFF7FBFC60785F
:100C00000090717868780123802286E74CE04D4699
:100C100099F802000822294901F070FE274E0020B1
:100C200009213072304600F05DF8707268780A224F
:100C3000314601F093FEA07800283FF4F7AE50E76C
:100C400023485446007810F0FC008AF8000013D0C6
:100C5000001FC1B2009182B24D4699F8011046467C
:100C600098F800000123FFF7C5FC207800900123CD
:100C700031782878042250E7607808220F4901F083
:100C80003DFE0E4D002009212872284600F02AF86A
:100C9000687299F800000A22294601F05FFE607828
:100CA00010B9A0780028C8D07C200090012398F8C3
:100CB000011098F800007C222FE7000000020020BD
:100CC0001C000020290000202C0000202F00002004
:100CD0004300002018BCBDE8E08F18BCBDE8E04F21
:100CE000FFF758BF10B503460078012203E09C5C73
:100CF0006040521CD2B28A42F9D310BD70B504468E
:100D000000F0BAFA0546601C02D00448406804446A
:100D100000F0B2FA401BA042FAD370BDE8000020F8
:100D20002DE9F05F054633488946017801290CD04A
:100D30000127804607704CF2503B5846FFF71EFCD7
:100D400006004FF0000A03D04FE0022000F056B832
:100D500051464046C8F804A0274C226892050ED59B
:100D6000216821F4007121602168490505D52168B9
:100D700021F480612160032109E0077708E02268FF
:100D8000520504D5216821F4806121600221017798
:100D90002868012805D04FF0FF31C9F80010AF686E
:100DA0001CE06868FFF7F4FA5846FFF7E7FB0646D1
:100DB000606920F00400606115E038466968FFF75B
:100DC000A5FB5846FFF7DAFB0600606920F4FD70CA
:100DD000606102D0C9F8007005E07F1CD5E902010E
:100DE0000844B842E9D8FFF7A9FA88F800A03046CD
:100DF000ACE70000F40000200020024030BCBDE859
:100E0000C09F000006210160224942680AB1012A00
:100E100013D10723036012B1012A06D00DE0CA6A7C
:100E200002F03F028260CA6A04E00A6B02F03F02ED
:100E300082600A6BC2F30542C2600A6AD2B2AA2A71
:100E400003D0CC2A01D0BB2201E00A6AD2B20261EF
:100E50000A6A22F0FF028261C269012A18D102687F
:100E600042F0080202604B6A4FF00062C3F30D03C8
:100E700002EBC30303628B6AC3F30D0302EBC302ED
:100E8000D21D4262896A01F0004141F00101C16155
:100E900070470000002002402DE9F05F0446404802
:100EA00000260178012914D0012101700021824619
:100EB00041602078DFF8EC90C0074CF2503B35D011
:100EC000D4E902755846D4F80480FFF757FB18B1EF
:100ED0002BE0022000F068B8B8F1000F03D0B8F1A1
:100EE000010F0AD012E0D9F82C1047EA054221F090
:100EF0003F111143C9F82C1008E0D9F8301047EA27
:100F0000054221F03F111143C9F83010D9F81400FF
:100F10004D4640F40030C9F814005846FFF72EFB48
:100F2000696921F40031696100B1012620788007E8
:100F30001BD558462769FFF721FBA8B9D9F820002F
:100F40004D4620F0FF003843C9F82000D9F81400BE
:100F500040F40030C9F814005846FFF70FFB6969E8
:100F600021F40031696100B101262078400705D5E0
:100F7000D4E90501FFF74EFA00B1012620780007F9
:100F800008D5D4E90812914204D0E069FFF70EFABF
:100F900000B1012600208AF8000030469AE70000E0
:100FA000F40000200020024030BCBDE8C09F0000DB
:100FB0000348416941F00041416100207047000051
:100FC000002002400348416941F080414161002016
:100FD000704700000020024005484169490005D5DE
:100FE0000449C1600449C160002070470120704776
:100FF000002002403B2A19087F6E5D4C2DE9FF5FFF
:10100000254C0646904620789A4601280BD00120B0
:1010100020704CF2503B5846FFF7B0FA07004FF0F3
:10102000000904D02AE0022004B000F039B8484694
:10103000C4F80490194D2968490504D5286820F49E
:10104000806028600220207726B1012E09D0022E70
:1010500007D00CE0424653460198FFF76BFA012691
:1010600012E041460198FFF773FA022E0AD0584663
:10107000FFF784FA4FEA0007FFF760F984F8009061
:101080003846D1E74FF480265846FFF777FA0746EF
:101090006869B0436861EFE7F40000200020024077
:1010A00030BCBDE8C09F0000064900204A69002A04
:1010B00007DA054A8A60054A8A604969002900DA28
:1010C000012070470020024023016745AB89EFCD26
:1010D0002DE9F84FDFF860B100234FF0010C4FF01D
:1010E000030A4FF00F090BF1040E9DE00CFA03F612
:1010F000344022007ED04C68022C01D0122C0ED13C
:10110000DC0800EB8408D8F820405D07EF0E09FAF0
:1011100007F5AC430D69BD402543C8F8205007686A
:101120005D0091F804800AFA05F408F00308A7436B
:1011300008FA05F848EA0708C0F800804F68012F50
:1011400005D0022F03D0112F01D0122F11D18768A3
:10115000D1F80C80A74308FA05F848EA0708C0F858
:1011600008804768B7430E79C6F300169E403E4399
:101170004660C668A6438C68AC403443C4604C6883
:10118000E40050D52D4C256E45F001052566246EF2
:1011900023F0030504F001040094294C2E19B468CF
:1011A0009D072F0F09FA07F5AC43B0F1904F04D01B
:1011B000244DA84203D101250CE000250AE0224D70
:1011C000A84201D1022505E0204DA84201D1032506
:1011D00000E00725BD402543B560DBF800405D46D3
:1011E0004E689443F60300D514432C607546DEF830
:1011F000004000E017E04E689443B60300D5144366
:101200002C600D4D08352C684E689443F60200D5CD
:1012100014432C60084D0C352C684E689443B6027C
:1012200000D514432C605B1C0A681446DA407FF436
:101230005DAF00F00DB80000000401400010024056
:10124000000001400004004800080048000C00486D
:1012500018BCBDE8E08F0069084000D0012070474D
:1012600042690A4201D081627047816170470AB1C8
:101270008161704781627047014880687047000053
:10128000E80000200248816842681144816070478C
:10129000E800002010B50024032000F071F80020C1
:1012A00000F008F808B1012401E000F025F820461C
:1012B00010BD000070B50E4E05460024706898B150
:1012C0004FF47A71B1FBF0F00A490968B1FBF0F014
:1012D00001F058F840B9102D06D200222946501EC0
:1012E00000F02EF8356000E00124204670BD0000BB
:1012F000E800002014010020094808B5016E41F003
:1013000001010166016E01F001010091816D41F062
:1013100080518165806D00F08050009008BD000014
:1013200000100240002809DB00F01F02012191405B
:101330004009800000F1E020C0F800117047000073
:10134000F0B40E4B1B680C46C3F30223C3F1070530
:10135000042D00D90425191D072901D2002300E01E
:10136000DB1E012606FA05F1491E214099409E40E8
:10137000761E16403143F0BC02F0FEBF0CED00E0DB
:10138000064900F0070208684FF6FF03184040EADC
:101390000220034A10430860704700000CED00E093
:1013A0000000FA0501220168C0F86822002280F8D6
:1013B000602231F8540F40F001000880088840F0A6
:1013C000020008801046704770B50F4D044669B1A1
:1013D00001290AD1D4F8700202F02DF9A069002881
:1013E00003D0286840F00600286070BDA06928B1CD
:1013F00001F062FC286820F006002860D4F8700232
:10140000BDE8704002F0A5B810ED00E010B50C0684
:1014100005D501F0070100EB4110283003E000EB97
:10142000411000F5947099B232B10122027301812A
:10143000190C4181002010BD00220273C180F9E720
:1014400000EB4112D0F87002D26B01F049BF00EB03
:101450004112D0F87002D2F83C2101F0A4BF70B55F
:1014600004460B0601F0070004EB40114FF00102A7
:101470004FF0000503D581F82920283103E081F8D9
:10148000295101F59471087094F82802012808D0B8
:1014900084F82822206802F068FD84F82852002091
:1014A00070BD022070BD70B5044601F00F00626887
:1014B000904201D9012070BD0B0601F0070004EB3A
:1014C00040114FF001024FF0000503D581F82920AB
:1014D000283103E081F8295101F594718D7008706D
:1014E00094F82802012808D084F82822206802F005
:1014F000EAFD84F82852002070BD022070BD2DE95D
:10150000F04104460F0601F0070004EB40114FF0D4
:1015100001064FF0000503D581F82960283103E06A
:1015200081F8295101F5947108700A61CB704A78ED
:1015300002B1C881022B00D10D7194F82802012854
:1015400009D084F82862206802F0DDFB284684F880
:101550002852BDE8F0810220FBE770B50C4601F08F
:10156000070500EB4511C1E94F230022C1F84421D2
:1015700081F8292181F8285101F5947162070068EA
:1015800002F0F6FD002070BD70B504460D4601F076
:1015900007006168884201D9012070BD29064FF01B
:1015A00000064FF0010205D504EB401181F8292017
:1015B000283105E004EB451181F8296101F59471AA
:1015C0008A70087094F82802012807D084F828222D
:1015D000206802F0B4FD680702D006E0022070BD6A
:1015E00004F50C71206802F06CFD84F8286200207C
:1015F00070BD70B50C4601F0070500EB4511C1E95F
:101600000F2300224A64012281F8292001F8285F73
:101610006207006802F0ACFD002070BD10B5044602
:10162000006802F075FE000402D5204600F0BAFF03
:10163000206802F06DFE40050CD5206830F8441F8C
:1016400021F480610180204600F050F900212046FD
:1016500000F078F9206802F05BFE400405D52068B0
:1016600030F8441F21F480410180206802F050FED0
:10167000800405D5206830F8441F21F40051018012
:10168000206802F045FEC0041FD5206830F8401FD6
:1016900021F004010180206830F8401F21F008018A
:1016A000018094F86002012806D1002084F86002CD
:1016B00001462046FFF788FE204600F02BF92068FF
:1016C00030F8441F21F480510180206802F020FE90
:1016D00000051AD5206830F8401F41F0080101804C
:1016E000206830F8441F21F400610180206830F840
:1016F000401F41F004010180206802F009FEC04350
:10170000C00402D5204600F04DF9206802F000FE2A
:1017100000060BD5206830F8441F21F080010180BD
:1017200094F86002E0B1204600F03CF9206802F035
:10173000EFFD800508D5206830F8441F21F40071C2
:101740000180204600F0FAF8206802F0E1FDC005B3
:1017500005D5206830F8441F21F48071018010BD48
:10176000206830F8401F41F004010180206830F803
:10177000401F41F008010180012084F860022068C8
:10178000B0F854003C2101EA9000C4F86402012141
:101790002046FFF719FEC9E72DE9F04186B00400A5
:1017A00004D094F82902002520B108E0012006B0F9
:1017B000BDE8F08184F82852204600F05DF803204F
:1017C00084F82902206802F074FC04F1100114224C
:1017D00088466846FEF7F6FC94E80F0002F0C3FB6B
:1017E0000227B0BB0021206802F0A9FD00200126DD
:1017F0000DE000BF04EB401181F8296001F8280FCB
:10180000C881CD700D614D61401CC0B28D616168B1
:101810008142EFD800200FE004EB401181F82951FC
:1018200081F8280181F82B51C1F83851C1F83C5199
:10183000401CC0B2C1F8405161688142ECD814220A
:1018400041466846FEF7BEFC94E80F0002F022FC19
:1018500010B184F82972A9E784F8245084F8296229
:10186000E069012802D12046FFF79CFD206802F0C4
:101870000AFC00209BE7000010B586B00446142146
:101880006846FEF7B8FC17492068884228D1164CF4
:10189000E06C40F00100E064E06C694600F001009B
:1018A00005904FF4C050009002200190002002905B
:1018B000032003900A2004904FF09040FFF708FCAB
:1018C000A06D40F08060A065A06D002200F08060F7
:1018D000059001214320FFF733FD4320FFF722FD50
:1018E00006B010BD006800400010024070B504460C
:1018F00080680125022801D0FEF71FFD2946D4F893
:10190000700201F038FED4F87002BDE8704001F0BA
:10191000F8BD000010B50446806930B10648016882
:1019200021F00601016001F0C7F9D4F87002BDE8AA
:10193000104001F00EBE000010ED00E0D0F8700283
:1019400001F00DBE10B5044690F8280201280BD016
:10195000012084F8280284F82410206802F0F1FCA9
:10196000002084F8280210BD022010BDD0F870229B
:1019700000F50C71104601F011BE10B5044690F848
:10198000280201280CD0012084F82802206802F0E7
:1019900073FB206802F0ADFC002084F8280210BD23
:1019A000022010BD10B50446D0F8700201F043FECD
:1019B000A069002804D00348016841F006010160D5
:1019C00010BD000010ED00E01649B0F5007F08687A
:1019D000C0F3412009D0022805D0086820F4C06077
:1019E00040F480600860002070470128FBD0086840
:1019F00020F4C06040F4007008600B483222006898
:101A000050430A4AB0FBF2F0401C00E0401E4A6915
:101A1000520501D50028F9D148694005E3D50320D6
:101A200070470000007000401401002040420F0089
:101A30000248416841F48061416070470070004095
:101A40000248006800F4C060704700000070004069
:101A50002DE9F843044600680026774D80035ED5E3
:101A6000A86D0027C00008D4A86D40F08050A8657C
:101A7000A86D012700F080500090DFF8C091D9F8E0
:101A8000001041F48071C9F80010FFF7F5FB8046A3
:101A900006E000BFFFF7F0FBA0EB080002282BD800
:101AA000D9F80000C005F5D5D5F8900010F44070C5
:101AB00014D0216B814211D0D5F89000D5F8901048
:101AC00020F4407041F48031C5F89010D5F89010A2
:101AD00021F48031C5F89010C5F89000C00711D0EE
:101AE000FFF7CAFB804641F2883907E0FFF7C4FBE5
:101AF000A0EB0801494501D903260BE0D5F8900079
:101B00008007F3D5D5F89000216B20F4407008438E
:101B1000C5F890001FB1A86D20F08050A86520780E
:101B2000C00707D0D5F88800616820F0030008439B
:101B3000C5F888002078800707D5D5F88800A16807
:101B400020F00C000843C5F888002078400707D52E
:101B5000D5F88800E16820F030000843C5F8880017
:101B60002078800607D5D5F88800216920F44060E8
:101B70000843C5F888002088800507D5D5F8880077
:101B8000216A20F440200843C5F8880020884005D9
:101B900007D5D5F88800616A20F440100843C5F8DD
:101BA00088002078400607D5D5F88800616920F4C0
:101BB00040500843C5F888002078000607D5D5F8BE
:101BC0008800A16920F440400843C5F888002088B7
:101BD000C00507D5D5F88800E16920F440300843F6
:101BE000C5F8880020884FF0006180040ED5D5F834
:101BF0008800A26A20F040601043C5F88800A06AFF
:101C0000884203D1E86840F48010E860206840030F
:101C10000ED5D5F88800E26A20F040601043C5F880
:101C20008800E06A884203D1E86840F48010E860E8
:101C30003046BDE8F883000000100240007000400C
:101C40002DE9F0470F46050058D0404E306800F0AF
:101C50000700B84209D2306820F0070038433060EE
:101C6000306800F00700B84248D12878384CC007E7
:101C70002CD06868032811D0022812D0216898B1AE
:101C8000490500293ADAA16821F003010143A16066
:101C9000FFF7F2FA804641F2883910E021688901A5
:101CA000EFE721688903ECE78907EAE7FFF7E4FA41
:101CB000A0EB0801494502D90320BDE8F087A068E0
:101CC000696800F00C00B0EB810FEFD12878800735
:101CD00005D5A068A96820F0F0000843A06030682E
:101CE00000F00700B8420BD9306820F007003843F5
:101CF0003060306800F00700B84201D00120DCE716
:101D00002878400705D5A068E96820F4E06008431A
:101D1000A0602878000706D5A068296920F46050E3
:101D200040EAC100A06000F01BF8A168094AC1F3B5
:101D30000311515C01F01F01C840074908600748C2
:101D40000068BDE8F047FFF7B5BA00000020024088
:101D500000100240204A000814010020E800002082
:101D600070B52549002318468A68CC6812F00C0229
:101D700004F00306214C4FEA640509D00C2A05D073
:101D8000042A32D0082A00D1284670BD012E10D175
:101D90000B681B0704D4D1F89430C3F3032302E08B
:101DA0000B68C3F30313164E56F82330DAB10C2A2E
:101DB000EBD1C86800F00300022818D0032818D01F
:101DC0001846CA68CB68C2F30212C3F30623434322
:101DD000521CB3FBF2F2C868C0F34160401C4000E3
:101DE000B2FBF0F070BD184670BD204670BD2046B5
:101DF000E7E72846E5E70000001002400024F40071
:101E0000304A00082DE9F84304007CD0FE4DA86854
:101E100000F00C06E86800F003072078C00662D5E1
:101E200076B10C2E01D1012F0AD0E0690028286874
:101E300078D040F001002860FFF71EFA804659E094
:101E40002868800702D5E0690028DED0606A29682A
:101E5000090703D5296801F0F00104E0D5F89410D2
:101E6000F02202EA1111884215D900F0EDFC002899
:101E700049D1286840F0080028602868616A20F08D
:101E8000F000084328606868216A20F47F4040EA37
:101E90000120686015E0286840F008002860286884
:101EA000616A20F0F000084328606868216A20F425
:101EB0007F4040EA01206860606A00F0C5FC0028AD
:101EC000D6D1FFF74DFFA968D04AC1F30311515C89
:101ED00001F01F01C840CE490860CE480068FFF7F6
:101EE000E9F900287ED12EE0FFF7C6F9A0EB080043
:101EF000022878D828688007F6D5286840F00800BE
:101F00002860286801E0B5E00CE0616A20F0F0008C
:101F1000084328606868216A20F47F4040EA012075
:101F2000686010E020F001002860FFF7A5F9804606
:101F300006E000BFFFF7A0F9A0EB08000228D8D800
:101F400028688007F6D42078C00740D0082E18D023
:101F50000C2E01D1032F14D06068B0F5803F17D04C
:101F6000B0F5A02F286817D020F4803028602868AA
:101F700020F4802028606068E0B1FFF77DF980469A
:101F800014E02868800322D56068002872D01EE023
:101F9000286840F48030EDE740F480202860F7E7BF
:101FA000FFF76AF9A0EB08006428A2D8286880032C
:101FB000F6D50CE0FFF760F9804605E0FFF75CF925
:101FC000A0EB0800642894D828688003F6D4207811
:101FD00080073BD5042E11D00C2E01D1022F0DD03D
:101FE000E06801E09AE1EAE0002828681ED040F4A9
:101FF00080702860FFF740F907460CE0286840052C
:102000000CD5E0680028C1D008E000BFFFF734F924
:10201000C01B022893D828684005F7D56868217C42
:1020200020F0FE4040EA016068600FE020F480701C
:102030002860FFF721F9074605E000BFFFF71CF90C
:10204000C01B0228B1D828684005F7D420780007C3
:1020500053D560690028D5F894003DD0A16900F0FF
:102060001002914223D081074FEAC07003D50028A7
:102070008CD001E080E190B1D5F8940020F001000F
:10208000C5F89400FFF7F8F8074604E0FFF7F4F806
:10209000C01B112889D8D5F894008007F6D4D5F84C
:1020A0009400A16920F010000843C5F89400D5F809
:1020B000940040F00100C5F89400FFF7DDF80746F2
:1020C00005E000BFFFF7D8F8C01B112877D8D5F876
:1020D00094008007F6D510E020F00100C5F89400C8
:1020E000FFF7CAF8074604E0FFF7C6F8C01B11283F
:1020F00065D8D5F894008007F6D42078400778D5C5
:10210000A86D0027C00008D4A86D40F08050A865D5
:10211000A86D012700F0805000903F480168C90574
:1021200012D40168814641F480710160FFF7A4F880
:10213000804605E0FFF7A0F8A0EB080002283ED893
:10214000D9F80000C005F5D5A068C10720D0D5F8A2
:10215000901000F0800021F080010143C5F890103C
:10216000207A400705D5D5F8900040F00400C5F866
:102170009000D5F8900040F0010000BFC5F8900035
:10218000A06841F28839D8B1FFF776F8804611E0AF
:10219000D5F8900020F00100C5F89000D5F8900027
:1021A00020F00400EAE700BFFFF766F8A0EB0801A3
:1021B000494504D8D5F890008007F5D514E087E0AC
:1021C000FFF75AF8804605E0FFF756F8A0EB080144
:1021D00049457DD8D5F890008007F5D4D5F8900012
:1021E00020F08000C5F890001FB1A86D20F080504D
:1021F000A8652078800632D5A06A0028D5F8980016
:102200001CD040F0010009E000100240204A000804
:1022100014010020E800002000700040C5F898007C
:10222000FFF72AF8074604E0FFF726F8C01B02284C
:1022300073D8D5F898008007F6D510E020F001009B
:10224000C5F89800FFF718F8074604E0FFF714F800
:10225000C01B022861D8D5F898008007F6D4E06A40
:10226000B8B30C2E60D00228286820F08070286057
:102270000BD0E86820F00300E860E86820F0887080
:10228000E860FEF7F9FF04464AE0FEF7F5FF064670
:1022900005E000BFFEF7F0FF801B02283DD828684C
:1022A0008001F7D4D4E90C016FF00F0202EB0111A9
:1022B0000843A18F5204490802EB4151A26B41EA45
:1022C0000221084394F840104FF07E42490801E093
:1022D00023E053E002EB41610843E968284A1140DA
:1022E0000843E860286840F080702860E86840F0A3
:1022F0008070E860FEF7C0FF044604E0FEF7BCFF14
:10230000001B022809D828688001F7D536E000BFF5
:10231000FEF7B2FF001B022802D90320BDE8F883B4
:1023200028688001F4D429E00128F7D0E868226BFE
:1023300000F0030191421FD1616B00F070020901AE
:102340001039914218D1A26B00F4FE41B1EB022F7B
:1023500012D1A18F00F4C00249084905A1F500116E
:10236000914209D194F8401000F0C0604908490634
:10237000A1F10071814201D00120CFE70020CDE71B
:102380008C809FF910B5401EB0F1807F01D30120F1
:1023900010BD4FF0E02460610F21601701F0ECFFE9
:1023A0000020A06107202061002010BDFEE770B56D
:1023B0000546002403E0042002F010F8241DAC427E
:1023C000F9D370BDF0B500230A24302537261F4607
:1023D00011E000BFB4EB107F02D905EB107C01E0E7
:1023E00006EB107C01F813C001EB430C00015B1CF1
:1023F0008CF80170DBB29342ECD3F0BD2DE9F047CD
:1024000086B014216846FDF7F6FE4C48C16C41F0D9
:102410000401C164C16C01F004010591C16C41F07B
:102420008001C164C16C01F080010591C16C41F073
:102430000101C164C16C01F001010591C16C41F061
:102440000201C164C06C4FF0904900F00200059099
:10245000012210214846FEF70AFF0022C02148460B
:10246000FEF705FFDFF8D8A0002201215046FEF755
:10247000FEFE4FF48048012241465046FEF7F7FE2B
:102480004FF420400326CDE900062E4D0024694676
:1024900002942846FEF71CFE0227CDF80080CDE905
:1024A000014769462846FEF713FE0B20CDE90006DA
:1024B000694602942448FEF70BFE48F20F70CDE9FE
:1024C0000006694602944846FEF702FE502000903E
:1024D0000125CDE90154694648460394FEF7F8FD0D
:1024E0002020CDE90004694648460294FEF7F0FD3D
:1024F0008020CDE90005CDE9024769464846FEF750
:10250000E7FD03970095CDE9015469465046FEF773
:10251000DFFD4BF6FE70CDE9000669460294504699
:10252000FEF7D6FDCDF80080CDE90154694650464E
:102530000394FEF7CDFD06B0BDE8F0870010024021
:102540000004004800080048001C004810B50022A4
:102550000F49104800F08FFE08B1FDF7EEFE0E495E
:102560000C4801F095F808B1FDF7E7FE0B49094862
:1025700000F086FC08B1FDF7E0FE064801F0DEF849
:10258000002803D0BDE81040FDF7D7BE10BD000005
:1025900054000020700200201C010020D800002000
:1025A000FEE770472DE9F05F044640F68F7B48F662
:1025B0000F7A40F2024937E1B0F8441011F00F06EB
:1025C00027D030F82670390473D530F8261001EA88
:1025D0000B0141F0800120F8261004EB461595F818
:1025E000340105F59475002820687DD0297830F8ED
:1025F00021205204B0F8502002EB000375D509EBFE
:10260000C101595AC1F309015FEA01086ED02A8954
:10261000C2E0C9062BD4018801EA0A0141F4004155
:102620000180206804F12805B0F850102A78014490
:1026300009EBC200085AC0F309006064E16B08446A
:10264000E06300212046FEF7FBFE94F824000028FA
:10265000B1D0A8690028AED194F8240040F08001E0
:102660002068A0F84C10002084F82400DCE00188E9
:1026700004F594750A051DD5B0F850102A78014468
:1026800040F2064000EBC200085A04F50C71C0F39A
:102690000903EB61EA88206801F03DFE21680888A3
:1026A00000EA0B0040F0800008802046FFF75EF94A
:1026B000BAE097E0090443D5018801EA0B0141F033
:1026C000800101802068B0F850102A78014440F25F
:1026D000064000EBC200085A83059B0DEB6111D048
:1026E000696979B1EA8802E037E04AE058E0206899
:1026F00001F011FEE969686908446861002120461B
:10270000FEF7A5FE2068B0F850100844296900F2D1
:102710000640B1B13E291AD24A08C90700D0521C5E
:102720004FF6FF7101EA82210180216808884BF68B
:102730008F72104080F4405048F2800210430880AD
:1027400072E0018821F4F84141F40041ECE74909C5
:102750004FF4004242EA8121E6E7B0F850102B78AE
:10276000014440F2064202EBC302895AC1F3090157
:102770005FEA010820D0EA884346696901F0CBFD91
:102780001AE040F2064202EBC101595AC1F30901B5
:102790005FEA010804D06A894346696901F0BBFD1C
:1027A0002978226832F8210048F68F73184048F2E1
:1027B000C003184322F82100E96901EB0800E86131
:1027C000686900EB08026A61AB6913B1286940458A
:1027D00004D929782046FEF73AFE03E029782046FE
:1027E000FEF7BBFE38061FD5226804EB461032F810
:1027F000261001EA0A0141F4004122F8261021685E
:10280000B1F85020531810F8282F09EBC201595A7B
:10281000C1F30901C16142690A44426101788369D7
:10282000204653B1FEF7E5FE2068B0F844100904D5
:102830003FF5C2AE002000F003B8FEF701FEF3E75B
:1028400030BCBDE8C09F7047F8B51C4D064600245B
:10285000A86DC00002D5FFF7F3F80DE0A86D40F0B9
:102860008050A865A86D00F080500090FFF7E8F850
:10287000A96D21F08051A965B0F5007F04D0802EAC
:1028800007D94FF003040AE0802E08D9A02E01D802
:1028900004E001D1022402E0702E00D10124084896
:1028A000016821F0070121430160006800F0070082
:1028B000A04201D00120F8BD0020F8BD0010024068
:1028C0000020024010B5044600F00AF8FF2801D0AD
:1028D000FF2100E000212046BDE8104000F028B8AC
:1028E00010B5044680B200F0A9F8034A04F00F01C5
:1028F000515C484010BD00002002002070B5144615
:1029000006460D4692B280B200F050F80023074907
:1029100008E0F01800F00F00EA5C085C4240EA545E
:102920005B1CDBB2A342F4D370BD00002002002088
:1029300010B50A46074B00F00F01074C595C514097
:10294000226842F01002226080B200F0FBF820689A
:1029500010BD0000200200201C000020F0B585B052
:1029600000236D460C4E08E0C41804F00F04CF5C41
:10297000345D6740EF545B1CDBB29342F4D3074CE9
:10298000216841F01001216092B280B2294600F026
:1029900095F8206805B0F0BD200200201C00002042
:1029A000012240214FF09040FEF761BC2DE9F0413B
:1029B00015460E460446204F00F066F83878C007EA
:1029C000FAD14FF09047002240213846FEF74FFCE5
:1029D000032000F03BF9200A00F038F9E0B200F0E3
:1029E00035F90AE06D1EADB2002000F02FF9641C2D
:1029F00006F8010BA4B2E00608D0002DF2D138464B
:102A0000BDE8F04101224021FEF731BC002DF6D097
:102A1000012240213846FEF72AFC00224021384698
:102A2000FEF725FC032000F011F9200A00F00EF952
:102A3000E0B200F00BF9D5E71800002070B5114D99
:102A4000044600BF00F020F82878C007FAD14FF004
:102A50009045002240212846FEF709FC032000F0A3
:102A6000F5F8200A00F0F2F8E0B200F0EFF80020EC
:102A700000F0ECF80446012240212846FEF7F7FB5F
:102A8000204670BD1800002010B54FF09044002281
:102A900040212046FEF7EBFB052000F0D7F855203B
:102AA00000F0D4F80449012208702046BDE8104027
:102AB0004021FEF7DCBB0000180000202DE9F041AA
:102AC00015460F4604461E4EFFF7DEFF3078C0075E
:102AD000FAD100F073F8002240214FF0904818E03E
:102AE0006D1EADB217F8010B00F0B0F8641CA4B273
:102AF000E0061AD1DDB1012240214046FEF7B7FBC6
:102B0000FFF7C2FF3078C007FAD100F057F8002273
:102B100040214046FEF7ABFB022000F097F8200A68
:102B200000F094F8E0B200F091F8002DD8D1012225
:102B300040214046FEF79BFBBDE8F04100F02CB879
:102B40001800002070B50E460446124DFFF79CFF9A
:102B50002878C007FAD100F031F84FF090450022F4
:102B600040212846FEF783FB022000F06FF8200A80
:102B700000F06CF8E0B200F069F8304600F066F85A
:102B8000012240212846FEF772FBBDE8704000F0AC
:102B900003B800001800002010B54FF09044002248
:102BA00040212046FEF763FB042000F04FF820464A
:102BB0000122BDE810404021FEF759BB10B54FF08F
:102BC0009044002240212046FEF751FB062000F0F1
:102BD0003DF820460122BDE810404021FEF747BBEA
:102BE0002DE9F04186B0002417460D4606460494B0
:102BF000FEF75AFA1F20029001200390009404A9C6
:102C00006846FEF78DF880B9DFF828800BE000BF3A
:102C1000D5E9002306EB08010020FEF7EFF920B903
:102C2000641C08350836BC42F2D3FEF7C1F906B081
:102C3000BDE8F08100F8000870470000012211464D
:102C40000148FEF714BB0000000400482DE9F041E4
:102C50000024DFF85C80064625464FF090470022AE
:102C600001214046FEF703FB6006040E2021384692
:102C7000FEF7F1FA012801D144F00104002280217D
:102C80003846FEF7F4FA300604D501228021384692
:102C9000FEF7EDFA7006060E012211464046FEF7D9
:102CA000E6FA6D1CEDB2082DD9D32046BDE8F081BF
:102CB00000040048FEF7E6BA10B5A4B04421684607
:102CC000FDF799FA14211EA8FDF795FA342111A8F1
:102CD000FDF791FA4FF40070FEF776FE30200024E5
:102CE00060210090CDE9084101200A90079002215F
:102CF000CDE90B100D902820CDE90E01684610910A
:102D0000FFF780F80F201E900320CDE91F042194C7
:102D100004211EA82294FEF793FF4FF400501B9449
:102D2000119011A8FEF794FE24B010BD0D48016863
:102D300041F4700101600C48016841F0010101603B
:102D4000002181600268094B1A4002608214C2604F
:102D5000026822F48022026081610249C003803946
:102D60000860704788ED00E000100240FFFFF6EABF
:102D7000D0F89002002180F850100846704770B5D6
:102D80000546D0F89042D5F894226178D268207830
:102D90009047402322460121284600F0A2FB002054
:102DA00070BD70B50446812100F08AFA002501212A
:102DB0002046E56200F084FAC4F85851D4F8900235
:102DC00048B1D4F8940204F52474806880472068E0
:102DD00000F011FE2560002070BD10B5D0F89042C3
:102DE000E16C012908D1D0F8940223786178C26897
:102DF000184690470020E064002010BD0A210180A1
:102E000000487047E40100202921018000487047F4
:102E100054010020292101800048704780010020D2
:102E20002921018000487047AC01002070B504469C
:102E3000002602230322812100F040FB012502230A
:102E4000032229462046E56200F038FB5420C4F8EE
:102E5000585100F0D1FDC4F8900278B10546002029
:102E600085F85000D4F894024068804740232A46F1
:102E70000121204600F035FB304670BD0126FBE7FE
:102E800002460220002902D00020C2F894127047A6
:102E900010B5134690F87442D0F89022032C0BD151
:102EA00092F850400CB1012010BD012482F850402E
:102EB0000A46812100F0C8FB002010BDF8B50022B1
:102EC000D0F89032ADF800200E781546144616F072
:102ED000600622D0202E56D14A78921E0A2A52D25B
:102EE000DFE802F010085151515151140C05887857
:102EF00018644BE0012203F1400135E04888000AE4
:102F0000586443E0012203F144012DE00122DA6418
:102F1000CA88194600F064F838E04E7836B1062EBB
:102F20000BD00A2E23D00B2E2DD128E090F874223E
:102F3000032A28D10222694616E04B882226B6EBE6
:102F4000132F07D1CA88222A00D92222D0F894123E
:102F50000D6808E02126B6EB132F04D1CA880E4D68
:102F6000092A00D90922294600F054F80EE090F809
:102F70007422032A07D1012203F14801F4E790F8F3
:102F80007422032A04D000F020F802242046F8BD61
:102F900088789864FAE70000D801002010B5D0F8CE
:102FA0008C2252689047002010BD134610B50A4687
:102FB000002100F096FA002010BD134610B50A4615
:102FC000002100F041FB002010BD10B50446802117
:102FD00000F011FB2046BDE81040002100F00BBBC3
:102FE00010B50323C0F84821C0F86C32C0F84C215A
:102FF00013460A46002100F074FA002010BD10B5F7
:1030000005210023C0F86C121A46194600F069FA2F
:10301000002010BD10B50223C261C0F86C320262FC
:1030200013460A46002100F00FFB002010BD10B52A
:1030300004210023C0F86C121A46194600F004FB64
:10304000002010BD10B50A46024903A000F0EFF8B9
:10305000004810BDD80700204D4B546F6F6C436F74
:103060006E6600001220088000487047780000203B
:1030700010B50A46024903A000F0D9F8004810BD77
:10308000D80700204D4B546F6F6C0000042008805F
:10309000004870477400002010B50A46024903A09A
:1030A00000F0C5F8004810BDD80700205746446519
:1030B0007369676E0000000010B50A46024903A05C
:1030C00000F0B5F8004810BDD807002053544D3328
:1030D0003220437573746F6D2048756D616E206981
:1030E0006E746572666163650000000010B51A2099
:1030F00008800A480168001D0468001D006808185F
:1031000009D008220649FFF75DF90549042210316C
:103110002046FFF757F90248801E10BD9075FF1F2B
:103120009A0000200C200880004870478C00002086
:10313000F8B5044648880D46010A06294CD006DC3D
:1031400001290DD0022910D003294FD11BE00729F6
:103150004AD00F294AD1D4F88812207CCA6937E0B6
:10316000D4F88812207C0A6832E0207C02260028ED
:10317000D4F88C0205D0C16A68468847014646707B
:1031800041E0816AF8E7C0B206282FD2DFE800F0FC
:1031900003080D12171CD4F88812207C4A6817E027
:1031A000D4F88812207C8A6812E0D4F88812207C37
:1031B000CA680DE0D4F88812207C0A6908E0D4F8C7
:1031C0008812207C4A6903E0D4F88812207C8A693E
:1031D00069469047014616E0207C38B9D4F88C0245
:1031E000416B68468847F5E7207C20B12946204698
:1031F000FFF7EBFEF8BDD4F88C02016B68468847F8
:10320000014607204870BDF8000048B1EA8852B175
:10321000824200D90246ADF800202046FFF7FAFEB0
:10322000E8880028E6D12046FFF701FFF8BD70B519
:10323000002300281ED00446002502E06D1CEDB2DC
:10324000641C2678002EF9D1022404EB4504148076
:103250001278CA545B1C0322CA5400245B1C06E08B
:10326000CA545B1CDAB28C54521CD3B2401C027894
:10327000002AF5D170BD10B580B1D0F88C3213B1F1
:103280000023C0F88C3209B1C0F88812012180F8FF
:103290007412027000F0C8F8002010BD022010BDAA
:1032A00010B50024D0F89802FEF7FDF830B10128DF
:1032B00001D0022801D0022400E00124204610BDE4
:1032C00010B50024D0F89802FEF7C9F830B10128F3
:1032D00001D0022801D0022400E00124204610BDC4
:1032E0002DE9F0411746044651B1D4F88C024269E9
:1032F0001AB194F87402032851D00220BDE8F0817D
:10330000D4F86C32002504F11400022B03D0042BF6
:103310003AD0C3B33CE0D0E903639E4207D9F11A27
:10332000C1608AB239462046FFF747FE12E0806846
:10333000B0FBF3F103FB110199B9984211D3D4F812
:10334000701288420DD2002211462046FFF735FE4A
:10335000C4F8705200231A461946204600F0C1F8FE
:1033600016E0D4F88C02C16829B194F874020328DD
:1033700001D1204688478021204600F03CF92046B4
:10338000FFF73DFE04E0FFE78021204600F033F91F
:1033900094F87802012804D184F8785201E020469C
:1033A00090470020AAE770B51546044649B1D4F805
:1033B0008C0282691AB194F87402032830D002207A
:1033C00070BDD4F86C1204F5A070032902D0052951
:1033D0001ED027E0D0E903218A420BD9531AC360DB
:1033E0000846834200D303469AB229462046FFF797
:1033F000DCFD17E0D4F88C02016929B194F874025D
:10340000032801D1204688472046FFF710FE09E037
:1034100000200146C4F86C02204600F0ECF801E000
:1034200020469047002070BD10B50446FEF700FB13
:1034300019491A48C1F87042C4F898120860082067
:103440004860022088600861002048618861C86186
:1034500008620846FEF7A0F908B1FCF76EFF0022EB
:10346000D4F898021823114604F52674FDF7CEFF10
:103470005823002280212068FDF7C8FF98230022EE
:1034800081212068FDF7C2FFD82300220121206896
:10349000FDF7BCFF002010BD64050020006800405F
:1034A0000A06D0F8980201F07F0100EB411002D526
:1034B00090F82A00704790F82A01704770B51D46B1
:1034C00013460024D0F898022A46FEF718F830B1C7
:1034D000012801D0022801D0022400E00124204666
:1034E00070BD10B50024D0F89802FEF736F830B160
:1034F000012801D0022801D0022400E00124204646
:1035000010BD70B50022044640231146FFF7D6FFD8
:1035100040260125C4F85061334600228021204610
:10352000C4F84451FFF7CAFF6662A56184F874527B
:103530000020C4F86C026060C4F87C02D4F89002E9
:1035400028B1D4F88C020021426820469047002020
:1035500070BD90F8751280F874120020704710B595
:1035600090F87412032904D1D0F88C12C96901B102
:103570008847002010BD01740020704710B500245A
:10358000D0F89802FEF7DEF930B1012801D0022808
:1035900001D0022400E00124204610BD70B504468D
:1035A00000F52070054600F05FF80120C4F86C02B9
:1035B000B4F88602C4F8700294F8800210F01F017B
:1035C0000AD001290DD0022910D000F08001204638
:1035D00000F011F8002070BD2946204600F0B3F835
:1035E000F8E72946204600F0DFF9F3E729462046B0
:1035F00000F032F9EEE710B50024D0F89802FDF79C
:10360000C3FF30B1012801D0022801D0022400E01C
:103610000124204610BD10B50024D0F89802FEF712
:10362000ACF930B1012801D0022801D0022400E019
:103630000124204610BD90F8741280F87512042100
:1036400080F874120020704710B50024D0F898025A
:10365000FDF7CFFF30B1012801D0022801D00224AC
:1036600000E00124204610BD0A7802704A784270BA
:103670008A78CB7802EB032242800A794B7902EBFD
:10368000032282808A79C97902EB0121C1807047C7
:103690000246002011B1C2F88C1270470220704718
:1036A00010B5D0F88C2202241AB11268904700B9E4
:1036B0000024204610BD000070B50E461E4D8978CE
:1036C00004462970012931D894F8740202280BD0DD
:1036D00003280FD031462046FFF777FC2978204693
:1036E000BDE87040FFF75ABCD9B10320616084F88F
:1036F000740209E071B16068884212D0C1B22046FC
:10370000FFF74CFC297861602046FFF7C9FF0228CB
:103710000CD006E0022084F8740220466160FFF7B6
:103720003DFC2046BDE87040FFF781BC3146204695
:10373000BDE87040FFF749BC1801002010B5FFF745
:103740006AFF002010BD2DE9F0410A784FF0000813
:1037500012F0600208D0202A01D0402A6FD1D0F8A0
:103760008C22926890476CE04B780022012502265B
:103770000A2B64D2DFE803F03F5B635563080563FF
:103780002B28FFF7D5FC5CE004468888D0B9C888B0
:10379000C0B94888802815D200F07F0794F87402D9
:1037A00003280FD084F8767239462046FFF7E6FEEC
:1037B0002046FFF73CFC17B184F8746241E084F8BE
:1037C00074523EE020463AE0FFF776FF39E0CB88BE
:1037D000012B34D190F87432012B04D0022B02D08B
:1037E000032B2CD104E08260012200F1080115E0D6
:1037F0000122011D12E090F87432012B03D0022B3C
:1038000001D0032B1BD1CB88022B18D1C260D0F87A
:103810007C1201B1C660022200F10C01FFF7FAFB35
:103820000FE0498801290CD1C0F87C5211E090F8D2
:103830007432012B08D0022B06D0032B04D0FFF7E3
:10384000C4FB4046BDE8F08149880129F9D1C0F8A0
:103850007C22FFF7ECFBF4E72DE9F0410A46044631
:1038600010780027097910F060030AD0202B01D0CE
:10387000402B50D1D4F88C021146836820469847DB
:103880008FE0C0F34110012806D05078D0B3012852
:103890002AD003283FD107E0D4F88C021146836870
:1038A0002046BDE8F041184794F87402022802D07F
:1038B000032872D10AE071B380296ED02046FFF749
:1038C0009AFE80212046FFF796FE6AE0508838B9BC
:1038D00031B1802904D0D08810B92046FFF78BFE83
:1038E0002046FFF7A4FB5CE094F874020228E2D0C3
:1038F000032852D1508898BB4806F1D02046FFF7E4
:10390000CFFCEDE7FFE794F874020026022803D00D
:10391000032842D112E040E009B180293DD10806D8
:1039200001F07F0000EB800004EB800101D5143131
:1039300001E001F5A07102220E602AE0080601F004
:103940000F0000EB800004EB80000AD5806920B3F3
:1039500001F07F0000EB800004EB800514350BE0E4
:103960001FE0D0F84401C0B101F07F0000EB8000FF
:1039700004EB800505F5A07541B1802906D02046ED
:10398000FFF78EFD10B10120286000E02E600222BA
:1039900029462046FFF73EFB03E011462046FFF78D
:1039A00014FB3846BDE8F08170B5054608780C4632
:1039B00010F0600003D0202801D0402816D195F8DF
:1039C0007402012803D0022801D003280ED12079E7
:1039D00001280BD8D5F88C02826828469047E188E8
:1039E000014306D12846FFF722FB02E02846FFF7F5
:1039F000ECFA002070BD7047004870470C050020AD
:103A00002DE9F04FB44C054693B0007820700127A3
:103A100067702878DFF8C4B2DFF8C482DFF8C4A288
:103A200002260DF10809122878D009DCB8B14FF050
:103A3000030903280CD0102814D011280ED118E047
:103A4000A94913286BD014286AD01528F6D115E19E
:103A5000A770E67084F804900420607134E1A770C8
:103A6000E67031E1687810220001A11CFEF746FFE4
:103A70002AE1FCF715FF9D480068C00702D084F8D2
:103A8000019021E1687810220001A91CFEF766FF71
:103A900068780528E2D15520FCF72CFC5D20FEF764
:103AA0001FFF9349096889067ED57F287CD840F09E
:103AB000030608228F495520FEF720FF8D4C002079
:103AC0004FEA0B01C0F10702A25C0A54401C08280F
:103AD000F8D3032000F082FC00204146C0F1070328
:103AE0000A5C401CE2540828F8D326720921814858
:103AF000FDF7F8F860720A227E497320FEF72EFF68
:103B00000020FF252554401C0828FBD300207F21DE
:103B1000B14208D0491E20B1401EF9E748E092E0CA
:103B20009CE00720F4E72154082272496920FEF73F
:103B300015FF09226F495F20FEF7E0FE09216D485D
:103B4000FDF7D0F860720A226A495F20FEF706FF8F
:103B50006820FEF7B7FE9820FEF7C2FEFF2808D1C6
:103B6000732020700C206070022262499820FEF7BA
:103B7000F5FE27706770A770E7700020FEF7B0FEB3
:103B8000000601D4257101E0002020716571062234
:103B900058499020FEF7E2FE0420FCF793FBFCF767
:103BA00072FBFCF77DFE00E04BE0FCF7ADFD8BE027
:103BB00001224946002000F01BFF4A4800F026FC85
:103BC000474600254FEA090800F02CFC00203A5C2B
:103BD00018F800108A4202D1401C0828F7D30828A0
:103BE00006D03F4800F012FC6D1C332DECD328E0CA
:103BF000642D26D02DB30020014605AA1154401C87
:103C00001028FBD300263001102205A9FEF7A6FEDE
:103C1000761C102EF7D3A57000205B465246115C2F
:103C20001954401C0828FAD3E8B200F0D7FB002052
:103C300041463A5C0A54401C0828FAD3012202A9E2
:103C400018E0667040E0002052460B5C155C5D4059
:103C50002318401C9D700828F7D335E000204A4601
:103C60002B180C5C5B7863401354401C0828F7D376
:103C7000012249460020FEF7B3FF25E01A49002043
:103C800008312A180B5C52789A4201D0667002E023
:103C9000401C0928F5D3092816D100224FF4804191
:103CA0001548FDF7E4FAFDF7FFF9FDF795F909A8C6
:103CB000FDF7A8F8AA200D90099609A8FDF7ECF8E1
:103CC000FDF780F9FDF774F9402203490B48FFF72F
:103CD000DFF813B000F014B8300200200500002017
:103CE0000D000020200200200C4A000824000020C3
:103CF0001C00002000020020000400487002002088
:103D000030BCBDE8C08F2DE9F0470C784FF0000CB7
:103D100030F8243048F68F121340CA78002A7ED03B
:103D2000012A7DD0022A03D0032A7AD04FF0010C59
:103D300048F28002134320F824300D7830F82540F3
:103D400048F68F731C402C43144320F825400F7B0A
:103D500048F6BF744BF68F7948F2C0054CF28006E6
:103D6000EFB391F80080C24630F8287048F280180E
:103D70001F4047EA080720F82A70B0F8507091F801
:103D80000080074407EBC807B1F8088028F0010855
:103D9000A7F80084B0F8507091F80080074407EB52
:103DA000C807B1F80A8028F00108A7F804844F7802
:103DB000002F7ED091F8008030F828707F0405D560
:103DC00030F828701F40374320F8287091F80080A1
:103DD00030F828707F0607D530F8287000E02FE013
:103DE0001F402F4320F828700F7830F827501D40CF
:103DF000354320F82750CB780D78012B30F825304B
:103E000003EA040301D083F02003134320F8253094
:103E10000B7830F8231001EA0901114302E006E0B3
:103E20000BE007E020F823106046BDE8F08743F47C
:103E300000737DE743F4C0637AE743F4806377E778
:103E40004F7827B3B0F850600F78064406EBC706EA
:103E5000CF8827F00107A6F800740F7830F82760A4
:103E6000760605D530F827601E402E4320F82760DF
:103E7000CB78012B06D00B7830F82310214081F04D
:103E80002001CAE70B7830F823102140C5E7B0F8CD
:103E900050400D78044404EBC504CD8825F001059D
:103EA000A4F80454B0F850400D78044404EBC50461
:103EB00000E02DE00D6904F20644EDB13E2D21D263
:103EC0006F08ED0700D07F1C4FF6FF7505EA8725C8
:103ED00025800D7830F82540640405D530F825405C
:103EE0001C40344320F825400B7830F8231001EAB9
:103EF000090181F4405190E7258825F4F84545F4FF
:103F00000045E5E76D094FF4004747EA8525DFE7FF
:103F10000F7830F827805FEA484807D530F82780C7
:103F200008EA030848EA060820F827800F7830F8E6
:103F30002760760605D530F827601E402E4320F80E
:103F400027600F7830F827601E402E4320F8276046
:103F50000D7830F8253003EA090383F44053134306
:103F600020F825308EE7002070472DE9F04391F8C6
:103F70000C804F780A7848F6BF7C4BF68F7948F270
:103F8000800348F2C0054CF2800648F68F74B8F101
:103F9000000F28D0002F30F822704FEA474748D052
:103FA000002F05DA30F822702740374320F82270BE
:103FB0000A7830F822707F0605D530F82270274045
:103FC0002F4320F822700D7830F82520224032430C
:103FD00020F825200C7830F8242002EA0C021A433D
:103FE00020F824201AE07FB130F82260760605D54B
:103FF00030F8226026402E4320F822600A7830F8FC
:10400000221001EA0C010EE030F822506D0405D5B3
:1040100030F822502540354320F822500A7830F8F5
:10402000221001EA0901194320F822100020BDE8FE
:10403000F083002F05DA30F822702740374320F84C
:1040400022700A7830F82260760605D530F82260B2
:1040500026402E4320F822600E7830F82620224099
:104060002A4320F826200C7830F8242002EA09029E
:104070001A4320F82420C1E730F8581F41F40041CA
:1040800001800020704730F8581FC1F30E010180F5
:104090000020704700B50121A0F840100021A0F8D1
:1040A0004010A0F84410A0F8501000F022F90020B1
:1040B00000BD30F8401F4BF6807291430180002014
:1040C00070470020704730B50A7BB2BB4A7848F68B
:1040D0008F7548F28004C2B10B7830F82320520665
:1040E00007D530F823202A4048F2C0052A4320F89B
:1040F0002320CA78012A20D00A7830F8221048F606
:10410000BF73194081F0200114E00A7830F82230A2
:104110005B0407D530F822302B404CF280052B434E
:1041200020F822300A7830F822104BF68F731940AD
:1041300081F44051214320F82210002030BD10B5F9
:104140004A780978002A48F2800330F8212005D007
:1041500048F6BF74224082F0100204E04BF68F74E0
:10416000224082F480521A4320F82120002010BD02
:10417000F0B50E46054691F801C00022097B34696E
:10418000B06948F28007BCF1010F04D0A0424FD9BA
:10419000001BB0614EE0A04202D9001BB06101E0FB
:1041A0000446B26169B1307835F820104906B5F897
:1041B0005010294401EBC00012D5A0F806447289C2
:1041C00011E0A3B2F2882846716900F0C1F8B5F891
:1041D00050003178284400EBC100A0F802441EE0F2
:1041E000A0F802443289A3B22846716900F0B0F801
:1041F000707848F68F7110B1012807D00FE032783F
:1042000035F82200084048F2C00105E0327835F860
:10421000220008404CF28001084325F82200317842
:1042200035F8210048F6BF72104080F030005BE0A6
:104230000446B2614FF6FF724FF4004319B1BCF16E
:10424000000F19D02BE0B5F850003178284400EB6E
:10425000C10000F206402CB13E2C30D3610943EA84
:10426000812107E0018821F4F84141F4004101E097
:1042700002EA812101802FE0B5F85000317828440E
:1042800000EBC10000F202407CB13E2C13D2610869
:104290005FEAC47C00D0491C02EA81210180707869
:1042A0000028D0D001280FD016E0018821F4F84171
:1042B00041F40041F2E7610943EA8121EEE7610838
:1042C000E307D5D0491CD3E7B5F850104819317829
:1042D00000EBC100A0F80644317835F821004BF618
:1042E0008F72104080F44050384325F821000020A0
:1042F000F0BD30F8401F4BF6807211430180002062
:10430000704700000148FDF789B9000064050020EE
:10431000B0F84400704710B510445C0800F58060A8
:1043200008D030F8022B01F8012B120A01F8012BFA
:10433000641EF6D1DA0701D00078087010BD0020A5
:10434000704711B98021A0F84C1000207047000080
:1043500010B55B1C10445B0800F580600AD000BFFC
:1043600011F8012B5B1E11F8014B42EA042220F8E0
:10437000022BF5D110BDFEE70907090E002804DB6A
:1043800000F1E02080F80014704700F00F0000F109
:10439000E02080F8141D7047BFF34F8F0548016877
:1043A000054A01F4E06111430160BFF34F8F00BF84
:1043B000FDE700000CED00E00400FA0502E008C88B
:1043C000121F08C1002AFAD170477047002001E08F
:1043D00001C1121F002AFBD170470000F0B50A4E40
:1043E00005460024A6F108070BE000BF00F01AF80C
:1043F0000020315C3954401CC0B20828F9D3641C39
:10440000E4B2AC42F2D3F0BD0D000020044A00211A
:10441000435C5354491CC9B20829F9D370470000C2
:10442000050000203FB50F4D0020287000F015FA60
:104430000D4C00206946225C0A54401CC0B208287A
:10444000F9D30120287000F008FA002002A92218F0
:1044500012790A54401CC0B20828F8D3684600F00C
:10446000EBF83FBD04000020F0010020054D06469A
:104470004FF4804421462846FCF7F2FE3046FCF714
:104480003DFCF7E70004004830B50DA288B00FCA24
:104490008DE80F000EA304AC0FCB84E80F00104989
:1044A000104A002009786C4604AB31B11D5C1554EC
:1044B000401C1028F9DB08B030BD255CF7E7000090
:1044C0004503114F854C7A31F67CCBB815A4D04208
:1044D000519B4914B12E8FB595DE627AD80D441CDC
:1044E00004000020F0010020FCF7D4FEFEF7E4FBFE
:1044F000FDF784FF4FF480410848FCF7ACFE60B143
:10450000502000F06FFAFEF799FBFEF749FAFEF72C
:104510001DF84FF4FA70FFF7A9FFFEE70008004806
:1045200030B50CA38AB00FCB05AC84E80F000D4961
:1045300000206A46235C0D5C401CC0B2D554102894
:10454000F8D30020135C0B54401CC0B21028F9D3E0
:104550000AB030BD0405060708090A0B0F0C0D0E42
:1045600000010203F001002030B50CA38AB00FCB8C
:1045700005AC84E80F000D4900206A46235C0D5C01
:10458000401CC0B2D5541028F8D30020135C0B5443
:10459000401CC0B21028F9D30AB030BD040506078C
:1045A00008090A0B0E0F0C0D00010203F001002098
:1045B000F0B500250F4916E00A7A02F080030022C8
:1045C000C2F10B040E5D06F080077606360E0E551E
:1045D00063B146F00103521C0B55D2B23B46042A8C
:1045E000EED36D1CEDB28542E6D3F0BD06F0FE03BE
:1045F000F1E70000F0010020F0B500250D4A14E0BD
:10460000D17A01F0010300215418267A06F001073F
:104610007608267263B146F080032372491CC9B242
:104620003B460429F0D36D1CEDB28542E8D3F0BDC2
:104630002672F3E7F0010020FCB528A30024D3E99B
:104640000023CDE90023274A234600BFC3F1030519
:10465000465D4D5D35442C44D454FF2C01D90124D2
:1046600000E000245B1CDBB2042BEFD300252B46BB
:104670006C46D65CE75C3E443544D554FF2D01D9E9
:10468000012500E000255B1CDBB2042BF1D30025E3
:104690004FEA0503C3F10706875D8E5D3E4435444E
:1046A000D618FF2D357101D9012500E000255B1CCE
:1046B000DBB2042BEED300210846131826181D790F
:1046C0003679354429441971FF2901D9012100E0C7
:1046D0000021401CC0B20428EFD3FCBD89ABCDEF54
:1046E000FEDCBA980D00002070B500220A4B11467E
:1046F000C1F10B04C1F103061D5D865D35442A44FA
:104700001A55FF2A01D9012200E00022491CC9B232
:104710000429EDD370BD0000F00100203CB50EA0CF
:104720000E4B00680090002001AD1C18195C227926
:10473000247B5140214051402954401CC0B20428E0
:10474000F3D32846FFF7D0FF05480078002802D0B1
:104750006846FFF7C9FF3CBD50A28BE6F001002080
:104760000400002038B500F00401084B00206A4620
:104770004418C0F10305401C1C5DC0B25455042808
:10478000F6D31046FFF7B0FF38BD0000050000204B
:104790007CB50FA00F4A0068002101AE00905418AC
:1047A000505C25790346247B2B4328402340184343
:1047B0007054491CC9B20429F1D33046FFF794FF65
:1047C00005480078002802D16846FFF78DFF7CBDC0
:1047D0005A827999F0010020040000203FB510A012
:1047E0001149006802900FA001AC006803900020FE
:1047F0000B180A5C1D791B7B6A405A402254401CEE
:10480000C0B20428F4D32046FFF76EFF07480078B3
:1048100018B103A8FFF768FF3FBD02A8FAE7000040
:104820006ED9EBA15C4DD124F001002004000020E2
:1048300000B5FFF7BDFE5DF804EBFFF771BE00B5F4
:10484000FFF7DAFE5DF804EBFFF76ABE00B5FFF78D
:10485000D3FE5DF804EBFFF787BE30B5FFF714FE1B
:10486000FFF75CFF0020FFF77DFF01252846FFF7DB
:10487000DFFFFFF753FF04242046FFF773FFFFF726
:104880004FFEFFF785FF2846FFF7D9FFFFF780FFB0
:104890000220FFF7D4FFFFF77BFFFFF741FEFFF792
:1048A00077FF03252846FFF7D1FFFFF771FF284662
:1048B000FFF7BEFFFFF76CFF01252846FFF7B8FFA3
:1048C000FFF766FF2046FFF74DFF2846FFF7B7FFCB
:1048D000FFF75EFF2846FFF7B9FFFFF759FF2846AD
:1048E000FFF7ADFFFFF754FF0420FFF7A1FFFFF72D
:1048F0004FFF01242046FFF7A9FFFFF749FF20469D
:10490000FFF796FFFFF744FF0020FFF72BFF20463D
:10491000FFF795FFFFF73CFF03242046FFF788FFD2
:10492000FFF736FF2046FFF791FFFFF731FF042026
:10493000FFF77EFFFFF752FF2046FFF779FFFFF7F3
:104940004DFF2046FFF782FFFFF748FF0220FFF7E9
:104950007DFFFFF743FF0120FFF771FFFFF73EFFE9
:104960000220FFF773FFFFF739FF0420FFF7FAFE7D
:104970000120FFF75DFFFFF731FF0320FFF766FF20
:10498000FFF72CFF0120FFF761FFFFF727FF002053
:10499000FFF7E8FE0220FFF752FFFFF71FFFFFF7C8
:1049A000BFFDFFF71BFF0320FFF750FFFFF716FFC8
:1049B0000220FFF744FFFFF711FF0420FFF738FF45
:1049C000FFF70CFF0320FFF73AFFFFF707FF012077
:1049D000FFF735FFFFF702FFBDE830400320FFF788
:1049E0002EBF000001490860704700000000002051
:1049F000054B10B5184403E0F0E80234E1E8023456
:104A0000521EF9D210BD000000F80008055592387A
:104A10004796ADE777666C6F76656C787900000035
:104A2000000000000000000001020304060708095E
:104A3000A0860100400D0300801A060000350C001E
:104A400040420F0080841E0000093D0000127A00E1
:104A50000024F40000366E010048E801006CDC021E
:104A6000804A000800000020F00100003002000829
:104A70004C4B0008F0010020E80F0000CC43000878
:104A800001541365301B088D041A99041AB9041ACD
:104A9000ED041A45041A7104132531300A08040381
:104AA0000904120101021640830450572602010234
:104AB000030114050F0C2D0107100219031A1A0324
:104AC00012061009FF0901A1010901151326FF9F14
:104AD0009540750881020D249102C022B41420ABC8
:104AE000021B08A7041AB104321019630115F91842
:104AF00053093D132D2E1408A32D1B08BD08411A80
:104B0000DB0C1A71041A7F04C11A15201A09041A41
:104B100021041AFD1C1409022913010125C03209C0
:104B2000042A02C9150921110114012222160705C0
:104B30008103022D0507050107291A09562C691A58
:0C4B400031130A0632022A40E80000008F
:040000050800018D61
:00000001FF
