:020000040800F2
:10000000F8110020A1010008E3190008B517000845
:10001000E11900088702000807320008000000000C
:10002000000000000000000000000000D51D0008D6
:100030009502000800000000871C0008511E0008FF
:10004000BB010008BB010008BB010008BB010008A0
:10005000BB010008BB010008BB010008BB01000890
:10006000BB010008BB010008BB010008BB01000880
:10007000BB010008BB010008BB010008BB01000870
:10008000BB010008BB010008BB0100080000000024
:10009000000000000000000000000000BB0100089C
:1000A000BB010008111F0008BB010008BB010008CC
:1000B0001D1F00080000000000000000BB01000838
:1000C000BB010008BB010008BB010008BB01000820
:1000D000BB010008BB010008BB010008BB01000810
:1000E000BB010008BB010008000000000000000088
:1000F0000000000000000000000000000000000000
:1001000000000000000000000000000000000000EF
:100110000000000000000000291F0008000000008F
:10012000BB010008BB010008BB010008BB010008BF
:10013000BB010008000000000000000000000000FB
:10014000BB010008BB010008BB0100089531000895
:10015000BB010008BB010008BB010008BB0100088F
:10016000BB010008BB010008000000000000000007
:1001700000000000BB0100080000000000000000BB
:10018000BB010008BB010008BB010008DFF80CD070
:1001900000F03CF800480047F1320008F811002058
:1001A0000648804706480047FEE7FEE7FEE7FEE711
:1001B000FEE7FEE7FEE7FEE7FEE7FEE7CD1E0008EE
:1001C0008D01000840EA01039B0703D009E008C93C
:1001D000121F08C0042AFAD203E011F8013B00F80C
:1001E000013B521EF9D27047D2B201E000F8012B58
:1001F000491EFBD270470022F6E710B513460A46A7
:1002000004461946FFF7F0FF204610BD064C074D87
:1002100006E0E06840F0010394E8070098471034D6
:10022000AC42F6D3FFF7B6FF7438000894380008E4
:1002300070B58C1810F8015B15F0070301D110F8A8
:10024000013B2A1106D110F8012B03E010F8016BD5
:1002500001F8016B5B1EF9D12B0705D40023521E58
:100260000DD401F8013BFAE710F8013BCB1A921CC0
:1002700003E013F8015B01F8015B521EF9D5A142BE
:10028000D8D3002070BDFEE70020704700207047E3
:1002900000207047704770472DE9F0412648274CF1
:1002A000284E006820602448001D006860602248D5
:1002B00008300068A0602248E0600020215C3154D2
:1002C000401CC0B20828F9D302F0BEFF1B4D00202D
:1002D0001D4F1035395C2954401CC0B20828F9D391
:1002E00000202118097A3154401CC0B20828F8D3E4
:1002F00002F0AAFF00202A18395C401CC0B211721B
:100300000828F8D30020C0F10F02295CA25C5140FC
:100310002954401CC0B21028F5D300210846225CA5
:10032000401C1144C0B2C9B21028F8D3074801F5E7
:1003300020714160BDE8F0819075FF1FB001002081
:1003400046577962050000200D0000201C000020A7
:100350002DE9F84FDFF860B100234FF0010C4FF0AA
:10036000030A4FF00F090BF1040E9DE00CFA03F69F
:10037000344022007ED04C68022C01D0122C0ED1C9
:10038000DC0800EB8408D8F820405D07EF0E09FA7E
:1003900007F5AC430D69BD402543C8F820500768F8
:1003A0005D0091F804800AFA05F408F00308A743F9
:1003B00008FA05F848EA0708C0F800804F68012FDE
:1003C00005D0022F03D0112F01D0122F11D1876831
:1003D000D1F80C80A74308FA05F848EA0708C0F8E6
:1003E00008804768B7430E79C6F300169E403E4327
:1003F0004660C668A6438C68AC403443C4604C6811
:10040000E40050D52D4C256E45F001052566246E7F
:1004100023F0030504F001040094294C2E19B4685C
:100420009D072F0F09FA07F5AC43B0F1904F04D0A8
:10043000244DA84203D101250CE000250AE0224DFD
:10044000A84201D1022505E0204DA84201D1032593
:1004500000E00725BD402543B560DBF800405D4660
:100460004E689443F60300D514432C607546DEF8BD
:10047000004000E017E04E689443B60300D51443F3
:100480002C600D4D08352C684E689443F60200D55B
:1004900014432C60084D0C352C684E689443B6020A
:1004A00000D514432C605B1C0A681446DA407FF4C4
:1004B0005DAF00F00DB800000004014000100240E4
:1004C000000001400004004800080048000C0048FB
:1004D00018BCBDE8E08F0069084000D001207047DB
:1004E0000AB18161704781627047000001488068ED
:1004F00070470000B800002002488168426811443B
:1005000081607047B800002010B50024032000F07F
:1005100071F8002000F008F808B1012401E000F0B3
:1005200025F8204610BD000070B50E4E054600248B
:10053000706898B14FF47A71B1FBF0F00A4909681C
:10054000B1FBF0F001F058F840B9102D06D20022AE
:100550002946501E00F02EF8356000E001242046A8
:1005600070BD0000B8000020C4000020094808B594
:10057000016E41F001010166016E01F0010100917F
:10058000816D41F080518165806D00F08050009058
:1005900008BD000000100240002809DB00F01F0227
:1005A000012191404009800000F1E020C0F80011D5
:1005B00070470000F0B40E4B1B680C46C3F30223D7
:1005C000C3F10705042D00D90425191D072901D2FF
:1005D000002300E0DB1E012606FA05F1491E21403A
:1005E00099409E40761E16403143F0BC02F00CBE8E
:1005F0000CED00E0064900F0070208684FF6FF0323
:10060000184040EA0220034A104308607047000087
:100610000CED00E00000FA0501220168C0F8682234
:10062000002280F8602231F8540F40F00100088069
:10063000088840F0020008801046704770B50F4DE2
:10064000044669B101290AD1D4F8700202F0BFF85A
:10065000A069002803D0286840F00600286070BD1B
:10066000A06928B101F0F6FB286820F00600286098
:10067000D4F87002BDE8704002F037B810ED00E029
:1006800010B50C0605D501F0070100EB411028302C
:1006900003E000EB411000F5947099B232B10122F1
:1006A00002730181190C4181002010BD00220273E8
:1006B000C180F9E700EB4112D0F87002D26B01F073
:1006C000DBBE00EB4112D0F87002D2F83C2101F001
:1006D00036BF70B504460B0601F0070004EB40116D
:1006E0004FF001024FF0000503D581F82920283191
:1006F00003E081F8295101F59471087094F82802FB
:10070000012808D084F82822206802F077FB84F8BA
:100710002852002070BD022070BD70B5044601F063
:100720000F006268904201D9012070BD0B0601F0F4
:10073000070004EB40114FF001024FF0000503D514
:1007400081F82920283103E081F8295101F59471BD
:100750008D70087094F82802012808D084F82822A7
:10076000206802F0F9FB84F82852002070BD0220B6
:1007700070BD2DE9F04104460F0601F0070004EBBF
:1007800040114FF001064FF0000503D581F82960B4
:10079000283103E081F8295101F5947108700A614C
:1007A000CB704A7802B1C881022B00D10D7194F848
:1007B0002802012809D084F82862206802F0ECF9A8
:1007C000284684F82852BDE8F0810220FBE770B586
:1007D0000C4601F0070500EB4511C1E94F2300224B
:1007E000C1F8442181F8292181F8285101F594713B
:1007F0006207006802F005FC002070BD70B5044679
:100800000D4601F007006168884201D9012070BDE2
:1008100029064FF000064FF0010205D504EB401108
:1008200081F82920283105E004EB451181F8296180
:1008300001F594718A70087094F82802012807D095
:1008400084F82822206802F0C3FB680702D006E083
:10085000022070BD04F50C71206802F07BFB84F867
:100860002862002070BD70B50C4601F0070500EB52
:100870004511C1E90F2300224A64012281F8292091
:1008800001F8285F6207006802F0BBFB002070BD22
:1008900010B50446006802F083FC000402D520462F
:1008A00001F0A0F8206802F07BFC40050CD5206820
:1008B00030F8441F21F480610180204600F050F997
:1008C0000021204600F078F9206802F069FC40041D
:1008D00005D5206830F8441F21F48041018020684C
:1008E00002F05EFC800405D5206830F8441F21F436
:1008F00000510180206802F053FCC0041FD520681D
:1009000030F8401F21F004010180206830F8401FBA
:1009100021F00801018094F86002012806D100202E
:1009200084F8600201462046FFF788FE204600F06A
:100930002BF9206830F8441F21F480510180206891
:1009400002F02EFC00051AD5206830F8401F41F057
:1009500008010180206830F8441F21F40061018003
:10096000206830F8401F41F004010180206802F047
:1009700017FCC043C00402D5204600F04DF92068A2
:1009800002F00EFC00060BD5206830F8441F21F061
:100990008001018094F86002E0B1204600F03CF94B
:1009A000206802F0FDFB800508D5206830F8441F60
:1009B00021F400710180204600F0FAF8206802F06E
:1009C000EFFBC00505D5206830F8441F21F4807185
:1009D000018010BD206830F8401F41F00401018003
:1009E000206830F8401F41F008010180012084F8A0
:1009F00060022068B0F854003C2101EA9000C4F87D
:100A0000640201212046FFF719FEC9E72DE9F041F4
:100A100086B0040004D094F82902002520B108E033
:100A2000012006B0BDE8F08184F82852204600F08D
:100A30005DF8032084F82902206802F083FA04F1AB
:100A40001001142288466846FFF7BCFB94E80F00AB
:100A500002F0D2F90227B0BB0021206802F0B7FBF8
:100A6000002001260DE000BF04EB401181F8296051
:100A700001F8280FC881CD700D614D61401CC0B2D6
:100A80008D6161688142EFD800200FE004EB4011D6
:100A900081F8295181F8280181F82B51C1F838518A
:100AA000C1F83C51401CC0B2C1F84051616881425C
:100AB000ECD8142241466846FFF784FB94E80F0007
:100AC00002F031FA10B184F82972A9E784F82450B1
:100AD00084F82962E069012802D12046FFF79CFDD5
:100AE000206802F019FA00209BE7000010B586B0DC
:100AF000044614216846FFF77EFB174920688842A8
:100B000028D1164CE06C40F00100E064E06C6946CE
:100B100000F0010005904FF4C050009002200190B9
:100B200000200290032003900A2004904FF0904090
:100B3000FFF70EFCA06D40F08060A065A06D002264
:100B400000F08060059001214320FFF733FD432032
:100B5000FFF722FD06B010BD006800400010024003
:100B600070B5044680680125022801D0FFF793FB89
:100B70002946D4F8700201F0CAFDD4F87002BDE82D
:100B8000704001F08ABD000010B50446806930B1A4
:100B90000648016821F00601016001F05BF9D4F814
:100BA0007002BDE8104001F0A0BD000010ED00E0B3
:100BB000D0F8700201F09FBD10B5044690F82802ED
:100BC00001280BD0012084F8280284F82410206822
:100BD00002F0FFFA002084F8280210BD022010BDA8
:100BE000D0F8702200F50C71104601F0A3BD10B5CD
:100BF000044690F8280201280CD0012084F828022D
:100C0000206802F082F9206802F0BCFA002084F823
:100C1000280210BD022010BD10B50446D0F87002A5
:100C200001F0D5FDA069002804D00348016841F017
:100C30000601016010BD000010ED00E01649B0F59E
:100C4000007F0868C0F3412009D0022805D0086859
:100C500020F4C06040F480600860002070470128E4
:100C6000FBD0086820F4C06040F4007008600B48B6
:100C70003222006850430A4AB0FBF2F0401C00E008
:100C8000401E4A69520501D50028F9D1486940053E
:100C9000E3D503207047000000700040C40000202E
:100CA00040420F000248416841F480614160704752
:100CB000007000400248006800F4C0607047000007
:100CC000007000402DE9F843044600680026774D87
:100CD00080035ED5A86D0027C00008D4A86D40F041
:100CE0008050A865A86D012700F080500090DFF8C3
:100CF000C091D9F8001041F48071C9F80010FFF7D5
:100D0000F5FB804606E000BFFFF7F0FBA0EB080014
:100D100002282BD8D9F80000C005F5D5D5F89000E9
:100D200010F4407014D0216B814211D0D5F890009E
:100D3000D5F8901020F4407041F48031C5F890103F
:100D4000D5F8901021F48031C5F89010C5F89000C6
:100D5000C00711D0FFF7CAFB804641F2883907E08F
:100D6000FFF7C4FBA0EB0801494501D903260BE0BE
:100D7000D5F890008007F3D5D5F89000216B20F4CA
:100D800040700843C5F890001FB1A86D20F0805056
:100D9000A8652078C00707D0D5F88800616820F0E2
:100DA00003000843C5F888002078800707D5D5F8E8
:100DB0008800A16820F00C000843C5F8880020785E
:100DC000400707D5D5F88800E16820F030000843D7
:100DD000C5F888002078800607D5D5F888002169F5
:100DE00020F440600843C5F888002088800507D5B6
:100DF000D5F88800216A20F440200843C5F888000F
:100E00002088400507D5D5F88800616A20F4401095
:100E10000843C5F888002078400607D5D5F8880033
:100E2000616920F440500843C5F888002078000626
:100E300007D5D5F88800A16920F440400843C5F8DB
:100E400088002088C00507D5D5F88800E16920F41E
:100E500040300843C5F8880020884FF000618004C6
:100E60000ED5D5F88800A26A20F040601043C5F87E
:100E70008800A06A884203D1E86840F48010E860E6
:100E8000206840030ED5D5F88800E26A20F0406063
:100E90001043C5F88800E06A884203D1E86840F44E
:100EA0008010E8603046BDE8F88300000010024082
:100EB000007000402DE9F0470F46050058D0404E25
:100EC000306800F00700B84209D2306820F007000F
:100ED00038433060306800F00700B84248D12878C5
:100EE000384CC0072CD06868032811D0022812D0D3
:100EF000216898B1490500293ADAA16821F0030177
:100F00000143A160FFF7F2FA804641F2883910E010
:100F100021688901EFE721688903ECE78907EAE79F
:100F2000FFF7E4FAA0EB0801494502D90320BDE828
:100F3000F087A068696800F00C00B0EB810FEFD17A
:100F40002878800705D5A068A96820F0F00008433C
:100F5000A060306800F00700B8420BD9306820F07C
:100F6000070038433060306800F00700B84201D015
:100F70000120DCE72878400705D5A068E96820F45F
:100F8000E0600843A0602878000706D5A0682969BA
:100F900020F4605040EAC100A06000F01BF8A16896
:100FA000094AC1F30311515C01F01F01C840074910
:100FB000086007480068BDE8F047FFF7B5BA0000D1
:100FC000002002400010024034380008C400002015
:100FD000B800002070B52549002318468A68CC68FF
:100FE00012F00C0204F00306214C4FEA640509D00C
:100FF0000C2A05D0042A32D0082A00D1284670BD18
:10100000012E10D10B681B0704D4D1F89430C3F320
:10101000032302E00B68C3F30313164E56F8233084
:10102000DAB10C2AEBD1C86800F00300022818D00E
:10103000032818D01846CA68CB68C2F30212C3F35B
:1010400006234343521CB3FBF2F2C868C0F341606D
:10105000401C4000B2FBF0F070BD184670BD204649
:1010600070BD2046E7E72846E5E700000010024093
:101070000024F400443800082DE9F84304007CD033
:10108000FE4DA86800F00C06E86800F00307207821
:10109000C00662D576B10C2E01D1012F0AD0E069CD
:1010A0000028286878D040F001002860FFF71EFA79
:1010B000804659E02868800702D5E0690028DED024
:1010C000606A2968090703D5296801F0F00104E086
:1010D000D5F89410F02202EA1111884215D900F0D7
:1010E000D3FD002849D1286840F00800286028680E
:1010F000616A20F0F000084328606868216A20F4E3
:101100007F4040EA0120686015E0286840F0080050
:1011100028602868616A20F0F00008432860686849
:10112000216A20F47F4040EA01206860606A00F094
:10113000ABFD0028D6D1FFF74DFFA968D04AC1F317
:101140000311515C01F01F01C840CE490860CE4830
:101150000068FFF7E9F900287ED12EE0FFF7C6F915
:10116000A0EB0800022878D828688007F6D5286800
:1011700040F008002860286801E0B5E00CE0616AF2
:1011800020F0F000084328606868216A20F47F405E
:1011900040EA0120686010E020F001002860FFF7BD
:1011A000A5F9804606E000BFFFF7A0F9A0EB080014
:1011B0000228D8D828688007F6D42078C00740D005
:1011C000082E18D00C2E01D1032F14D06068B0F572
:1011D000803F17D0B0F5A02F286817D020F48030BA
:1011E0002860286820F4802028606068E0B1FFF75C
:1011F0007DF9804614E02868800322D560680028C5
:1012000072D01EE0286840F48030EDE740F4802082
:101210002860F7E7FFF76AF9A0EB08006428A2D876
:1012200028688003F6D50CE0FFF760F9804605E0FA
:10123000FFF75CF9A0EB0800642894D828688003C5
:10124000F6D4207880073BD5042E11D00C2E01D186
:10125000022F0DD0E06801E09AE1EAE0002828685A
:101260001ED040F480702860FFF740F907460CE07C
:10127000286840050CD5E0680028C1D008E000BF10
:10128000FFF734F9C01B022893D828684005F7D52A
:101290006868217C20F0FE4040EA016068600FE051
:1012A00020F480702860FFF721F9074605E000BFB1
:1012B000FFF71CF9C01B0228B1D828684005F7D4F5
:1012C0002078000753D560690028D5F894003DD0F8
:1012D000A16900F01002914223D081074FEAC0704B
:1012E00003D500288CD001E080E190B1D5F89400BE
:1012F00020F00100C5F89400FFF7F8F8074604E075
:10130000FFF7F4F8C01B112889D8D5F8940080079E
:10131000F6D4D5F89400A16920F010000843C5F870
:101320009400D5F8940040F00100C5F89400FFF750
:10133000DDF8074605E000BFFFF7D8F8C01B11280D
:1013400077D8D5F894008007F6D510E020F001009A
:10135000C5F89400FFF7CAF8074604E0FFF7C6F89F
:10136000C01B112865D8D5F894008007F6D42078E2
:10137000400778D5A86D0027C00008D4A86D40F0BC
:101380008050A865A86D012700F0805000903F486C
:101390000168C90512D40168814641F48071016079
:1013A000FFF7A4F8804605E0FFF7A0F8A0EB0800DF
:1013B00002283ED8D9F80000C005F5D5A068C107BD
:1013C00020D0D5F8901000F0800021F0800101437A
:1013D000C5F89010207A400705D5D5F8900040F068
:1013E0000400C5F89000D5F8900040F0010000BF5F
:1013F000C5F89000A06841F28839D8B1FFF776F8B7
:10140000804611E0D5F8900020F00100C5F890006A
:10141000D5F8900020F00400EAE700BFFFF766F877
:10142000A0EB0801494504D8D5F890008007F5D510
:1014300014E087E0FFF75AF8804605E0FFF756F81A
:10144000A0EB080149457DD8D5F890008007F5D478
:10145000D5F8900020F08000C5F890001FB1A86D6D
:1014600020F08050A8652078800632D5A06A002838
:10147000D5F898001CD040F0010009E000100240AF
:1014800034380008C4000020B8000020007000407C
:10149000C5F89800FFF72AF8074604E0FFF726F89A
:1014A000C01B022873D8D5F898008007F6D510E045
:1014B00020F00100C5F89800FFF718F8074604E08F
:1014C000FFF714F8C01B022861D8D5F898008007F0
:1014D000F6D4E06AB8B30C2E60D00228286820F059
:1014E000807028600BD0E86820F00300E860E868AE
:1014F00020F08870E860FEF7F9FF04464AE0FEF746
:10150000F5FF064605E000BFFEF7F0FF801B02284E
:101510003DD828688001F7D4D4E90C016FF00F02A0
:1015200002EB01110843A18F5204490802EB41511B
:10153000A26B41EA0221084394F840104FF07E422A
:10154000490801E023E053E002EB41610843E96808
:10155000284A11400843E860286840F080702860FD
:10156000E86840F08070E860FEF7C0FF044604E0E1
:10157000FEF7BCFF001B022809D828688001F7D5B8
:1015800036E000BFFEF7B2FF001B022802D903209D
:10159000BDE8F88328688001F4D429E00128F7D059
:1015A000E868226B00F0030191421FD1616B00F0EB
:1015B000700209011039914218D1A26B00F4FE416A
:1015C000B1EB022F12D1A18F00F4C00249084905E6
:1015D000A1F50011914209D194F8401000F0C060CB
:1015E00049084906A1F10071814201D00120CFE7ED
:1015F0000020CDE78C809FF910B5401EB0F1807FB0
:1016000001D3012010BD4FF0E02460610F2160176D
:1016100001F0FAFD0020A06107202061002010BD2C
:10162000704770477047704770B50446006801699D
:101630004FF00005C943890715D4C168C94389071C
:1016400011D4E91E0161012020772068806980079C
:10165000204602D0FFF7E7FF04E000F0A7F820469D
:1016600000F0A5F8257720680169C943490717D418
:10167000C168C943490713D46FF004010161022016
:1016800020772068806910F4407F204602D0FFF761
:10169000CAFF04E000F08AF8204600F088F82577B9
:1016A00020680169C943090716D4C168C9430907FD
:1016B00012D46FF008010161042020772068C0690E
:1016C0008007204602D0FFF7AEFF04E000F06EF87E
:1016D000204600F06CF8257720680169C943C906E7
:1016E00017D4C168C943C90613D46FF01001016152
:1016F000082020772068C06910F4407F204602D07F
:10170000FFF791FF04E000F051F8204600F04FF899
:10171000257720680169C943C90708D1C168C94351
:10172000C90704D1891E0161204600F041F82068F4
:101730000169C943090609D4C168C943090605D42A
:101740006FF0800101612046FFF76BFF206801699F
:10175000C943C90509D4C168C943090605D46FF452
:10176000807101612046FFF75BFF20680169C94372
:10177000490609D4C168C943490605D46FF0400140
:101780000161204600F015F820680169C943890607
:101790000BD4C168C943890607D46FF020010161E9
:1017A0002046BDE87040FFF73DBF70BD70477047F1
:1017B00070477047FEE70000F0B500230A2430258B
:1017C00037261F4611E000BFB4EB107F02D905EBAE
:1017D000107C01E006EB107C01F813C001EB430C18
:1017E00000015B1C8CF80170DBB29342ECD3F0BDBE
:1017F0002DE9F04786B014216846FEF7FCFC5E48F0
:10180000C16C41F00401C164C16C01F00401059197
:10181000C16C41F08001C164C16C01F0800105918F
:10182000C16C41F00101C164C16C01F0010105917D
:10183000C16C41F00201C164C06C012200F00200E1
:10184000DFF838815403059021464046FEF748FEF4
:101850004FF09049012210214846FEF741FE002238
:101860004FF4F8614846FEF73BFEDFF814A1002272
:1018700042F2D1215046FEF733FE01229603314653
:101880005046FEF72DFE0125CDE9004500240294C7
:10189000694640460394FEF75BFDCDE900640226ED
:1018A000694640460296FEF753FDE8030327CDE95B
:1018B0000007694602944046FEF74AFD0B20CDE939
:1018C0000007694602942F48FEF742FD48F22100C6
:1018D000CDE90004694648460294FEF739FD4FF40D
:1018E0008A600090CDE90154694648460394FEF7AA
:1018F0002FFD4FF46070CDE90005CDE90246694641
:101900004846FEF725FDC120CDE90005CDE9024698
:1019100069465046FEF71CFD40F606408DE8310052
:1019200069465046FEF714FD280300901648CDE99D
:10193000010669465046FEF70BFD46F21000009086
:10194000CDE90154694650460394FEF701FD48F283
:101950002800CDE90004694650460294FEF7F8FCE1
:101960006802CDE9000569465046CDE90245FEF71B
:10197000EFFC06B0BDE8F087001002400008004808
:1019800000040048001C00480000111010B500229F
:101990000F49104800F03BFD08B1FEF77CFC0E49F2
:1019A0000C4800F041FF08B1FEF775FC0B490948EF
:1019B00000F048FB08B1FEF76EFC064800F08AFF15
:1019C000002803D0BDE81040FEF765BC10BD000044
:1019D0002400002090020020CC000020A80000205D
:1019E000FEE770472DE9F05F044640F68F7B48F62E
:1019F0000F7A40F2024937E1B0F8441011F00F06B7
:101A000027D030F82670390473D530F8261001EA53
:101A10000B0141F0800120F8261004EB461595F8E3
:101A2000340105F59475002820687DD0297830F8B8
:101A300021205204B0F8502002EB000375D509EBC9
:101A4000C101595AC1F309015FEA01086ED02A8920
:101A5000C2E0C9062BD4018801EA0A0141F4004121
:101A60000180206804F12805B0F850102A7801445C
:101A700009EBC200085AC0F309006064E16B084436
:101A8000E06300212046FEF715FE94F824000028AC
:101A9000B1D0A8690028AED194F8240040F08001AC
:101AA0002068A0F84C10002084F82400DCE00188B5
:101AB00004F594750A051DD5B0F850102A78014434
:101AC00040F2064000EBC200085A04F50C71C0F366
:101AD0000903EB61EA88206801F065FB216808884A
:101AE00000EA0B0040F0800008802046FFF778F8FD
:101AF000BAE097E0090443D5018801EA0B0141F0FF
:101B0000800101802068B0F850102A78014440F22A
:101B1000064000EBC200085A83059B0DEB6111D013
:101B2000696979B1EA8802E037E04AE058E0206864
:101B300001F039FBE96968690844686100212046C1
:101B4000FEF7BFFD2068B0F850100844296900F284
:101B50000640B1B13E291AD24A08C90700D0521C2A
:101B60004FF6FF7101EA82210180216808884BF657
:101B70008F72104080F4405048F280021043088079
:101B800072E0018821F4F84141F40041ECE7490991
:101B90004FF4004242EA8121E6E7B0F850102B787A
:101BA000014440F2064202EBC302895AC1F3090123
:101BB0005FEA010820D0EA884346696901F0F3FA38
:101BC0001AE040F2064202EBC101595AC1F3090181
:101BD0005FEA010804D06A894346696901F0E3FAC3
:101BE0002978226832F8210048F68F73184048F2AD
:101BF000C003184322F82100E96901EB0800E861FD
:101C0000686900EB08026A61AB6913B12869404555
:101C100004D929782046FEF754FD03E029782046B0
:101C2000FEF7D5FD38061FD5226804EB461032F8C2
:101C3000261001EA0A0141F4004122F82610216829
:101C4000B1F85020531810F8282F09EBC201595A47
:101C5000C1F30901C16142690A44426101788369A3
:101C6000204653B1FEF7FFFD2068B0F84410090488
:101C70003FF5C2AE002000F003B8FEF71BFDF3E70E
:101C800030BCBDE8C09F7047F8B51C4D0646002427
:101C9000A86DC00002D5FFF70DF80DE0A86D40F06B
:101CA0008050A865A86D00F080500090FFF702F802
:101CB000A96D21F08051A965B0F5007F04D0802E78
:101CC00007D94FF003040AE0802E08D9A02E01D8CE
:101CD00004E001D1022402E0702E00D10124084862
:101CE000016821F0070121430160006800F007004E
:101CF000A04201D00120F8BD0020F8BD0010024034
:101D000000200240012240214FF09040FEF7E8BB46
:101D10002DE9F04115460E460446204F00F040F8EC
:101D20003878C007FAD14FF090470022402138465A
:101D3000FEF7D6FB032000F057F8200A00F054F815
:101D4000E0B200F051F80AE06D1EADB2002000F0E4
:101D50004BF8641C06F8010BA4B2E00608D0002D75
:101D6000F2D13846BDE8F04101224021FEF7B8BB70
:101D7000002DF6D0012240213846FEF7B1FB0022AB
:101D800040213846FEF7ACFB032000F02DF8200A76
:101D900000F02AF8E0B200F027F8D5E7180000209C
:101DA00010B54FF09044002240212046FEF798FBEA
:101DB000052000F019F8552000F016F8044901221A
:101DC00008702046BDE810404021FEF789BB0000A6
:101DD0001800002070470000012211460148FEF75C
:101DE0007FBB0000000400482DE9F0410024DFF82B
:101DF0005C80064625464FF0904700220121404670
:101E0000FEF76EFB6006040E20213846FEF763FBEA
:101E1000012801D144F00104002280213846FEF758
:101E20005FFB300604D5012280213846FEF758FBBF
:101E30007006060E012211464046FEF751FB6D1C4E
:101E4000EDB2082DD9D32046BDE8F081000400484A
:101E5000FEF752BB10B5A4B044216846FEF7CBF99B
:101E600014211EA8FEF7C7F9342111A8FEF7C3F903
:101E70004FF40070FEF7E2FE38200090002460214D
:101E80000120CDE908410A90059007900221CDE993
:101E90000B100D902820CDE90E0168461091FFF738
:101EA000EBF80F201E900320CDE91F04219404219C
:101EB0001EA82294FEF7FEFF4FF400501B941190D1
:101EC00011A8FEF7FFFE24B010BD00000D48016808
:101ED00041F4700101600C48016841F001010160AA
:101EE000002181600268094B1A4002608214C260BE
:101EF000026822F48022026081610249C0038039B5
:101F00000860704788ED00E000100240FFFFF6EA2D
:101F10000148FFF789BB0000500200200148FFF78D
:101F200083BB0000D00100200148FFF77DBB00000B
:101F300010020020D0F89002002180F850100846CE
:101F4000704770B50546D0F89042D5F89422617874
:101F5000D26820789047402322460121284600F08D
:101F60008CFB002070BD70B50446812100F074FA2E
:101F7000002501212046E56200F06EFAC4F85851B0
:101F8000D4F8900248B1D4F8940204F5247480681F
:101F90008047206800F0FBFD2560002070BD10B573
:101FA000D0F89042E16C012908D1D0F8940223784E
:101FB0006178C268184690470020E064002010BD98
:101FC0000A210180004870479401002029210180E6
:101FD0000048704704010020292101800048704713
:101FE0003001002029210180004870475C01002059
:101FF00070B50446002602230322812100F02AFB4B
:1020000001250223032229462046E56200F022FB37
:102010005420C4F8585100F0BBFDC4F8900278B1C8
:102020000546002085F85000D4F8940240688047A7
:1020300040232A460121204600F01FFB304670BD98
:102040000126FBE702460220002902D00020C2F848
:1020500094127047F8B50022D0F89032ADF8002005
:102060000E781546144616F0600622D0202E56D162
:102070004A78921E0A2A52D2DFE802F01008515123
:10208000515151140C05887818644BE0012203F17A
:10209000400135E04888000A586443E0012203F11A
:1020A00044012DE00122DA64CA88194600F064F880
:1020B00038E04E7836B1062E0BD00A2E23D00B2EE8
:1020C0002DD128E090F87422032A28D102226946F3
:1020D00016E04B882226B6EB132F07D1CA88222A96
:1020E00000D92222D0F894120D6808E02126B6EB20
:1020F000132F04D1CA880E4D092A00D90922294676
:1021000000F054F80EE090F87422032A07D101225F
:1021100003F14801F4E790F87422032A04D000F098
:1021200020F802242046F8BD88789864FAE7000079
:102130008801002010B5D0F88C225268904700200A
:1021400010BD134610B50A46002100F096FA002093
:1021500010BD134610B50A46002100F041FB0020D7
:1021600010BD10B50446802100F011FB2046BDE8EB
:102170001040002100F00BBB10B50323C0F848212C
:10218000C0F86C32C0F84C2113460A46002100F01A
:1021900074FA002010BD10B505210023C0F86C12A0
:1021A0001A46194600F069FA002010BD10B5022346
:1021B000C261C0F86C32026213460A46002100F088
:1021C0000FFB002010BD10B504210023C0F86C12D5
:1021D0001A46194600F004FB002010BD10B50A464F
:1021E000024903A000F0EFF8004810BDF8070020F6
:1021F0004D4B546F6F6C436F6E6600001220088069
:10220000004870474800002010B50A46024903A064
:1022100000F0D9F8004810BDF80700204D4B546F6E
:102220006F6C0000042008800048704744000020C4
:1022300010B50A46024903A000F0C5F8004810BDD9
:10224000F8070020574644657369676E0000000078
:1022500010B50A46024903A000F0B5F8004810BDC9
:10226000F807002053544D333220437573746F6D5B
:102270002048756D616E20696E7465726661636574
:102280000000000010B51A2008800A480168001DEF
:102290000468001D0068081809D008220649FFF7E5
:1022A0008BFA0549042210312046FFF785FA0248CF
:1022B000801E10BD9075FF1F6A0000200C20088052
:1022C000004870475C000020F8B5044648880D4679
:1022D000010A06294CD006DC01290DD0022910D0B4
:1022E00003294FD11BE007294AD00F294AD1D4F83E
:1022F0008812207CCA6937E0D4F88812207C0A68EA
:1023000032E0207C02260028D4F88C0205D0C16A75
:10231000684688470146467041E0816AF8E7C0B2E6
:1023200006282FD2DFE800F003080D12171CD4F89E
:102330008812207C4A6817E0D4F88812207C8A68CA
:1023400012E0D4F88812207CCA680DE0D4F8881214
:10235000207C0A6908E0D4F88812207C4A6903E0EE
:10236000D4F88812207C8A6969469047014616E0B5
:10237000207C38B9D4F88C02416B68468847F5E771
:10238000207C20B129462046FFF7EBFEF8BDD4F8AB
:102390008C02016B68468847014607204870BDF8EB
:1023A000000048B1EA8852B1824200D90246ADF835
:1023B00000202046FFF7FAFEE8880028E6D12046F4
:1023C000FFF701FFF8BD70B5002300281ED00446BA
:1023D000002502E06D1CEDB2641C2678002EF9D1B8
:1023E000022404EB450414801278CA545B1C0322B7
:1023F000CA5400245B1C06E0CA545B1CDAB28C543D
:10240000521CD3B2401C0278002AF5D170BD10B521
:1024100080B1D0F88C3213B10023C0F88C3209B1EE
:10242000C0F88812012180F87412027000F0C8F818
:10243000002010BD022010BD10B50024D0F8980275
:10244000FEF76BF930B1012801D0022801D0022437
:1024500000E00124204610BD10B50024D0F89802F9
:10246000FEF737F930B1012801D0022801D002244B
:1024700000E00124204610BD2DE9F0411746044636
:1024800051B1D4F88C0242691AB194F8740203284D
:1024900051D00220BDE8F081D4F86C32002504F15F
:1024A0001400022B03D0042B3AD0C3B33CE0D0E994
:1024B00003639E4207D9F11AC1608AB239462046A9
:1024C000FFF747FE12E08068B0FBF3F103FB110158
:1024D00099B9984211D3D4F8701288420DD20022D3
:1024E00011462046FFF735FEC4F8705200231A4605
:1024F0001946204600F0C1F816E0D4F88C02C168F5
:1025000029B194F87402032801D12046884780211C
:10251000204600F03CF92046FFF73DFE04E0FFE7CF
:102520008021204600F033F994F87802012804D184
:1025300084F8785201E0204690470020AAE770B561
:102540001546044649B1D4F88C0282691AB194F850
:102550007402032830D0022070BDD4F86C1204F548
:10256000A070032902D005291ED027E0D0E903215D
:102570008A420BD9531AC3600846834200D30346EC
:102580009AB229462046FFF7DCFD17E0D4F88C020A
:10259000016929B194F87402032801D120468847C3
:1025A0002046FFF710FE09E000200146C4F86C0247
:1025B000204600F0ECF801E020469047002070BD76
:1025C00010B50446FEF76EFB19491A48C1F870426F
:1025D000C4F89812086008204860022088600861EA
:1025E000002048618861C86108620846FEF70EFA5B
:1025F00008B1FDF750FE0022D4F8980218231146C6
:1026000004F52674FEF73CF8582300228021206848
:10261000FEF736F89823002281212068FEF730F873
:10262000D823002201212068FEF72AF8002010BDDF
:1026300084050020006800400A06D0F8980201F0E6
:102640007F0100EB411002D590F82A00704790F806
:102650002A01704770B51D4613460024D0F8980231
:102660002A46FEF786F830B1012801D0022801D0B1
:10267000022400E00124204670BD10B50024D0F8EB
:102680009802FEF7A4F830B1012801D0022801D049
:10269000022400E00124204610BD70B5002204464B
:1026A00040231146FFF7D6FF40260125C4F85061AC
:1026B0003346002280212046C4F84451FFF7CAFF68
:1026C0006662A56184F874520020C4F86C026060F0
:1026D000C4F87C02D4F8900228B1D4F88C0200210E
:1026E000426820469047002070BD90F8751280F82F
:1026F00074120020704710B590F87412032904D1A9
:10270000D0F88C12C96901B18847002010BD01744E
:102710000020704710B50024D0F89802FEF74CFA5C
:1027200030B1012801D0022801D0022400E00124A8
:10273000204610BD70B5044600F52070054600F037
:102740005FF80120C4F86C02B4F88602C4F8700285
:1027500094F8800210F01F010AD001290DD002293F
:1027600010D000F08001204600F011F8002070BD6C
:102770002946204600F0B3F8F8E72946204600F045
:10278000DFF9F3E72946204600F032F9EEE710B50D
:102790000024D0F89802FEF731F830B1012801D0BA
:1027A000022801D0022400E00124204610BD10B50B
:1027B0000024D0F89802FEF71AFA30B1012801D0AF
:1027C000022801D0022400E00124204610BD90F828
:1027D000741280F87512042180F87412002070477A
:1027E00010B50024D0F89802FEF73DF830B101286A
:1027F00001D0022801D0022400E00124204610BDAF
:102800000A7802704A7842708A78CB7802EB032209
:1028100042800A794B7902EB032282808A79C97956
:1028200002EB0121C18070470246002011B1C2F8BD
:102830008C1270470220704710B5D0F88C22022409
:102840001AB11268904700B90024204610BD00005C
:1028500070B50E461E4D897804462970012931D87D
:1028600094F8740202280BD003280FD0314620467A
:10287000FFF777FC29782046BDE87040FFF75ABC87
:10288000D9B10320616084F8740209E071B1606815
:10289000884212D0C1B22046FFF74CFC2978616013
:1028A0002046FFF7C9FF02280CD006E0022084F87A
:1028B000740220466160FFF73DFC2046BDE8704091
:1028C000FFF781BC31462046BDE87040FFF749BCA8
:1028D000C800002010B5FFF76AFF002010BD2DE9E9
:1028E000F0410A784FF0000812F0600208D0202A68
:1028F00001D0402A6FD1D0F88C22926890476CE0CA
:102900004B780022012502260A2B64D2DFE803F06F
:102910003F5B6355630805632B28FFF7D5FC5CE03C
:1029200004468888D0B9C888C0B94888802815D29C
:1029300000F07F0794F8740203280FD084F87672B1
:1029400039462046FFF7E6FE2046FFF73CFC17B16C
:1029500084F8746241E084F874523EE020463AE024
:10296000FFF776FF39E0CB88012B34D190F8743231
:10297000012B04D0022B02D0032B2CD104E0826067
:10298000012200F1080115E00122011D12E090F87A
:102990007432012B03D0022B01D0032B1BD1CB8827
:1029A000022B18D1C260D0F87C1201B1C66002229D
:1029B00000F10C01FFF7FAFB0FE0498801290CD167
:1029C000C0F87C5211E090F87432012B08D0022B31
:1029D00006D0032B04D0FFF7C4FB4046BDE8F081CE
:1029E00049880129F9D1C0F87C22FFF7ECFBF4E714
:1029F0002DE9F0410A46044610780027097910F0C5
:102A000060030AD0202B01D0402B50D1D4F88C0287
:102A100011468368204698478FE0C0F34110012893
:102A200006D05078D0B301282AD003283FD107E040
:102A3000D4F88C02114683682046BDE8F04118475F
:102A400094F87402022802D0032872D10AE071B30C
:102A500080296ED02046FFF79AFE80212046FFF79E
:102A600096FE6AE0508838B931B1802904D0D08808
:102A700010B92046FFF78BFE2046FFF7A4FB5CE071
:102A800094F874020228E2D0032852D1508898BBEF
:102A90004806F1D02046FFF7CFFCEDE7FFE794F8BA
:102AA00074020026022803D0032842D112E040E03D
:102AB00009B180293DD1080601F07F0000EB8000BC
:102AC00004EB800101D5143101E001F5A07102226F
:102AD0000E602AE0080601F00F0000EB800004EB16
:102AE00080000AD5806920B301F07F0000EB8000F0
:102AF00004EB800514350BE01FE0D0F84401C0B1B1
:102B000001F07F0000EB800004EB800505F5A07567
:102B100041B1802906D02046FFF78EFD10B101207B
:102B2000286000E02E60022229462046FFF73EFB87
:102B300003E011462046FFF714FB3846BDE8F0815C
:102B400070B5054608780C4610F0600003D02028C8
:102B500001D0402816D195F87402012803D002282C
:102B600001D003280ED1207901280BD8D5F88C028A
:102B7000826828469047E188014306D12846FFF73E
:102B800022FB02E02846FFF7ECFA002070BD7047F8
:102B9000004870472C0500202DE9F0470C784FF0D5
:102BA000000C30F8243048F68F121340CA78002AFF
:102BB0007ED0012A7DD0022A03D0032A7AD04FF09A
:102BC000010C48F28002134320F824300D7830F8CD
:102BD000254048F68F731C402C43144320F82540B1
:102BE0000F7B48F6BF744BF68F7948F2C0054CF264
:102BF0008006EFB391F80080C24630F8287048F2A2
:102C000080181F4047EA080720F82A70B0F8507073
:102C100091F80080074407EBC807B1F8088028F056
:102C20000108A7F80084B0F8507091F800800744BC
:102C300007EBC807B1F80A8028F00108A7F8048458
:102C40004F78002F7ED091F8008030F828707F04F4
:102C500005D530F828701F40374320F8287091F8C8
:102C6000008030F828707F0607D530F8287000E023
:102C70002FE01F402F4320F828700F7830F827509E
:102C80001D40354320F82750CB780D78012B30F8C4
:102C9000253003EA040301D083F02003134320F816
:102CA00025300B7830F8231001EA0901114302E0C6
:102CB00006E00BE007E020F823106046BDE8F0874F
:102CC00043F400737DE743F4C0637AE743F4806321
:102CD00077E74F7827B3B0F850600F78064406EBDB
:102CE000C706CF8827F00107A6F800740F7830F8E0
:102CF0002760760605D530F827601E402E4320F861
:102D00002760CB78012B06D00B7830F823102140B8
:102D100081F02001CAE70B7830F823102140C5E785
:102D2000B0F850400D78044404EBC504CD8825F07C
:102D30000105A4F80454B0F850400D78044404EBA5
:102D4000C50400E02DE00D6904F20644EDB13E2D0E
:102D500021D26F08ED0700D07F1C4FF6FF7505EA02
:102D6000872525800D7830F82540640405D530F896
:102D700025401C40344320F825400B7830F82310C0
:102D800001EA090181F4405190E7258825F4F845CE
:102D900045F40045E5E76D094FF4004747EA85250E
:102DA000DFE70F7830F827805FEA484807D530F82A
:102DB000278008EA030848EA060820F827800F78E9
:102DC00030F82760760605D530F827601E402E4380
:102DD00020F827600F7830F827601E402E4320F837
:102DE00027600D7830F8253003EA090383F4405357
:102DF000134320F825308EE7002070472DE9F0437B
:102E000091F80C804F780A7848F6BF7C4BF68F79A2
:102E100048F2800348F2C0054CF2800648F68F74F1
:102E2000B8F1000F28D0002F30F822704FEA474742
:102E300048D0002F05DA30F822702740374320F8B9
:102E400022700A7830F822707F0605D530F822709B
:102E500027402F4320F822700D7830F8252022409B
:102E6000324320F825200C7830F8242002EA0C02A6
:102E70001A4320F824201AE07FB130F82260760649
:102E800005D530F8226026402E4320F822600A78CB
:102E900030F8221001EA0C010EE030F822506D04E7
:102EA00005D530F822502540354320F822500A78C5
:102EB00030F8221001EA0901194320F822100020FD
:102EC000BDE8F083002F05DA30F822702740374341
:102ED00020F822700A7830F82260760605D530F89E
:102EE000226026402E4320F822600E7830F82620FB
:102EF00022402A4320F826200C7830F8242002EAC9
:102F000009021A4320F82420C1E730F8581F41F481
:102F1000004101800020704730F8581FC1F30E01B6
:102F200001800020704700B50121A0F84010002169
:102F3000A0F84010A0F84410A0F8501000F022F9BA
:102F4000002000BD30F8401F4BF680729143018095
:102F5000002070470020704730B50A7BB2BB4A782A
:102F600048F68F7548F28004C2B10B7830F8232000
:102F7000520607D530F823202A4048F2C0052A43DC
:102F800020F82320CA78012A20D00A7830F82210AD
:102F900048F6BF73194081F0200114E00A7830F838
:102FA00022305B0407D530F822302B404CF28005EC
:102FB0002B4320F822300A7830F822104BF68F731A
:102FC000194081F44051214320F82210002030BDE7
:102FD00010B54A780978002A48F2800330F8212099
:102FE00005D048F6BF74224082F0100204E04BF690
:102FF0008F74224082F480521A4320F8212000204E
:1030000010BDF0B50E46054691F801C00022097BBF
:103010003469B06948F28007BCF1010F04D0A042C6
:103020004FD9001BB0614EE0A04202D9001BB06135
:1030300001E00446B26169B1307835F820104906E4
:10304000B5F85010294401EBC00012D5A0F8064491
:10305000728911E0A3B2F2882846716900F0C0F8C5
:10306000B5F850003178284400EBC100A0F80244C4
:103070001EE0A0F802443289A3B22846716900F02C
:10308000AFF8707848F68F7110B1012807D00FE0C3
:10309000327835F82200084048F2C00105E0327865
:1030A00035F8220008404CF28001084325F8220040
:1030B000317835F8210048F6BF72104080F03000BA
:1030C0005BE00446B2614FF6FF724FF4004319B162
:1030D000BCF1000F19D02BE0B5F85000317828442E
:1030E00000EBC10000F206402CB13E2C30D3610948
:1030F00043EA812107E0018821F4F84141F40041CD
:1031000001E002EA812101802FE0B5F8500031781A
:10311000284400EBC10000F202407CB13E2C13D2E7
:1031200061085FEAC47C00D0491C02EA8121018069
:1031300070780028D0D001280FD016E0018821F443
:10314000F84141F40041F2E7610943EA8121EEE7E9
:103150006108E307D5D0491CD3E7B5F850104819EA
:10316000317800EBC100A0F80644317835F8210031
:103170004BF68F72104080F44050384325F8210000
:103180000020F0BD30F8401F4BF6807211430180E3
:10319000002070470148FDF77BBB0000840500203C
:1031A000B0F84400704710B510445C0800F580602A
:1031B00008D030F8022B01F8012B120A01F8012B7C
:1031C000641EF6D1DA0701D00078087010BD002027
:1031D000704711B98021A0F84C1000207047000002
:1031E00010B55B1C10445B0800F580600AD000BF7E
:1031F00011F8012B5B1E11F8014B42EA042220F862
:10320000022BF5D110BDFEE70907090E002804DBEB
:1032100000F1E02080F80014704700F00F0000F18A
:10322000E02080F8141D704702E008C8121F08C192
:10323000002AFAD170477047002001E001C1121F37
:10324000002AFBD1704700003FB50F4D00202870C9
:1032500000F025FA0D4C00206946225C0A54401CFF
:10326000C0B20828F9D30120287000F018FA002015
:1032700002A9221812790A54401CC0B20828F8D3B7
:10328000684600F0FBF83FBD04000020A0010020CC
:1032900030B50DA288B00FCA8DE80F000EA304ACA4
:1032A0000FCB84E80F001049104A002009786C46C3
:1032B00004AB31B11D5C1554401C1028F9DB08B07B
:1032C00030BD255CF7E700004503114F854C7A318E
:1032D000F67CCBB815A4D042519B4914B12E8FB5C2
:1032E00095DE627AD80D441C04000020A001002065
:1032F0001FB5FDF709F9FEF7ADFDFEF779FA50208D
:1033000000F092FAFEF768FDFEF7FCFC0122124D78
:10331000940321462846FDF7E3F821460F48FDF7C0
:10332000DAF8B8B1FEF732FB002221462846FDF755
:10333000D7F8102269461001FEF7EAFCFCF7ACFF53
:10334000074A00206946145C0B5CA34202D1401C72
:103350001028F8D3FEE700000004004800080048E9
:10336000C001002030B50CA38AB00FCB05AC84E8B7
:103370000F000D4900206A46235C0D5C401CC0B262
:10338000D5541028F8D30020135C0B54401CC0B255
:103390001028F9D30AB030BD0405060708090A0B46
:1033A0000F0C0D0E00010203A001002030B50CA38C
:1033B0008AB00FCB05AC84E80F000D4900206A46A7
:1033C000235C0D5C401CC0B2D5541028F8D30020FB
:1033D000135C0B54401CC0B21028F9D30AB030BDA6
:1033E0000405060708090A0B0E0F0C0D0001020365
:1033F000A0010020F0B500250F4916E00A7A02F07E
:1034000080030022C2F10B040E5D06F080077606F1
:10341000360E0E5563B146F00103521C0B55D2B265
:103420003B46042AEED36D1CEDB28542E6D3F0BDD7
:1034300006F0FE03F1E70000A0010020F0B5002532
:103440000D4A14E0D17A01F0010300215418267AC4
:1034500006F001077608267263B146F080032372F6
:10346000491CC9B23B460429F0D36D1CEDB285421C
:10347000E8D3F0BD2672F3E7A0010020FCB528A335
:103480000024D3E90023CDE90023274A234600BFC7
:10349000C3F10305465D4D5D35442C44D454FF2CE7
:1034A00001D9012400E000245B1CDBB2042BEFD324
:1034B00000252B466C46D65CE75C3E443544D5542B
:1034C000FF2D01D9012500E000255B1CDBB2042B98
:1034D000F1D300254FEA0503C3F10706875D8E5D32
:1034E0003E443544D618FF2D357101D9012500E041
:1034F00000255B1CDBB2042BEED300210846131819
:1035000026181D793679354429441971FF2901D9C6
:10351000012100E00021401CC0B20428EFD3FCBD13
:1035200089ABCDEFFEDCBA980D00002070B500220B
:103530000A4B1146C1F10B04C1F103061D5D865D06
:1035400035442A441A55FF2A01D9012200E00022FD
:10355000491CC9B20429EDD370BD0000A0010020B0
:103560003CB50EA00E4B00680090002001AD1C1869
:10357000195C2279247B5140214051402954401C40
:10358000C0B20428F3D32846FFF7D0FF05480078DF
:10359000002802D06846FFF7C9FF3CBD50A28BE669
:1035A000A00100200400002038B500F00401084B01
:1035B00000206A464418C0F10305401C1C5DC0B2DF
:1035C00054550428F6D31046FFF7B0FF38BD00006D
:1035D000050000207CB50FA00F4A0068002101AE55
:1035E00000905418505C25790346247B2B432840D7
:1035F000234018437054491CC9B20429F1D3304602
:10360000FFF794FF05480078002802D16846FFF7CD
:103610008DFF7CBD5A827999A00100200400002012
:103620003FB510A01149006802900FA001AC0068DE
:10363000039000200B180A5C1D791B7B6A405A40DE
:103640002254401CC0B20428F4D32046FFF76EFF7A
:103650000748007818B103A8FFF768FF3FBD02A82C
:10366000FAE700006ED9EBA15C4DD124A001002047
:103670000400002000B5FFF7BDFE5DF804EBFFF786
:1036800071BE00B5FFF7DAFE5DF804EBFFF76ABE26
:1036900000B5FFF7D3FE5DF804EBFFF787BE30B54A
:1036A000FFF7F6FDFFF75CFF0020FFF77DFF012528
:1036B0002846FFF7DFFFFFF753FF04242046FFF7FC
:1036C00073FFFFF74FFEFFF785FF2846FFF7D9FF8F
:1036D000FFF780FF0220FFF7D4FFFFF77BFFFFF724
:1036E00041FEFFF777FF03252846FFF7D1FFFFF7DD
:1036F00071FF2846FFF7BEFFFFF76CFF0125284644
:10370000FFF7B8FFFFF766FF2046FFF74DFF28469B
:10371000FFF7B7FFFFF75EFF2846FFF7B9FFFFF798
:1037200059FF2846FFF7ADFFFFF754FF0420FFF7CE
:10373000A1FFFFF74FFF01242046FFF7A9FFFFF786
:1037400049FF2046FFF796FFFFF744FF0020FFF7F1
:103750002BFF2046FFF795FFFFF73CFF0324204691
:10376000FFF788FFFFF736FF2046FFF791FFFFF7CF
:1037700031FF0420FFF77EFFFFF752FF2046FFF7DF
:1037800079FFFFF74DFF2046FFF782FFFFF748FF65
:103790000220FFF77DFFFFF743FF0120FFF771FFD6
:1037A000FFF73EFF0220FFF773FFFFF739FF04200A
:1037B000FFF7FAFE0120FFF75DFFFFF731FF03205F
:1037C000FFF766FFFFF72CFF0120FFF761FFFFF710
:1037D00027FF0020FFF7E8FE0220FFF752FFFFF768
:1037E0001FFFFFF7BFFDFFF71BFF0320FFF750FF91
:1037F000FFF716FF0220FFF744FFFFF711FF042039
:10380000FFF738FFFFF70CFF0320FFF73AFFFFF742
:1038100007FF0120FFF735FFFFF702FFBDE830404B
:103820000320FFF72EBF0000014908607047000029
:10383000000000200000000000000000010203045E
:1038400006070809A0860100400D0300801A060043
:1038500000350C0040420F0080841E0000093D002E
:1038600000127A000024F40000366E010048E801DE
:10387000006CDC029438000800000020A001000069
:103880003002000844390008A00100205810000050
:1038900038320008012413FD21140825221B0831A9
:1038A000041A51041A85041ADD141A09081ABD04F1
:1038B0003009040309041201010216408304505721
:1038C00026020102030114050F0C2D010710021935
:1038D000031B1A030222C0228414208D021B0889B4
:1038E000041A9104321019636153093D13F11F1B2F
:1038F00008670413552042081A9F0C1A35041A430E
:1039000004C11AD9101ACD041AE5041AC104140905
:10391000022913010125C03209042A02A91509212F
:103920001101140122221607058103022D05070546
:103930000107291A09562C691A31130A0632022A7C
:0439400040E0000063
:040000050800018D61
:00000001FF
